:400000000040002011000000890800008908000010B500F05BFCC04610B512221B4B1A60302000F0B1FD1A4A1A4B1A6095221202194B1A60194B1A4A1A6088218901194A90
:400040001160194A1A60A021C900184A1160184A1A6080221206174B1A608022D202164B1A604222154B1A60013A154B1A60013A144B1A601449072000F0BCFC072000F068
:40008000A3FC0022114B1A6010BDC046300010400600008004010B40080301400000014042FF00800403014041FF00800003014040FF008008010B4000010B404C010140F9
:4000C0001001014008010140DD0C00000C020B4010B572B600240FE039486200131959000B00411889881A5AC31858880004104300F0C4FB0134E4B2012CEDD930490C319C
:4001000030480C3000F090FB03212F4B1960EE222E4B1A602E4A2F4B1A602F4A2F4B1A6099222F4B1A6099231B042E4A1360802040022D4A10602D4A13602D4A13602D4816
:400140002D4A10602D4A1360EB22D2042C4B1A602C4803783C22934314221343DBB20370294A107816230343DBB213700122274B1A600532264B1A60264B19601E32264BC5
:400180001A60BA32254B1A60254A264B1A603322254B1A60254A264B1A600223254A13602E31254A1160254A1360254A13603022244B1A60FFF730FF00F050FB10BDC04684
:4001C000707D0000707F00000000024000010240303303330002024033EE3300000302400005024000500F4008500F4010500F4020500F4000009C1B28500F4030500F40E0
:4002000038500F4001700F4000700F400000044008000440000104400801044000020440B06DD8000802044000030440B66D03000803044000050440080504401805044006
:40024000000704400807044010B5064C2378002B07D1054B002B02D0044800E000BF0123237010BD9001002000000000287D0000084B10B5002B03D00749084800E000BFC4
:4002800007480368002B00D110BD064B002BFBD09847F9E70000000094010020287D0000C00000200000000070B501F001F9C0B20D4A1368D1180871013313600A2811D10A
:4002C0001400151D160024362900300002F0C2FF300000F083FA1E220021280002F019FB0023236070BDC046AC01002010B562B600F046FD01F03EF80A2000F065FB03486E
:4003000001F048F800F018F9FEE7C046A902000010B50400082000F043FD200000F0A2FB0C2000F03DFD200000F09CFB042000F037FD200000F096FB062000F031FD2000DD
:4003400000F090FB022000F02BFD200000F08AFB032000F025FD200000F084FB012000F01FFD200000F07EFB092000F019FD200000F078FB10BDC04610B50400092000F052
:400380000FFD200000F06EFB012000F009FD200000F068FB032000F003FD200000F062FB022000F0FDFC200000F05CFB062000F0F7FC200000F056FB042000F0F1FC2000B1
:4003C00000F050FB0C2000F0EBFC200000F04AFB082000F0E5FC200000F044FB10BDC04630B58DB08821C90501F0E8FE114901F01BFD041C02F07CF9050002F09BF9011C4D
:40040000201C01F0EFFF02F0DDF9009001912A00094902A802F0FCFE02A800F0B3FC002403E00320FFF7A8FF0134AC42F9DB0DB030BDC0460000B443307D000010B500F095
:40044000CBFC642200211E2000F0D6FD6421222000F060FE6421002000F05CFE642000F02DFE10BD10B500F079FE10BD7047C0467047C04610B500F0AFFC642200216A2099
:4004800000F0BAFD6421102000F044FE6421502000F040FE642000F011FE10BD10B500F0F5FEC820400100F095FEF020400000F097FE022000F074FE10BDC04670B58AB05C
:4004C000051C0124174901F0A5FC002800D1002401261549281C01F089FC002800D100263440E4B2002C0DD01049281C01F066FE011C0F4801F076FF02F0FAF880B200F064
:400500006FFE0DE068460B496B460A0032CA32C332CA32C332CA32C312681A6000F032FC0AB070BD0000B4C20000B442000060400000F043487D000010B500F0BDFE01243F
:4005400004E00021200000F0D1FE0134042CF8DD022000F0ABFE10BD10B5002829D12B4B1B782B4A1278FF3B591E8B41FF3A51424A411A4208D00021013000F0B7FE0021C6
:40058000022000F0B3FE3DE0204B1B78204A1278FF3B59424B41FF3A511E8A411A4231D01921012000F0A2FE1921022000F09EFE28E0184B1B78184A1278FF3B591E8B41FE
:4005C000FF3A51424A411A4208D00021032000F08DFE0021042000F089FE13E00D4B1B780D4A1278FF3B59424B41FF3A511E8A411A4207D01921032000F078FE192104200E
:4006000000F074FE642000F02DFA10BD23000F4033000F4043000F4053000F4010B50020FFF79AFF0120FFF797FF10BD70B504000D00FFF791FFFF2D12D8002C08D12900DA
:40064000012000F053FE0021022000F04FFE07E02900032000F04AFE0021042000F046FE70BDC04610B5040001000020FFF7DEFF21000120FFF7DAFF10BDC04670B50400B7
:400680000D00FFF769FFFF2D12D8002C08D10021012000F02BFE2900022000F027FE07E00021032000F022FE2900042000F01EFE70BDC04610B5040001000020FFF7DEFF75
:4006C00021000120FFF7DAFF10BDC0467047C04670B50C1C151C02F00BF8322857D010DC032834D005DC012823D025DC00281BD072E005283CD035DB06283FD0072843D01F
:400700006AE0C8285AD007DC34284CD045DB3C284DD03D284ED05FE0CA2855D051DBCB2855D0D02856D057E0291C201CFFF7CEFF52E0FFF701FF4FE0281C01F0D9FF05003A
:40074000201C01F0D5FF2900FFF770FF44E0281C01F0CEFF0500201C01F0CAFF2900FFF78DFF39E0201C01F0C3FFFFF7F5FE33E0201C01F0BDFFFFF775FF2DE0201C01F08D
:40078000B7FFFFF797FF27E0FFF748FF24E0201C01F0AEFFFFF7BCFD1EE0201C01F0A8FFFFF7EAFD18E0201CFFF71AFE14E0FFF775FE11E0201CFFF781FE0DE0FFF73EFE17
:4007C0000AE0FFF74FFE07E0FFF750FE04E0FFF74FFE01E0FFF74EFE70BDC04630B583B0040002F03FFD002306E0E21811782C2901D10C3911700133421E9342F5DB01A97E
:40080000200003F07FFB041C01A9019803F07AFB051C01A9019803F075FB021C291C201CFFF756FF03B030BDF0B50025002711E0BB00C658F3B2FF22964308E06A008A18C1
:400840001478A419527822700135013BDBB2002BF4D10137092FEBD9F0BDC0460323044A1360044A13600022034B1A607047C0463000304030003140000E3F4010B50A0011
:40088000002102F046F810BD10B502F00DF803680C2B00D1FEE7FEE710B50300094A1068C318094A9A1A902149018A4202DC054A136005E001F0F8FF0C2303600120404243
:4008C00010BDC046C40000200804002070B50F4E0F4D13E029686B68AC68002202E001C901C30432A242FAD1E868002202E0002102C304328242FAD11035013E002EE9D1EA
:4009000001F0D8FFFFF7F2FCFEE7C04601000000F082000010B50E4A136801218B43136000230AE0032B03D89A000A49505800E009489900094A885001332F2BF2D9FFF7C3
:40094000C7FB034A116801230B43136010BDC0460000104000000000890800000000002000230AE00D4A12683F210A400C49C95C8A4201D1033303E001332D2BF2D9032300
:4009800008490868084A02400A60084A944663441B78DBB2064A13607047C0462CFF0B40A47F000000002240FFFFFFBFCDF1FF0F28FF0B40034B18688023DB05184000D097
:4009C00001207047000022401F2318401E3B8340014A13607047C04600E100E01F2318401E3B8340014A13607047C04680E100E001BE704770B504000D001F2802D900206B
:400A0000FFF7F6FF1034A40080239B059C4664442068256070BDC04670B504000E00032902D90020FFF7E4FF1F2C02D90020FFF7DFFF03252540ED00063500F06AFDA408CD
:400A4000A400074B9C46644421680323AB4099430B003100A9401943216000F05EFD70BD00E400E010B5040006E0084B586800F047FD074B9C46644480231B029C42F4D806
:400A8000024B9868604300F03BFD10BDC80000200080FFFF70B582B000F0CAF800285DD000F037FD050000230AE02D4A12683F210A402C49C95C8A4201D1033303E0013337
:400AC0002D2BF2D903230021274A1160274A1268D20606D1254802681F318A4313390A430260234C2168234A1140234A5A438023DB019C466244D20B013A5205520D0B0081
:400B00001343A0225203134323601C4B1B680193302000F06FFD1A4A13688021C9050B4313602668174B1E40002407E00120FFF799FF1034A30533430D4A1360EE2CF5D91A
:400B40000120FFF78FFFFF239B051E43084B1E60019A0A4B1A60280000F0DFFC02B070BD2CFF0B40A47F000028FF0B4034FF0B400800224000F800C040420F0030001040E4
:400B800000002240FFFF3FC030B587B0040000F0C0FC0500FFF70EFF002803D0FFF7E0FE012100E00021104B1B6800930F4B1B680193033C0E4B1B5D02930E4B1B68039317
:400BC00004AA0D4B04936B4605930C4B1A600C480C4A10601B68012901D1FFF75BFF280000F09BFC07B030BD08010B4000010B40A47F000030001040B6EA000008001040C7
:400C0000170000800400104010B5034B1B7B584300F076FC10BDC046C8000020034B1868C0231B02184000D00120704700010B40034B1B68002B01DA012000E0002070479F
:400C40000000224010B500F064FC044A1368C02109020B43136000F060FC10BD00010B4010B500F056FC08490A68084B1A408024E40122430A600A68134080221202134382
:400C80000B6000F04AFC10BD00010B40FF3FFFFF70B5050000F03DFC0400FFF7BFFF002803D0FFF7DDFF012100E0002108482840084A1568084B2B4018431060136801298E
:400CC00001D1FFF7BFFF200000F027FC70BDC0460404040010020B40FBFBFBFF10B5244B1B685B0715D5234B5B685B070ED5224B596A042001401F4C62688A4362605A6A19
:400D000082435A629B69002B00D098470420FFF7BFFF174B1B685B0518D5164B5B685B0510D5154B596A8022D2001140114842688A434260596A114A0A405A62DB69002BF4
:400D400000D098478020C000FFF7A2FF084B1B685B030CD5074B5B685B0304D5064B1B6A002B00D098478020C002FFF791FF10BD10020B40DC000020F0010020FFFBFFFFA5
:400D80007047C04670B505000078012404E000F0C7FB285D0134E4B20028F8D170BDC046014B18707047C04673000F4010B50820FFF70AFE10BDC04610B500F01DF810BDFD
:400DC00010B5044A1368802109060B431360FFF7EDFF10BD0000244010B5064B1B78002B04D1FFF7E9FF0122024B1A70FFF7E8FF10BDC0461802002010B50024184B1C60AE
:400E0000184A194B1A60194B194A1360194A1460194A1460194A1360194B1C600820FFF7DDFD03210820FFF7F7FD16490820FFF7E1FD154B1C60154B1C60154B1C60154B57
:400E40001C60154B1C60154B1C601022144B1A70144B1C80144B1C60144B1C6010BDC04600002440C7080080600024400701008000032440040324401003244000022440F1
:400E80000402244049160000C80E2440880E2440480F2440080F2440C80F2440880F244038020020460200204C0200204002002010B50E4A13685B005B08136000230C49F6
:400EC0000B600C490B600C4804680C49214001600B490B600B490B6010210B4B19701368802109060B43136010BDC04600002440680024406C00244060002440FF5CFFFF86
:400F0000880F2440C80F24403802002010B504000368002B09D00120FFF776FE2368013B2360002B03D0002003E0002001E08020000610BD10B5002839DBC023034208D09E
:400F40000022284B1A601032274B1A70002310243DE0C3070FD5244B1B781B072BD5234B1B685B0001D5002300E0012310211E4A117001242BE0C30520D4830722D4C30646
:400F800005D51022184B1A70002300241FE0164B1B781B0719D5144B1B78DB0701D5252200E02422104B1A70002300240FE00123802424060BE00123012408E001238024E6
:400FC000640004E00023022401E000230024012B02D1FFF76DFF02E0054A064B1A60200010BDC04668002440380200206000244017030000000F244070B582B004000D0009
:401000001600244B1B78102B40D10820FFF7E6FC214B1B68DB0734D4FA239B005E43019600221E4B1A601E4A1E4B1A601E4A1F4B1A606400FF231C40002D03D12422154B5E
:401040001A7004E02522134B1A7001231C43184B1C600222174B1A60124B1C680823FF3320001840144B1B68C02423401843040001A8FFF74BFF2043EED0FFF75BFF0400D5
:4010800000E008240820FFF79FFC00E00424200002B070BD3802002064002440080F244017030000000F2440ED0F0000C00F24404002244068002440400F244010B582B0EF
:4010C000104B1B789B061AD5FA239B00584301900D4B1B689B0601D5182200E010220B4B1A600B4B18681223FF331840040001A8FFF70CFF2043F4D0FFF71CFF00E00420A1
:4011000002B010BD380200206400244068002440000F244010B582B00D4B1B789B0613D5FA239B00594301910A4B18600A4B18680823FF331840040001A8FFF7E7FE20433C
:40114000F4D0FFF7F7FE00E0042002B010BDC0463802002040022440000F244010B50820FFF73CFC074B1C88A2B21400064B1B789B0602D504231A4394B20820FFF724FCE7
:40118000200010BD4602002038020020034A117880235B420B43DBB21370704771000F4010B5030007201840DB0038221340054A11783F24A1431170117818430843107077
:4011C00010BDC04671000F40014B18807047C04600100F40014B18807047C04680100F40014B18807047C04640100F40014B18707047C04681000F40014B1878C0B2704736
:4012000061000F40014B188880B27047A0100F4010B501E0FFF7F6FFFFF7EEFFC306F9D410BDC04670B516490B783F2293432D221343DBB20B7013490A7801231A43D2B27F
:401240000A70114C22781343DBB22370C8256D012800FFF7B9FF2800FFF7BCFF0020FFF7BFFF0020FFF7C2FF00F053F9227810231343DBB2237000F050F9FFF7C9FF70BD2F
:4012800071000F4090000F4091000F4010B5064B1B78002B04D1FFF7C5FF0122024B1A70FFF774FF10BDC04620020020014B18707047C04670000F400322074B1A70002261
:4012C000064B1A707F32064B1A704032054B1A704032054B1A70704793000F4023000F4033000F4043000F4053000F4002280DD002D8012805D017E003280CD004280FD046
:4013000012E0C943C9B2094B19700DE0C943C9B2074B197008E0C943C9B2064B197003E0C943C9B2044B19707047C04623000F4033000F4043000F4053000F4010B50A20A9
:40134000FFF742FB10BDC04610B500F09FF810BD10B500F025F810BD10B5054A1368802109060B431360FFF7E9FFFFF7EDFF10BD0000264010B5064B1B78002B04D1FFF71D
:40138000E7FF0122024B1A70FFF7E6FF10BDC04624020020014B58607047C0462402002010B5204A204B1A600024204B1C60204A204B1A60204B214A13600721204A116098
:4013C000204A14600639204A1160204A1360204B1C6004221F4B1A600A20FFF7FFFA03210A20FFF719FB1C490A20FFF703FB1B4B1C601B4B1C601B4B1C601B4B1C600C227D
:401400001A4B1A601A4B1C601A681A4B1A801A4B1C601A4B1C601A4B1C701A4B1C601A4B1C6010BD0B080002000026404000264001000A004800264007000080000326405F
:40144000040326401003264044002640000226400402264050002640E5190000880E2640C80E2640480F2640080F2640C80F2640880F26402C0200202803002038030020B4
:401480002C030020300300203403002005490B68F0229343603A13430B60034B1A88034B1A607047000502402C020020880F264010B50A20FFF792FA00F080FA002806D055
:4014C0000A20FFF781FA00F05FFA040007E0094B1C680422084B1A600A20FFF775FA064B1868D82292001A600002D8239B021840204310BD40032640C00F264000000000EC
:401500000230800803D00138FDD1C046C046C0467047EFF3108072B6704780F310887047FEB5494652465B460EB407462E4909688A462E4A12682E48022100F0C5FA0300BC
:401540002A480068C0182A4900F0BEFA06001F3EB346234A126801219140C9430C0001250026FFF7D6FF814651460B6823400B6058460430FFF7C4FF3800F040284090406F
:401580000B68234003430B605846FFF7B9FF0136072EF1D900200130012090400B68234003430B6058460630FFF7AAFF4846FFF7B4FFC046C046C0460EBC894692469B464B
:4015C000FEBDC046C046C046C046C046C046C046C046C046C046C046C046C046C046C046EC000020E8000020E4000020D800002000C2010070B50400FFF78BFF0500102C19
:4016000005D8104A136803218B43136016E0202C07D80C490B6803229343023A13430B600CE0302C07D807490B6803229343013A13430B6002E00020FFF7DAF92800FFF7E8
:401640006CFF70BD3000104010B5AF4B1B68002B00D09847AD4B1B68DB0702D50022AC4B1A60AC4B1B789B0628D5AB4B1B68DB0507D5AA4A1188C0239B000B431380012302
:4016800000E00023A44A1268D20706D5A34A118890239B000B4313800123002B0FD09D4A1278D20701D5012200E002229B49088802430A800021974A117000E00023954A39
:4016C0001278920600D417E1934A1268D20611D51022934B1A608F4B1B78DB0701D5012300E002238D4A11880B4313801022894B1A7007E1874A1278120720D5864A126893
:4017000092070AD50222864B1A60844A118888239B000B431380012311E07E4A1278D20703D525217B4A117009E02421794A11707C4A1268002A02D014397B4A1160754AA0
:401740001278520700D4AEE0724A1278D20749D5764A1268120727D5754A1268754909681F240C40744909686418141B082C09D8002C16D1714A1168714B0B4013600123CE
:4017800008340EE008240CE06B4A11686D48006841186D480068C0B20870116801311160013C002CF0D119E0604A1268520715D5614A116863480068411863480068C0B281
:4017C00008701168013111601168594A1268914203D204215D4A116000E001235C495D4A116060E04C4A1268920726D502224C4B1A6059490B681D321A40096880231B0211
:401800000B4000D001239B18544A1168CB1A13601268534B1A60414A118884239B000B431380504B1A68802149020A431A6019684D4A0A401A60012335E04C4A1268D206A1
:401840001ED427E0454A1168364A126891421DD2344A1268013A414909688A4204D1402243490A6030490A603C4A11684148006841180978C9B24048016011680131116057
:40188000354A12681F210A40082ADBD11021384A116008E0354A1268520604D52F4B1A682F4B1A600123002B2CD0244A1168244B0B4013600023314A13601B4A1360304BDE
:4018C0001B789B070ED5134B1B78DB0701D5092300E00A23114A11880B43138060220D4B1A700FE0274B1B689B0601D5182200E01022164B1A6005E0064B1B78DB0601D4B4
:40190000FFF7D6FA10BDC0461C0200208C0E2440880E2440380200200C0F244046020020000F244048020020880F2440CC0F244058020020080324404C0200206000244065
:40194000FFFEFFFF540200204003244068002440ED0F0000C00F2440080224403C0200204002002004022440FFFFFEFF8C0F2440800F24405002002040022440C80F24407C
:401980004402002064002440094B1A68094B1B689A420BD0074B1B680133C92B00D10023054AD05CC0B2034A136000E00020704728030020380300205C020020074B1B6847
:4019C000074A1268934203D3054A1068181A04E0034A10681B1AC93318007047280300203803002010B5274B1B68002B00D09847254B1B685B071DD5244B1B680133C92B34
:401A000000D10023224A1268934205D1214B1B682022214B1A7006E01E4A1268D2B21F49CA541A4A13601E4B1B68DB06E4D104221C4B1A601C4B1B689B0721D51B4B1A685E
:401A40001B4B1B689A4213D0194B1B680133C82B00D10023174AD25CD2B217490A60144A1360164B1B681F221340102BE6D104E0134A136802218B4313600222114B1A608A
:401A800010BDC04628020020CC0F26402803002038030020400326402C0300205C02002008032640C00F26408C0F264030030020340300203C0300204002264008022640E4
:401AC000880F2640800F2640002243088B4274D303098B425FD3030A8B4244D3030B8B4228D3030C8B420DD3FF22090212BA030C8B4202D31212090265D0030B8B4219D311
:401B000000E0090AC30B8B4201D3CB03C01A5241830B8B4201D38B03C01A5241430B8B4201D34B03C01A5241030B8B4201D30B03C01A5241C30A8B4201D3CB02C01A524162
:401B4000830A8B4201D38B02C01A5241430A8B4201D34B02C01A5241030A8B4201D30B02C01A5241CDD2C3098B4201D3CB01C01A524183098B4201D38B01C01A52414309B6
:401B80008B4201D34B01C01A524103098B4201D30B01C01A5241C3088B4201D3CB00C01A524183088B4201D38B00C01A524143088B4201D34B00C01A5241411A00D20146C5
:401BC000524110467047FFE701B5002000F0F0F802BDC0460029F7D076E7704703460B437FD4002243088B4274D303098B425FD3030A8B4244D3030B8B4228D3030C8B42CF
:401C00000DD3FF22090212BA030C8B4202D31212090265D0030B8B4219D300E0090AC30B8B4201D3CB03C01A5241830B8B4201D38B03C01A5241430B8B4201D34B03C01A12
:401C40005241030B8B4201D30B03C01A5241C30A8B4201D3CB02C01A5241830A8B4201D38B02C01A5241430A8B4201D34B02C01A5241030A8B4201D30B02C01A5241CDD268
:401C8000C3098B4201D3CB01C01A524183098B4201D38B01C01A524143098B4201D34B01C01A524103098B4201D30B01C01A5241C3088B4201D3CB00C01A524183088B4290
:401CC00001D38B00C01A524143088B4201D34B00C01A5241411A00D201465241104670475DE0CA0F00D04942031000D34042534000229C4603098B422DD3030A8B4212D358
:401D0000FC22890112BA030A8B420CD3890192118B4208D3890192118B4204D389013AD0921100E08909C3098B4201D3CB01C01A524183098B4201D38B01C01A524143090F
:401D40008B4201D34B01C01A524103098B4201D30B01C01A5241C3088B4201D3CB00C01A524183088B4201D38B00C01A5241D9D243088B4201D34B00C01A5241411A00D29F
:401D80000146634652415B10104601D34042002B00D54942704763465B1000D3404201B5002000F005F802BD0029F8D016E770477047C0468446081C6146FFE71FB500F0BB
:401DC000B9F9002801D40021C8421FBD10B500F045F94042013010BD10B500F0ABF9002801DB002010BD012010BDC04610B500F0A1F9002801DD002010BD012010BDC04646
:401E000010B500F053F9002801DC002010BD012010BDC04610B500F049F9002801DA002010BD012010BDC046F0B5564644465F464D46F0B444024600C70F83B08846650A67
:401E4000360EBA463DD0FF2E22D00023EC00802599469B46ED0425437F3E43465C025800DB0F640A000E984636D0FF2830D080230021E400DB041C437F38301A01904846B2
:401E800042460843724E800030587A4013008746002D44D108239946063B9B46DDE70122FF2000241A406402C305640AD2071C431443200003B03CBC90469946A246AB4677
:401EC000F0BD002D20D104239946033B9B46C4E7002C17D1022102E0002C0AD10121321A01924A4643460A435A48920082587B409746200000F0BAFC431F76309C404042EE
:401F00000021BAE70321B8E7280000F0AFFC431F9D4000237630464299469B469DE70C239946093B9B4698E780240022E403FF20B9E70024C2468B465A465346022AAED087
:401F4000032A7DD0012A31D1012200201A400024A9E70122101A1B2856DD1A4000200024A1E78023DB031D424BD18023DB032B435C02640A3A00FF2095E76D01600185425E
:401F800030D2019A0024013A01921B220127290064006D00002901DBA84201D82D1A3C43013A002AF3D16A1E95412C4301987F300028CEDD620704D00F222240042A00D0C6
:401FC0000434220103D5244A019814408030FE2800DD64E70122A401640AC0B21A4062E72C00A9E72D1A1A220124CFE76B02BCD500248023DB031C436402640A4246FF2073
:4020000051E71C42B3D1F4E721002022C140101A8440621E94410C43620704D00F222240042A00D00434620104D5012201201A40002438E70122A401640A1A40002032E7C9
:402040008023DB031C436402640A5246FF202AE7D47F000014800000FFFFFFF7430270B542004C005D0AC30F4802120E460A240EC90FFF2A0FD0FF2C11D00120A24200D02B
:4020800070BDB542FCD18B420DD0002AF8D12800431E9841F4E70120002DF1D1EBE70120002EEDD1E9E70020EAE7C0464302F0B542005D0AC30F4802440A4800120E000E2C
:4020C000C90FFF2A1FD0FF2822D0002A09D16E426E4100280FD1002C0DD10020002D09D005E0002801D1002C01D08B4213D0584201231843F0BD002EF7D0484241410120C8
:4021000049420843F6E7002DDDD002204042F1E7002CDAD0F9E78242E9DC04DBA542E6D80020A542E6D25842434101205B421843E0E7C0464302F0B542004C005E0AC30F5E
:402140004802120E450A240EC90FFF2A17D0FF2C19D0002A0BD170427041002C17D0002807D048424141012049420843F0BD002C13D08B4214D0584201231843F6E7022075
:40218000002EF3D1E3E70220002DEFD1E1E7002DE5D10020002EE9D0EDE7002DE9D1EAE7A242E8DC04DBAE42E5D80020AE42DDD25842434101205B421843D7E7F0B55746EC
:4021C0004E4645464300E0B446028846760A1F0EC40F002F47D0FF2F25D0002380259A469946F600ED042E437F3F434642465D02D20F5B006D0A1B0E904640D0FF2B39D0E8
:4022000080220020ED00D20415437F3BFB1842465746591C62408C4607430F2F5CD86F49BF00C9598F46002E45D108239A46063B9946DAE7424602282DD0032800D1C3E03E
:40224000012800D0A2E0002500260240D4B27602ED05760A2E43E407264330001CBC90469946A246F0BD002E1AD104239A46033B9946BAE72A00511E8A41901CC6E7012013
:40228000002DC3D0280000F0F1FA431F76309D4043420020BAE70124FF2514400026D6E7300000F0E3FA431F9E400023763047429A46994699E70C239A46093B994694E735
:4022C00080260024F603FF25C1E735004846B2E7350022004846AEE72904090C0800370C3604360C2C0C7943704367437443060C64183619B14203D9802149028846474477
:402300000004000C310409188D01681E8541890E2943350CED19AD010D43290104D5012369081D4063460D4319007F31002925DD680704D00F202840042800D004352801FB
:4023400003D5274980330D401900FE29A3DC0124AD016E0A1440CDB279E78020C003064207D0054205D128434602760A4446FF256DE706437602760AFF2568E70124611AB0
:402380001B2905DD14400025002660E76346CBE72E002023CE40591A8D406B1E9D412E43730704D00F233340042B00D00436730104D5012401251440002648E70124B601D6
:4023C000760A1440002542E780260124F6032E437602760A1440FF2539E7C04654800000FFFFFFF7F8B54A024E0043024400240EC50F9B09360EC90F9209FF2E00D183E096
:4024000001204140A01BA9425CD0002800DC95E0002E1CD1002A00D081E05A0704D00F221A40042A00D004335A013BD50134FF2C00D191E001209B015B0AE4B205405B02DD
:40244000E4055B0AED0723432B431800F8BDFF2CE3D08021C9040A431B2800DD90E016002021C640081A8240511E8A4132439B1A5A0115D59B019E09300000F0F7F90538D6
:40248000864084426CDC041B330020200134E340041BA640721E964100243343BDE70D005A07BCD1DF0801231D40FF2C33D1002F00D190E08022D20313003B435B025B0AE8
:4024C000FF24BCE700284FDD002E2ED0FF2CA4D08025ED042A431B2800DD97E016002025C640281A8240501E824132439B185A01D5D50134FF2C6DD001227B481A405B085A
:40250000034013430D0088E7002A00D07AE777E7031EC5D100257B025B0AE4B28FE701380028A4D0FF2C97D177E7002A00D174E701380028DAD0FF2CCDD16EE7002821D1A4
:40254000601CC0B2012858DD80279E1AFF0437402FD0D61A0D008FE701231D4000236EE7624B241A334058E7002851D1601CC6B2012E33DDFF282DD09B185B0804004CE740
:40258000012274E7002C1AD0FF2E1FD08024E404404223431B2800DD96E01D002024C540201A8340581E83412B43D31A34000D005EE7002E00D05FE700250024ABE7002B99
:4025C00044D0C0430028F0D0FF2EE3D11300FF240D0022E70D00FF24002330E7002C5DD1002B7DD0002A00D117E79B185A0100D456E73E4A040013400FE7002C1ED1002B40
:402600002FD1002A65D013000D0006E701226DE7002C1FD1002B59D0C04300280BD0FF2E4FD01B285EDC1D002024C540201A8340581E83412B439B18340058E7002B1CD12F
:40264000002A49D013000D00FF24E6E6130034000D00E2E6FF2E34D08024E40440422343DFE7002A00D1D8E68027981AFF04074000D14DE7D31A0D00CFE6FF24002A00D153
:40268000CBE68020DB08C003034204D0D208024201D113000D00DB00FF24BEE6002B10D0FF24002A00D1B8E68020DB08C003034203D0D208024200D11300DB000D00FF2426
:4026C000ABE61300FF24A8E601236EE713003400A3E6002700251EE780270025FF03E9E613009AE60123A6E7FFFFFF7DFFFFFFFB4302590A4300C20F1B0E00207E2B0EDDFF
:402700009D2B0DDC802000040143952B0BDC9620C31AD9400B005842002A00D118007047034BD018FBE7963B99400B00F3E7C046FFFFFF7F70B5002830D0C317C5185D4074
:40274000C40F280000F092F89E231B1A962B0DDC9622D21A95406A02520AD8B25202C005520AE40702432243100070BD992B19DC9922D21A9540124A2A40690704D00F21C3
:402780000D40042D00D00432510103D50C4B1A409F231B1A9201520AD8B2DFE7002400200022DBE705222E00121AB921D6402A00C91A8A40551EAA4135001543DBE7C04661
:4027C000FFFFFFFB4200120E511C4302C9B270B55D0AC40F012915DDE02189008C466D071B0B6244002128000D0D2D052B431C4D52052B40520813435B00E4075B0823434E
:40280000190070BD002A15D1002D1FD0280000F02DF80A281DDC0B232A001B1ADA4013000200153295400F4A1B03121A52051B0B520DD7E7002D06D080221B0B1203134373
:402840006D07094ACEE7084A0023CBE700220023C8E703000B3B9D402B000025E3E7C046FFFF0F8089030000FF0700001C2101231B04984201D3000C10391B0A984201D306
:40288000000A08391B09984201D30009043902A2105C40187047C04604030202010101010000000000000000014B18687047C046500100200E4B70B500251E000D4CE41A6F
:4028C000A410A54204D0AB00F35898470135F8E705F0FCFC084B00251E00084CE41AA410A54204D0AB00F35898470135F8E770BDD8820000D8820000D8820000E0820000B4
:40290000002310B59A4203D0CC5CC4540133F9E710BD03008218934202D019700133FAE77047F0B58BB014001D1E129906DA802424061B191D0014002D2300E000230B708B
:402940002023149E03229E43462E07D03300453B59424B411099013ACB18109309AB049308AB0393139B00920293109B220001932B0001F067FB0700472E02D1119BDB07A8
:402980002DD5109BFB180793462E14D13B78302B0CD1002200232000290003F0FFFA002804D10123109A9B1A139A1360139B079A1B68D3180793002200232000290003F087
:4029C000EDFA3022002802D0079B099307E0099B0799994203D9591C09911A70F7E73800099B159ADB1B13600BB0F0BDF7B52B2307000C000270861C002901DA2D234C42AE
:402A00007B70092C1CDD6B46DD1D20000A21FFF7CBF9013D3031297020000A21FFF7DEF804000928F1DC013D30342C706B4607333000AB4209D92B78013533700136F5E7C5
:402A40003023E4183370B01C7470C01BFEBD0000F0B595B00C000A920B931A9D099002F0E7FB036818000D9300F0FCFB0023129323680E900C930C99277E2B680722C9055C
:402A800001D59B1800E0073393431A0008322A601A685B68A264E3640122E56CA66C6B005B080F935242C04B30000F9904F0E0FF002819D10122BC4B524230000F9903F052
:402AC0007DFA002810D1002200233000290003F06BFA002803D023002D2243331A70B34D472F0ED8B24D0CE032002B003000290004F0BEFF002800D19AE1AE4D472F00D888
:402B0000AD4D03230C9A236101339A432260002642E0672F00D193E1472F00D190E10C9A0021134312AA059211AA0392232223600691019308A963685218029200933200EB
:402B40002B0004970998FFF7ECFE20233A0005009A43472A00D18EE11199652F00D996E1200001393A0050301191FFF73FFF129A060083182361012A00DD85E12268D207E4
:402B800000D581E1232308AA9B181B78002B03D023002D2243331A700B9B13AA009321000A9B099800F0A4F9431C02D1012040429BE12268530501D4236964E0652F00D802
:402BC000CCE0A06CE16C0022002303F0E7F900282CD00123794A0A9909980B9DA847431CE4D0119B129A934208DB2368DB0705D4236800259B0700D50FE113E10B9D0E9B0D
:402C00000D9A0A990998A8470025431CCED0129B013B9D42ECDA220001231A320A9909980B9EB047431CC1D00135F0E7119B002B2BDC0123614A0A9909980B9EB047431CA7
:402C4000B4D0119B002B05D1129B002B02D12368DB07CDD50B9E0E9B0D9A0A990998B0470026431CA2D0119B5B429E420ADA220001231A320A9909980B9FB847431C95D0EE
:402C80000136F0E7129B2A00ACE0A36D129E9E4200DD1E00002E05DC00230C93F343DB170F9315E033002A000A9909980B9FB847431CF1D17AE7220001231A320A990998D6
:402CC0000B9FB847431C00D170E70C9B01330C930F9BA26D0C993340D31A9942EBDBAE18119B129A93420DDB2368DB070AD4129B119AED18AD1B9B1A9D4200DD1D00002DC5
:402D000009DC11E00E9B0D9A0A9909980B9FB847431CECD14AE72B0032000A9909980B9EB047431C00D141E7EF43FB1700260C930AE0220001231A320A9909980B9FB84728
:402D4000431C00D132E70136119A129B0C999B1A2A000A409B1A9E42EBDB49E7129B012B02DC01231A4245D001232A000A9909980B9FB847431C00D118E70E9B0D9A0A9979
:402D800009980B9FB847431C00D10FE7A06CE16C0022002303F002F9002801D000251AE0129B6A1C013B26E0FFFFEF7F9A80000096800000A28000009E800000A680000088
:402DC000220001231A320A9909980B9FB847431C00D1EBE60135129B013B9D42F0DB2200330050320A9909980B9DA847431C00D0FEE6DBE62A000A9909980B9DA847431CA0
:402E0000EDD1D3E62200012319320A9909980B9EB047431C00D1C9E60135E368139A9B1A9D42EFDB139BE06898425EDA18005CE080236268DB00511C00D06AE6073202E0EF
:402E4000002A02D10122626069E60C9908A80B430021069112A9059111A90391232109182360019300922B000497029132000998FFF757FD0500119BDA1C02DB6268934280
:402E80001CDD023FFFB267E6013323617AE6662F15D16368002909DD2161002B02D12268D2071ED50133591821611AE0002B03D101222168114213D09A1C11E06727119BB4
:402EC000129A934206DB22682361D20709D50133236106E00121002B01DC4918C91A8A182261119B0026A3654CE615B0F0BDC046F7B5170001938A680B6900900C009342C8
:402F000000DA130022003B6043321278002A01D001333B6023689B0602D53B6802333B60062523681D401ED0230043331B785A1E9341226892061CD53020E11843310870E7
:402F400021005A1C45310978A2184332023311700FE022000123193201990098089EB047431C0ED00135E3683A689B1A9D42F0DBDAE72200019943320098089DA847431C53
:402F800002D10120404220E006232068E1683A6803400025042B03D18D1AEB43DB171D40A3682269934201DD9B1AED180027BD420AD0220001231A3201990098089EB0470C
:402FC000431CDED00137F2E70020FEBDF0B58BB006920A0043320793059004920A7E0C00109B6E2A00D1ABE011D8632A22D009D8002A00D1B5E0582A00D0C5E045310A7029
:40300000814A4FE0642A1DD0692A1BD0BCE0732A00D1AAE009D86F2A29D0702A00D0B3E0202209680A43226037E0752A1FD0782A33D0A9E00E001A684236111D196013681A
:403040003370A4E021681A68080606D4490604D5111D19600023D55E02E0111D19601568002D3BDA2D23049A6D42137036E021681A68080606D4490604D51568111D196054
:40308000ADB202E0111D196015685F4B227E039308276F2A1DD00A271BE022007821453211705A4A19680392081D226818600D68100602D4500600D5ADB2D30702D5202377
:4030C0001A4322601027002D03D1202322689A4322602300002243331A7002E00A274A4B03936368A360002B09DB0422216891432160002D05D1049E002B11D07BE0002DF0
:4031000079D0049E28003900FEF764FD039B013E5B5C280033703900FEF7D6FC051EF1D1082F09D12368DB0706D563682269934202DC3023013E3370049B9B1B23612BE02E
:4031400009681A68080607D4490605D5111D19601368A28A1A8004E0111D1960136862691A600023049E236116E01A68111D1960166800216268300002F068F8002801D0CB
:40318000801B6060636803E0260042363270012323610023049A1370079B09AA00932100069B0598FFF7A4FE431C02D10120404227E02369320006990598079DA847431C33
:4031C000F4D0236800259B070FD4099BE068984217DA180015E022000123193206990598079EB047431CE1D00135E368099A9B1A9D42F0DBE9E72600039B42361B783370D4
:403200008EE70BB0F0BDC046A8800000B98000000EB410B59DB002A9029008610B48822488604861012040421FABC881084804CBA400006801938C8102F028FD0023029AEE
:4032400013701DB010BC08BC03B01847FFFFFF7F50010020031C0A7801311A700133002AF9D170470023C25C0133002AFBD1581E7047000070B516000D0002F0C7FA002E72
:403280000DD06B226B005B0DD31A002B07DD0024034A1B059D182B00220003F01BFE70BD0000F03F0023F0B5A3B01E93002600270B000290049118921D931D9B1A780D2AB4
:4032C00005D8092A14D2002A00D1BDE112E02B2A04D02D2A04D0202A0CD109E0002200E0012210925A1C1D925B78002B04D1ABE10133E1E70023109300221D9D09922B78C2
:40330000302B5DD16B78582B01D0782B4CD1109BC24A01931EAB00931DA91FAB029801F0A0FC07240390044001D100F0BCFD062C05D1002301351D95109300F0B4FD1E9A23
:40334000002A07D0352120A802F04CFB1E99029801F0BFFF062C1DD8200002F005FE040A0715180A040000273E0013E0209E219F10E0219BAA4AAB491A401F9B209E5B18BA
:403380001B051A43170005E0A74F002602E00126A64F7642039B1B0701D400F084FD80231B061F4300F07FFD1D9B5A1C1D925B78302BF9D0002B01D100F075FD0123099337
:4033C00000250A221D9B08950C9306951D9C23780393303BD9B2092910D80699082904DC089951435B18089302E0290051435D18069B0134013306931D94E7E7029801F03F
:4034000017FF03680298059301F012FF0068FFF729FF05990200200002F04CFD041E06D00020069A039B8446039205905AE0029801F0FEFE0068FFF715FF1D9B069A181851
:403440001D900378101E3ED1302B05D11D9B01305A1C1D925B78F7E71A00313A082A3CD8844600201D9A03900C92303B421C002B23D00A219444039A101882420BD00132D9
:40348000541E082C03D8089C4C430894F5E7102AF3DC4D43F1E7511C0391082A06DC0A2208994A439B180893002206E003990022102902DC0A2169435D181D9B1000591C4C
:4034C0001D915B7803E02000A446069A03921A00303A092AC9D9012203E0002203929446013205922022190091430A000021452A4DD1039B099A034313438B4200D1A3E08A
:403500001D9B049301331D93049B5B782B2B04D00C002D2B07D1012400E00C00049B02331D93049B9B781A00303A092A2CD8302B04D11D9B5A1C1D925B78F8E71A00313A3A
:403540000021082A23D8303B0A931D9B11931D9B591C1D915B781A00303A092A06D80A220A994A43D218303A0A92F0E7119A8A1A2F49082A04DC0A992D4A914200DD11007F
:40358000002C04D0494202E00021049A1D92039A002A64D1099A104301D000F084FC059A002A51D14E2B1CD002DC492B05D04BE0692B02D06E2B14D046E01E491DA801F035
:4035C0008CFD002840D01D9B1B49013B1DA81D9301F083FD002802D11D9B01331D93124F18E016491DA801F078FD00282CD01D9B1B78282B0DD120AA11491DA801F081FD5A
:40360000052806D1219B084A209E1A43170000F04AFC0C4F002600F046FCC046E0800000FFFFEFFF330400000000F07FFFFFFF7F1F4E00009B80000023810000A38000009A
:40364000CC8000000000F8FF049B1D9300231093189B002B01D000F029FC00F032FC6346CB1A0593069B002B01D1039B0693039C102C00DD1024089804F092FA06000F00F4
:40368000092C15DD2300874A093BDB00D3181A685B6803F01FFC060028000F0004F080FA02000B003000390002F0C4FC06000F00039B0F2B3ADC059B002B01D100F0F3FB41
:4036C00026DD162B07DC7749DB00C9183200086849683B0017E02523039A9B1A059A9A4224DC0F24039B6F4DE41AE10069183200086849683B0003F0EDFB059B1C1BE4007C
:403700002D192A686B6803F0E5FB06000F00CAE3059B16330ADB059B3000DA00614B39009B1A1A685B6802F0B1FFEEE7039B1C1B059BE418002C59DD0F2323400AD0594997
:40374000DB00C9183200086849683B0003F0C2FB06000F000F239C4300D1B3E02633FF339C420DDD002403940894059422230026029A4D4F1360089BB34200D07FE392E32D
:403780000023300039001D002411012C0DDD0122144207D0454AEB009B181A685B6803F099FB012301356410EFE7002B01D006000F003F4BED00FF183C4B32005D192868C9
:4037C00069683B0003F086FB374B0F000B40394906008B42C6D838498B4203D90126374F76426FE0D4239B04FF186BE0002C69D00F23644223400AD02A4ADB00D3183000C0
:403800001A685B68390002F041FF06000F00241158D01F2C04DD002403940894059426E100230493E30601D56A230493300039000023234D002C0ADD0122144204D02A68B8
:403840006B6803F047FB012364100835F2E7002B01D006000F00049B002B19D06B227B005B0D3900D31A002B12DD1F2B0CDD0026342B02DDDC27BF040AE00122203B5242C5
:403880009A4011400F0003E0012252429A401640002200233000390002F080FB0028BAD112E0C046388100000000F07F108200000000B0FC0000A07C0000907CFFFFEF7F44
:4038C000F880000000230493089B069A00930C99039B029801F053FD0890002800D141E7059B00245A42DB171A40059B1392DB43059ADB171A4011920394089B02985968B7
:4039000001F0AFFC0590002800D12FE7089B08991B690C319A1C92000C300693FEF7F0FF20AB01931FAB009332003B0002980C960D9701F0DBFF1E90002800D116E70121A7
:40394000029801F0A4FD0390002800D10EE71F9B002B00DA95E0139AD518119A0992049920985B1A3621091A1B188C46C549013B01208B4200DB8FE06246C91A521A9446EA
:403980001F2900DD82E08840002312900A932B0063440693099B049A6344D3180993069B2A009D4200DD1A00099B934200DD1300002B06DD069AED1AD21A0692099AD21AA9
:4039C0000992139B002B6BD1069B002B00DD80E0119B002B00D086E0099B002B00DD8CE0002D00DD93E0059A1E99029801F0A3FE041E00D1BAE60025C3680399C5600993AA
:403A000001F07EFEA84200DB8FE0099BAB4200D020E2AE4200D01DE23B03AB4200D019E2D622994BD2043B40934200D812E26369AB4276D021000122029801F00FFE039988
:403A4000040001F05DFE002800DC03E2049A8E4B002A00D199E01A00D6213A40C9048A4200DD92E0DC239B049A4200DDF5E12223029A00261360089B0027002B00D0FEE164
:403A800011E2119A139DD21A099268E77F49CB1A010099400A9101E000230A93129076E71A000399029801F085FD0390002800D15CE601001E9A029801F0F2FC199000288C
:403AC00000D153E61E99029801F003FC199B1E937AE7069A1E99029801F0C0FD1E90002800D075E742E6119A0599029801F062FD0590002800D06FE738E61A000599029866
:403B000001F0ACFD0590002800D069E72EE62A000399029801F0A2FD0390002800D062E724E62369012B85DC94E1002864D1099A3B03002A24D0564A39001B0B93422DD170
:403B4000049B0138B4460200002B0AD0D4254E4BED043B40AB4204D86C321B0DD31A02009A4062451AD14B4B994202D1531C00D1FCE5454B0026194080235B03CF1869E1DE
:403B8000002B0BD1002E09D160E70126424A3B409B183F4A76421A4317005BE10A9B002B03D03B4200D155E103E0129B334200D150E1099B049A30003900002B0AD0FFF709
:403BC00059FB02000B000C980D9902F033FA06000F003FE1FFF74EFB02000B000C980D9903F0F2FB0022002306000F0002F0D6F9002800D03BE72DE10399200001F0CAFE98
:403C000080230022DB050690079102F0D7F900284AD0099B002B04D00022204B0A920B930EE0002E02D13B0305D10CE0012E02D1002F00D11BE700220025194B0A920B936B
:403C4000164B069349E0002206980799134B02F0ABF9002808D1069807990022114B03F039F90500069102E00E4B099D0693802212069446069B1A9563441B931A9A1B9B32
:403C800029E0C04602FCFFFF0000F07FE2FBFFFFFFFF0F00FFFFEF7F0000F0FF0000F03F0000F0BF0000E03F894B06980799002203F010F9099B05000691002B05D1802336
:403CC0001B06CB181490159303E00200069B14921593149A159B0A920B937E4B3B401293129A7D4B9A4229D10C9A0D9B0E920F937A4B3000FF18390001F088FD02000B007D
:403D00000A980B9903F0E6F832003B0002F092F9704A734B06000A409A420BD9714B0F9A9A4203D10E9B013300D11FE501266D4F76427EE0D4239B04CF1844E0049B002BCF
:403D40002FD0D423129ADB049A422AD8664A674B2800069902F032F900281BD02800069902F04AF9002800D1013003F019FF099B05000691002B05D180231B06CB181690CC
:403D8000179303E00200069B16921793169A179B0A920B93D6220B9BD2049B18129A9B1A0B930C980D990A9E0B9F01F02FFD02000B003000390003F08DF80C9A0D9B02F0D8
:403DC00039F906000F00049B002B32D1414B129A0A973B409A422CD10699280003F068FE03F09CFE0B0002000699280003F0ECFA099B06900791002B04D1002E02D10A9BB0
:403E00001B030ED006980799394A3A4B02F0CCF8002834D106980799374A2D4B02F0D8F805E0334A354B0698079902F0BDF8002825D11E99029801F04CFA0599029801F0CE
:403E400048FA0399029801F044FA2100029801F040FA52E5049B002B11D0294B30000F9300230E9339000E9A0F9B03F033F806000F1E04D1002802D12223029A13601E9912
:403E8000029801F026FA0599029801F022FA0399029801F01EFA0899029801F01AFA2100029801F016FA189B002B02D0189B1D9A1A60109B002B04D080231B063200FB1890
:403EC00001E032003B001000190023B0F0BDC0460000E03F0000F07F0000E07F0000B0FCFFFF9F7CFFFFEF7F0000C0FFFFFFDF419535A094FFFFDF3F35E5AF35FFFFCF3FA6
:403F0000000050390B4B70B50A0001001868FFF7C9F902000B0004000D0003F0A9FD002803D0002001F0C2FF03E02000290003F06FFE70BD50010020F0B503690C6989B0CD
:403F40000700059100269C4279DC0B00013C1433A50003935B1904930300143302935D19049B28681B68591C0193FDF7ADFD0190B04233D0039B02989C460696634604CB14
:403F80009C46019B91B25943120C5A4389190B0CD3180793069A1E0C038889B29B1802685B1A110C6A46928B8A1A1914521811149BB21204134308C0049B06916345DDD231
:403FC0002B68002B0AD1029B043DAB4201D33C6104E02B68002BFAD1013CF4E70599380001F08EFB002829DB0020019B02990133039A019340CA0B881818B3B2C31A0868B0
:40400000360C000C801B1D14451928149BB22D042B4308C1049B9342ECD2029AA300D3181A68002A0AD1029A043B9A4201D33C6104E01A68002AFAD1013CF4E7019E3000CA
:4040400009B0F0BDF0B516001F00446A9DB00490259D06960797002C08D1102001F0ECF8049B5862446084600460C460049B5B6A196800290BD05A68012393404A608B60CB
:40408000049801F026F90022049B5B6A1A60079B002B05DA01232B607B005B08079301E000232B60079CC84B220019931A409A4219D1C64B249A1360069AC54B002A02D15F
:4040C000240300D1C34B269A1800002A01D100F07DFDD978DA1C002900D00532269918000A6000F073FD069E079F002200233000390001F053FF051E0ED00123249A1360D3
:40410000B54B269A1800002A01D100F05FFDB34A26990A6000F05AFD1AAB01931BAB009332003B00049801F0E1FB630005905B0D09D03A03AA4C120B1443AA4A3000210045
:404140009E1817951AE01A9B1B9A9E18A64BF318202B08DDA54A0698B218D0404022D31A9C40204303E020220698D31A984003F017FD01239E4C013E0919179300229D4BF0
:4041800003F022F99C4A9D4B02F0A4FE9C4A9D4B01F050FF040030000D0003F0BFFC9A4A9A4B02F097FE02000B002000290001F041FF04000D0003F07BFC00220390002368
:4041C0002000290001F0F0FE00280DD0039803F0A5FC02000B002000290001F0DFFE43424341039AD31A039301231693039B162B11D88749DB00C91808684968069A079B92
:4042000001F0E6FE002805D0039B013B03930023169300E016901A9B9E1B00230B93013E0C9604D50C9B5B420B9300230C93039B002B08DB039A0C9B944663440C9300232A
:404240001192089307E00B9B039A9B1A0B935342089300231193229B0125092B25D8052B02DD0025043B2293229B981E032824D801F07AFE060E0204012302E0012308E021
:4042800000231093239B002B20DD1F000A9321E00023239A1093039B9F187B1C0A930123FA18002A16DD130014E0012700237F42229310950A97123305E0012701237F42F1
:4042C00010930A9711330022239203E001273B000A972397049A546A00226260043211001431994204D86168520001316160F6E76168049800F0B5FF049B20605B6A1B68E0
:404300000D930A9B0E2B00D981E1002D00D17EE1069B079C14931594039B002B31DD0F223B491340DB00CB185C681B680E930F94039B02241D11EB060AD514981599354B0F
:4043400015401A6A5B6A02F0A1F9069007910134304E002D0ED001231D4208D00E980F99E4183268736802F0B5FD0E900F916D100836EEE70E9A0F9B0698079902F086F99A
:404380004CE0039B02245D42002D49D0149815990F231F4A2B40DB00D3181A685B6802F099FD0023069007911A4E2D11002D33D00122154205D0A4183268736802F08AFD15
:4043C00001236D100836F1E70000F07F0F2700002981000020810000A6800000A78000000000F03F01FCFFFF3204000012040000000010FE0000F83F61436F63A787D23F59
:40440000B3C8608B288AC63FFB799F501344D33F3881000010820000002B01D006900791169B002B1DD0069D079E0022C74B2800310001F0B9FD002813D00A9B002B10D01E
:40444000002F00DCDFE0039B3100013B0E930022BF4B280002F03EFD0134069007913E0002E0039B0A9E0E93200003F057FB069A079B02F02FFD0022B64B01F0DBFDB64A2A
:4044800012901391129C139D9446139B634418931D00002E1CD1069807990022AF4B02F093FF2200189B0690079101F091FD002800D054E2AA481399844661440B00069802
:4044C0000799220001F070FD002800D03DE29AE0109A731EA349DB00002A49D0CB181A685B680020A04902F0D1F82B00220002F06BFF129013910D9D0698079903F0D8FA3E
:40450000040003F00BFB02000B000698079902F05BFF01356B1E30341C70129A139B0690079101F041FD002800D02EE3069A079B0020864902F048FF129A139B01F034FD92
:40454000002800D0C7E00D9BEB1AB3425BDA1298139900227E4B02F0BDFC002212901391069807997A4B02F0B5FC06900791C3E7C9182200086849682B0002F0ABFC0D9C62
:4045800012901391A5190698079903F091FA060003F0C4FA02000B000698079902F014FF303626700134069007910022A54222D16D4B1298139901F03DFD02000B000698F5
:4045C000079901F005FD002800D084E0129A139B0020654902F0F8FE02000B000698079901F0E2FC00280ED06B1E1A78302A00D0CBE21D00F8E706980799554B02F06AFC78
:4046000006900791BFE7149B159C069307941B9B002B00DA81E0039A0E2A00DD7DE0D300504AD3185C681B6808930994239B002B15DA0A9B002B12DC00D088E108980999FF
:404640000022464B02F046FC069A079B01F0CAFC0A9B08931E00002800D07BE182E10D9D069E079F089A099B3000390002F00EF803F01EFA040003F051FA089A099B02F025
:4046800029FC02000B003000390002F09DFE220001356B1E30321A700D9B0A9AEB1A9A422ED102000B0001F0C5FC06000F0002000B000898099901F077FC00280FD10898AA
:4046C000099932003B0001F069FC002800D15EE2E30704D45BE20E9B039300E01D006B1E1A78392A08D10D9A9A42F7D1039A0D990132039230220A701A7801321A7046E2F1
:404700000022134B02F0E6FB0022002306000F0001F044FC0028A5D039E2109A002A44D0229A012A0BDC179A002A02D00F4A9B1802E036231A9A9B1A089D0B9C29E00A9BD6
:404740005D1E089BAB4213DB5D1B18E00000F03F0000244000001C400000C0FC000014400000C07C388100000000E03F33040000089B0895EA1A0025119B9B1811930A9B75
:40478000002B04DA0B9B0A9A9C1A002301E00B9C0A9B0B9A0121D2180B920C9A0498D3180C9300F074FE060002E0089D0B9C109E002C0ED00C9B002B0BDD0C9A23009442DF
:4047C00000DD13000B9AE41AD21A0B920C9AD31A0C93089B002B20DD109B002B17D0002D11D031002A00049800F0E4FE059A01000600049800F054FE05990E90049800F0C0
:4048000068FD0E9B0593089B5A1B06D000E0089A0599049800F0CEFE05900121049800F036FE119B0890002B00D1C0E11A000100049800F0BFFE229B0890012B17DC002517
:40484000069BAB420ED1079B1B03AB420AD1199B079A134206D00B9B013501330B930C9B01330C93119B0120002B0DD000E00025089B089A1B690E9303339B00D3185868DB
:4048800000F0BBFD2023181A0C9BC0181F23184009D001331B1A042B02DD1C23181A03E0042B08D018001C300B9B24181B180B930C9B1B180C930B9B002B05DD1A0005991C
:4048C000049800F0CBFE05900C9B002B05DD1A000899049800F0C2FE0890169B002B1DD00899059800F00CFF002817DA039B0A22013B039305990023049800F003FD109BCC
:404900000590002B00D159E1310000230A22049800F0F8FC0600002F37DC33E00A9B0A9F002B2ADC229B022B27DD002F12D108993B000522049800F0E5FC0890010005982C
:4049400000F0DEFE00280DDC04E0089602E000231E000893239B0D9DDB4303930AE00E9B089603930D9B0D9A5D1C31231370039B013303930A960026F3E0109B002B04D1EC
:404980000D9DB5E0229B022BCFDC002C05DD31002200049800F062FE06000A96002D12D07168049800F05DFC3100040033690C319A1C92000C30FDF7A3FF0122210004985B
:4049C00000F04CFE0A900D9B7D1E0B935B190E9308990598FFF7B0FA310010900400059800F08EFE0A9A05000899049800F0A3FE01230C93C36830340700002B04D1010050
:404A0000059800F07DFE0C903900049800F061FC0C9B229A134308D1069A0133134204D1392C2AD0002D1CDC1DE0002D06DB229B1D431BD10123069A134217D10C9B002BB5
:404A400011DD05990122049800F008FE0899059000F056FE002802DC05D1E30703D5392C0BD0109C31340B9B5D1C0FE00B9B5F1C0C9B002B0CDD392C05D10B9B0B9A5D1CA3
:404A80003923137057E03D000B9B01341C7068E00B9B0E9A3D001C7093423CD000230A220599049800F02EFC0A9B05909E4208D1310000230A22049800F024FC06000A909A
:404AC0000DE0310000230A22049800F01BFC002306000A220A99049800F014FC0A900B9776E700230A220599049800F00BFC059008990598FFF720FA0D9B30302870013540
:404B00000400EB1ABB42ECDB3D1E00DC01250A9600260D9B5D1905990122049800F09EFD0899059000F0ECFD002804DC13D1E30701D410E01D006B1E1A78392A08D10D9ABA
:404B40009A42F7D1039B013303933123137008E001321A7005E06B1E1A78302A01D11D00F9E70899049800F0B4FB0A9B002B0ED0002E05D09E4203D03100049800F0A9FBE3
:404B80000A99049800F0A5FB01E00E9B03930498059900F09EFB00232B70039B249A01331360269B0D98002B10D01D600EE0229B012B00DC43E6119D012065E6002F00DD92
:404BC000DEE6229B022B00DCDAE6AEE61DB0F0BDF0B50600056914364A113400AA4225DA1F23AD00920019407519B2183300002916D0130004CB2027CA40B4467F1A64469C
:404C00009D4208D91C68BC402243644604C404CBA446CA40F3E72260002A07D0043405E01C00954202D902CA02C3F9E7A31B9B10036100D14361F0BD0300303B092B01D877
:404C400020380BE00300613B052B01D8473805E00200413A0023052A01D82738C3B218007047F0B58DB0099102920A93059000F0DFFA036818000793FEF7F4FA0222079BC9
:404C800052421B18013B1B7804900B93099B19688B1C521AD118019308910199013308783028F7D0FFF7C8FF061E20D1049A0799019801F0FFF800283CD1019B049A9C18BD
:404CC0002078FFF7B9FF002837D00194019B1878302803D1019B01330193F7E7FFF7ACFF43424341039301232600089302E000231E000393019C2078FFF79EFF002801D071
:404D00000134F8E7049A0799200001F0D3F800280BD1002E0BD1049BE41826002078FFF78BFF002801D00134F8E7371E08D0361BB70005E0019C370000E0070001230393C2
:404D40002378502B01D0702B28D163782B2B07D02D2B03D00023661C069304E0012300E000230693A61C3078FFF766FF431EDBB2182B13D81038013605003078FFF75CFF45
:404D8000431EDBB2182B03D80A235D432818F1E7069B002B00D06D427F1900E02600099B1E60039B002B06D00020089B834200D07FE106307DE1019B0399E31A013B072B69
:404DC00002DD01315B10FAE7059800F04AFA0300002605001433039308930696019BA3422BD2631E09930B9A1B78934209D0069B202B15D1089B1E6000260433089306963B
:404E00000EE00123049A9C1A099B1C19019BA342EDD80799200001F04DF80028DED0E6E7099B1878FFF708FF0F231840069B099C9840043306430693D0E7089C039B40C465
:404E4000E41AA4102C61300000F0D7FA029B64011B68261A01939E4225DDF61A3100280000F0D6FD0024A04217D01F2101342000731E1940884001005A1103989200125864
:404E80000A420AD0A34201DC022406E0B11E280000F0BEFD0028F7D0032431002800FFF797FEBF190EE0019B00249E420ADA9E1B29003200059800F0D1FB0300050014335C
:404EC000BF1B0393029B9B6804939F4208DD0598290000F0FEF90023129AA3201360E8E0029B5E68B74259DA019BF61BB34232DC029BDB68022B1ED0032B20D0012B21D155
:404F0000019BB3421ED1012B0DDC029B62205B680193019A0A9B1A600123039A2B611360129B1D60C5E001992800013900F070FD0028EAD106E0139B002BE6D002E0139BDC
:404F4000002BE2D10598290000F0C3F90023129A50201360ADE0771E002C07D1002F06D03900280000F054FD040000E001241F237A111F401E3BBB400399920052581A42A5
:404F800001D002231C43019B31009B1B28000193FFF71EFE029B02265F6800E00126002C00D181E0029BDB68022B0BD0032B0DD0012B77D1A20775D5039A126814431C4234
:404FC00007D16FE00123139A9B1A1393139B002B68D02C69A30004932B00A20014339918002294461A68501C02D001321A6021E0624604C39942F5D8AB689C4212DB6B6887
:405000000598591C00F02DF929002B6903909A1C92000C310C30FDF773FC2900059800F058F9039D2B695A1C2A61012204339B00EB185A602B001433022E12D1029A01992B
:405040001268013A91422BD14A111F21019892000140012004008C40D358234220D006001EE02A6994420BDA01212800FFF7B0FD029B01379B6801269F4200DD27E70FE03B
:405080001F24019A01262240141E09D0049A9B18043B186800F0B1F920210C1BA042E3DB202300E010231E433000129B1D600A9B1F600DB0F0BD082370B520259A1A920052
:4050C000AD1A436806681C00AC40D34034430460436004308842F4D370BD30B503680C780133002C0AD01A781500413D192D00D820320131A242F2D0002001E00360012045
:4051000030BDF0B589B000920A68009953119B00CB1802931F231A400790059202D0029B04330293029B00251E1F37003400079B35601B68069503930195039B0133039338
:405140001B780493002B3BD00498FFF775FD002822D1049B202B17D8019B069A9342ECDDBC4206D2072D04DC2A0039002000FFF7A2FF009B08259C42DFD90025019B271F94
:405180003D6006933C00D8E7049B292B4BD1039B079A0133136013E0019B013501330193082D06DD009B9C42C7D900230125043C23600F22236810401B0118432060BCE759
:4051C000019B002B2FD0BC4206D2072D04DC2A0039002000FFF76FFF009B9C420AD9043302CC1A1F1160A642F9D2002204C39E42FCD20DE0059B002B0AD02021059A029BB4
:40520000891A01225242CA40043B19680A401A603368002B09D1009B9E4202D10123336003E0043EF4E7042000E0052009B0F0BD004870475401002010B5034B010018684A
:4052400000F062FC10BDC04650010020C9B28218904204D003788B4202D00130F8E70020704770B5466A04000D00002E07D11020FFF7E2FF6062466086600660C660666A43
:40528000F368002B09D0636AAA00DB689B18186800280ED002681A6017E021220421200000F0D7FB636AF060DB68002BEBD100200EE001210E00AE40721D9200200000F0D3
:4052C000C8FB0028F3D04560866000230361C36070BD70B5456A06000C00002D07D11020FFF7AAFF7062456085600560C560002C07D0726A6368D2689B00D3181A68226090
:405300001C6070BDF7B5070008000C000D691E00002101921430019A0388013153439B190668360C56431A0C9446B4446246160C120494469BB2634408C08D42EBDC002E54
:405340001BD0A3689D4212DB63683800591CFFF788FF2100236901909A1C92000C310C30FDF7CEFA21003800FFF7B3FF019C2B1D9B00E31801355E6025612000FEBDF7B53E
:40538000060018000C000830092101931500FCF725FC01230021834202DA5B000131FAE73000FFF75EFF089B436101230361092D12DD230009331F00009364193B78010097
:4053C000303B0A2230000137FFF79CFFA742F5D1009B5C19083C01E009250A342F00019B9F4209DA631BDB5D0100303B0A223000FFF788FF0137F2E7FEBD00220300010C45
:40540000914201D103041032190E01D108321B02190F01D104321B01990F01D102329B001000002B03DB20205B0000D5501C70470722036810B501001A400CD00124002018
:40544000234223D10222134203D0E34020000B601CE09B0818E098B2002801D110221B0CD8B2002801D108321B0A180701D104321B09980701D102329B08D80704D45B0815
:405480002020002B02D0013210000B6010BD10B50C000121FFF7E5FE01234461036110BDF0B50B691400126989B00D00934201DA25000C002F692669AA68BB19696801932D
:4054C000934200DD0131FFF7CCFE0200BB1914329B00D3189C46002113000290634501D202C3FBE71435BF00EB191434B6000593A31903950793079B9C4251D22088002899
:405500001ED015000026039F08CF069504936B461B8A434319002B88CB1804999B19090C41432E68360C89191E0C89190E0C9BB209040B4308C5059BBB42E5D8069B5E6094
:4055400023681D0C1FD0002110001368039F04913E8801686E43090C7118049E9BB289190E043343036008CF86881B0C6B43090C9B195B18190C0491059906900430B94298
:40558000E6D806994B6004340432B4E704235B429C4463461B68002B05D1019B013B0193019B002BF2DC029B019A18001A6109B0F0BD00000323F7B5134005000E0014008B
:4055C000002B08D02349013B9A00525800233100FFF798FE0600A310019338D06C6A002C07D11020FFF728FE6862446084600460C4606F6ABC68002C10D117492800FFF7FF
:4056000046FF0023B8600400036007E0019B5B1001931CD02068002810D004000122019B1342F3D0310022002800FFF739FF070031002800FFF74DFE3E00E7E72200210011
:405640002800FFF72DFF002320600360E5E73000FEBDC0460082000071020000F0B50C0017002369551185B0EB180193013300934968A3680290009A934202DA01315B00B5
:40568000F9E70298FFF7EDFD00230200060019001432AB4203DA980011500133F9E7EB43DB171D402300AD0055192269143392009A1894461F22174014D00132D21B039253
:4056C000002219682800B9400A4304C504CB0399CA409C45F5D84260002A07D0019B0233009303E004CB04C59C45FBD8009B0298013B33612100FFF7ECFD300005B0F0BDE0
:4057000003690A6910B59B1A0400181E12D1930014341431E218C918043A043913680868834204D083429B410120184302E09442F2D3002010BDF0B50C0085B00700110074
:4057400020001500FFF7DCFF061E07D101003800FFF787FD01234661036155E000230193984204DA23002C001D000123019361683800FFF776FD019B26692F00C36014344E
:40578000B300E318020002932B69002514379B00FB180393143208CC69469C4608CF0432009363468B808B885D19009B9BB2EB1A65460193009B2D0C190C019B691A1D145F
:4057C000131F9C466B4649199B880D1409040B4361460B60039BBB42DDD8029913008C420BD202CC8BB25B191D14090C49190D149BB209040B4308C2EFE7043B1A68002AAD
:4058000001D1013EF9E7066105B0F0BD0F4B10B519400F4BC918002902DD00220B0012E04942091500220023132904DC802000030841030007E0143901201E2902DC1F241E
:40584000611A884002001000190010BD0000F07F0000C0FCF7B50600036914369B00F3181D1F2C680F0020000193FFF7C6FD20231B1A3B601C490A2813DC0B2327001B1A45
:40588000DF4039439C460B000021AE4202D2019908390968153084406046C1400C4322001EE00027AE4202D2019D083D2F680B388446031E11D09C40202021433C00C01A06
:4058C000C44021430B000021B54201D9043D29686446C140A7400F4301E021430B003A001000190003B0F0BD0000F03FF7B51D000121089F1400FFF7B4FC2B036D0006005E
:405900001B0B6D0D02D08022520313430193002C18D068460094FFF78BFD009C002809D0019B20211A00091A8A40C34022437261019300E07461019CB461631E9C410134F6
:40594000346107E001A8FFF773FD0124019B346173612030002D06D00B4BED1835232D183D60181A0BE0094BC018094B3860E3189B00F3185869FFF740FD6401201A099B7D
:4059800018603000FEBDC046CDFBFFFFCEFBFFFFFFFFFF3FF0B585B00E0002A90700FFF759FF04000D00300003A900940195FFF751FF36693F690200BF1B7E01B446039F32
:4059C000029E0B00F61B6644002E03DD36057119019101E036058B1B0098019900F056FE05B0F0BD1300013910B549111269013189001433920041189A189A4202D910CB2A
:405A000010C0FAE70023814201D908C0FBE710BD30B50400026914344B119A420CDB0CDD1F22114009D09A00155901202A00CA408A4095420CD100E013009B00E318A34226
:405A400005D9043B1A68002AF9D0012000E0002030BD4A4370B51100140000F055F8051E03D022000021FCF754FF280070BD000070B50500002944D00C1F2368002B00DA7C
:405A8000E418280000F03DFA1E4A13681100002B02D16360146031E0A3420DD92268A018834203D118685B688218226063600C6024E0A24203D813005A68002AF9D11E681B
:405AC0009819A0420BD12168711858181960824214D110685268411819605A600EE0A04202D90C232B6009E021686018824203D1106852684118216062605C60280000F04C
:405B000001FA70BD34020020032370B5CD1C9D43083506000C2D01D20C2501E0002D01DBA94202D90C23336048E0300000F0E9F9234B1C681A002100002913D00B685B1B95
:405B40000DD40B2B02D90B60CC181EE08C4202D1636813601AE04B6863600C0016E00C004968E9E7174C2368002B03D1300000F08BF920602900300000F086F9431C18D0E8
:405B80000323C41C9C43A0420DD12560300000F0B9F9200007220B30231D9043C31A0ED05A42E2500BE0211A300000F06DF9431CEBD10C233000336000F0A4F9002070BD36
:405BC0003402002030020020F0B58E6885B007000C00039201939E4243D890238A89DB001A423ED003250969236801985B1A029363695D43EB0F5D19029B6D1001331B18C6
:405C0000AB4200D91D00530510D529003800FFF77BFF061E14D0029A2169FCF771FEA289194B134080221343A38112E02A00380000F069F9061E0CD121693800FFF718FF6F
:405C40000C23402201203B60A38940421343A38117E0029B2661F61826606561019EED1AA560019BB34200D21E0032000399206800F032F90020A3689B1BA36023689E1977
:405C8000266005B0F0BDC0467FFBFFFFF0B59FB0029005938B890F0016001B0610D50B69002B0DD14021FFF72FFF38603861002804D10C23029A01381360D8E040237B6183
:405CC000002306AD6B6120336B761033AB7634002378002B03D1A31B049312D003E0252BF9D00134F4E7A31B320039000298FFF76BFF431C00D1B4E06A69049B944663447F
:405D00006B612378002B00D1ABE00122002352426A6002A95432521801342B60EB60AB601370AB65534E217805223000FFF78EFA002807D00123801B83402A6801341343E0
:405D40002B60EFE72B68DA0604D55322202102A8121811701A0704D553222B2102A81218117022782A2A03D0099B00200A210EE0059A111D12680591002A01DB099204E05B
:405D80005242EA60022213432B6001340BE02278303A092A04D84B4301349B180120F6E7002800D0099323782E2B1ED163782A2B0AD1059B02341A1D1B680592002B01DAAA
:405DC00001235B42079310E000230A201A0001346B6021783039092904D84243013452180123F6E7002B00D00792234E217803223000FFF72BFA002806D04023801B8340EF
:405E00002A68013413432B60217806221B48661C2976FFF71BFA002812D0194B002B06D10722059B073393430833059314E005AB00933A00134B29000298FCF709FE07E0DB
:405E400005AB00933A000F4B29000298FDF7BEF80390039B013304D06B69039A9B186B6135E7BB890B985B0601D5012040421FB0F0BDC046388200003E8200004282000018
:405E8000512A0000C95B0000002370B5064C050008002360FAF700FD431C03D12368002B00D02B6070BDC04604040020004870470000C07F002330B59A420BD0013AC45C34
:405EC000CD5CAC4205D19A4202D00133002CF6D12500631B180030BD10B5884202D98B18984201D3002305E09B1A013A08D3995C8154FAE7934203D0CC5CC4540133F9E703
:405F000010BD70477047F8B506000C001500002904D11100FFF7F8FD040018E0002A03D1FFF7A6FD2C0012E000F013F885420ED929003000FFF7E8FD071E07D021002A0083
:405F4000FCF7DEFC21003000FFF792FD3C002000F8BD0B1F1A68101F002A04DA891804390B68D0180438704702B4714649084900095C49008E4402BC7047C0468446101C66
:405F800062468C46191C634600E0C0461FB500F037FF002801D40021C8421FBD10B500F08BFE4042013010BD10B500F029FF002801DB002010BD012010BDC04610B500F070
:405FC0001FFF002801DD002010BD012010BDC04610B500F0B1FE002801DC002010BD012010BDC04610B500F0A7FE002801DA002010BD012010BDC04670B500220C4B040072
:406000000D00FFF7EFFF002804D12000290001F04FFD70BD064B00222000290001F0D4F901F046FD80231B069C466044F1E7C0460000E041F8B556465F464D464446F0B419
:406040000F00FD0FAA4609037C002E005F00450F490A7F0D2943C5001803BC46400A570F640DDB0F3843D2009A4500D1AAE06646A61B002E00DCFFE06346002B39D10300B6
:40608000134300D0D9E06B0709D00F232B40042B05D02B1DAB42AD416D4249191D000B0200D482E0CA4B01349C4200D1FEE00A005646C84BED081A40500764055202054346
:4060C000120B640D002112030B0D1B056405120B1A436308C04CF60714401C43640064083443280021003CBC90469946A246AB46F8BDB74B9C42C6D080231B041843382ED6
:4061000000DDEBE01F2E00DD1EE120239B1B9C4603006746BB40984613004746F3403B436746BA40571EBA4113430200F240EB1A9D42B6411D008A1A7642911B0B0231D525
:406140004A02560A002E00D1B4E03000FCF78EFB0300083B1F2B00DDB5E020222900D21AD1409E400A009D4032439C4200DDB1E01C1B631C1F2B00DDD5E020211400280035
:40618000C91A8C40D8408D400443DA40681E854111002543002476E74146314300D134E2310045466B0700D06FE756464807ED08C9080543864B9C4235D00A036405120B2E
:4061C000640D7FE76346E31A9B46002B00DC8BE06746002F3CD07E4FBC4200D153E780273F0438435B46382B00DCF7E00243501E82410020D2B253194218AB4289411D0041
:40620000494289180B02CDD5714B01349C4200D13DE101206F4A6B080A4028401843D507054351082FE72B000B4300D1CBE180231B030B431A03120B44E7013E002E6DD1C3
:40624000AE1AB5429B41091A5B42C91A350075E70700174300D116E701235B429C46E3445B46002B00D0E0E0AA18AA429B4109185B4259181500C5E7002E75D1661C76050F
:40628000760D012E00DCF3E0AE1AB0464545BF410E1A7F42F61B370200D48FE0551BAA42B641411A76428E1B9A464BE756460022002507E72800FCF7D9FA20300300083B49
:4062C0001F2B00DC49E72A002838824000259C4200DC4DE73F49E41A1140D4E60243501E8241D3B2002222E7002B00D0F3E0631C9C465B055B0D012B00DC9FE0344B9C4554
:4063000000D1C3E0AA180918AA42804140424118CD075208154349086446B4E62C4B9C4200D0ECE6AFE611001F3CE1400C00202B00D17FE04021CB1A9A4015436A1E9541ED
:406340000021254300242DE733000700203BDF403B00202E70D04027BE1BB0400243501E824113430022E2E6002C4FD0184CA44500D1ABE08024240476422143382E00DDDA
:40638000DFE01F2E00DD43E12027BC1BA1460C004F46BC40A0462C004746F4403C434F46BD406F1EBD41F1402C43151BAA429241411A5242891A64469A46BFE6414645465D
:4063C000314300D0BEE6002600240025F2E6C046FF070000FFFF7FFFFFFF0F801F2B59DC2027FF1ABC46070063469F405B46B9461700DF40B8464F4643461F4363469A4012
:40640000531E9A415B463A43D840F4E60C002C435CD0F643002E55D1551BAA42A441411A6442091B9A46644688E6964FBC4200D0D8E628E6002280E700208FE70B002B4357
:40644000002C00D0C2E0002B00D101E10300134300D118E6AB18AB42B6410918764271180A0200D409E1884A1D00114064460AE6002C5BD10E002E4300D08AE00100114365
:4064800000D1C2E0010015009A46FCE56446002100258FE620235B429C46DC4463460700DF405B46BC46202B00D1ACE040235F46DB1B98400243501E8241634613431A00CC
:4064C000002098E66F4CA44500D057E70100150064469A46D7E5002C39D10C002C436ED0DB43002B1AD0674CA44568D0382B00DDA4E01F2B00DDAEE020240F00E41AA74049
:40650000B9462F00DF40B846A3464F46444627435C46A5406C1EA541D9403D43AD1895429B4109185B42591864466BE60C002C4315D1010011437BD0010015009A46514CD8
:40654000A1E50D43691E8D410021ECB22DE74D4CA44534D0802424045B422143C6E7040014434ED0ED084C072C438025C9082D03294208D0C6082E4205D1D208410711437A
:406580000C009A463100620FC900E50011433D4C79E50600164300D175E5AE1AB0464545BF410E1A7F42F61B370200D4F4E5551BAA42B641411A7642891B9A4663E501007F
:4065C000150064465FE5002200257BE5002B3BD00300134315D0ED084B072B438025C9082D03294207D0C4082C4204D141070B002100D2081343C9005A0F1143DD00214C5D
:4066000041E5204C3FE5002054E700260025D1E534000F00203CE7403C00202E2BD04027BE1BB1400D43691E8D4100212C43BCE6802100260903134C0025BBE50D43691E27
:406640008D410021EDB269E7010015000D4C1AE50100150017E51C000F00203CE7403C00202B0CD04027FB1A99400D43691E8D410021254352E70021D4E71D0092E500215E
:40668000F3E7C046FF070000FFFF7FFFF0B556464D4644465F46F0B41D000E034C00CB0F87B0070092468146360B640D98466AD06D4B9C4235D08022430F12041343F600E5
:4066C0001E43C3009946694B00279C460023644402932B0368001B0BED0F51469B46400D009500D178E0604B98426CD05B46DA004B0F802109040B4313439B465346D90004
:406700005A4B9C46002360444246201A6A40924601901F430F2F00D9B0E05548BF00C0598746374300D088E0002399460233082700260293CDE74346B34649460093029B23
:40674000009A9246022B00D0BFE1002153460122002689461A40444B002136030C0D2405360B2643434C1B0526401E437600D207760816434846310007B03CBC904699464A
:40678000A246AB46F0BD330003434FD0002E00D1BCE13000FCF76AF803000B3B1C2B00DDADE11D220100D31A08393A008F408E40DA40B9461643304B00279C46002360449D
:4067C0004442029385E753465A4613432CD1002300219B46023397E70B4320D05B46002B00D19EE15846FCF741F803000B3B1C2B00DD8FE102005946083A91408B461D21EA
:40680000CB1A5146D9400B0059460B4351469B469140194B9C4660444042002374E7002300219B4601336FE703236DE70023994601330427002602934BE703230C27029333
:4068400047E70122D51A382D00DCB0E153461A4000210023002689467EE700238026994600223603004B77E7FF07000001FCFFFF4C820000FFFF0F80F30300005E4500D9FB
:4068800072E100D16DE1019B4D46013B01930023340002935B461E020B0E1E430B020393330C994633041B0C494620000093FBF70BF9009B370043430600494620009846FE
:4068C000FBF788F92C0C09040C43A04509D9E419731EA74200D95CE1A04500D859E1023EE4194346E41A49462000FBF7EDF80300009A80465343494620009B46FBF76AF91E
:406900002A040904120C0A4393450DD94346D219013B974200D93AE1934500D837E102235B429C46D219E0445B46D21A4346360433439B460399180C0B0C1D0005930904BB
:406940005B46090C0C001B041B0C4443049159436B4368431B190D0CEB189C4203D980246402A44660441C0C09041B04090C20185D18824200D2DEE000D1D7E0161A029B9D
:406980009C465D1BAC459B415B42F61AB74200D106E149463000FBF797F8009B04004343494630009846FBF715F92E0C09040E43B04509D9F619631EB74200D9F3E0B045B7
:4069C00000D8F0E0023CF6194346F31A494618000293FBF779F8009B06004343494602989846FBF7F7F82D0409042D0C0D43A84509D9ED19731EAF4200D9D6E0A84500D8EC
:406A0000D3E0023EED192404210043463143049E059A3000ED1A0B040C0C1B0C58436643534354439A19030C9B189E4203D980225202944664441A0C00041B04000C1419B5
:406A40001B18A54250D34DD001231943964A019B94466344002B00DCF3E64A0709D00F220A40042A05D00A1D8A42894149428B4411005A46D20108D55A468C4B1A40934695
:406A80008022D2009446019B6344894A934200DD5BE65A46C908500708435602514601225B058146360B5B0D0A4055E680231B031E4211D05A461A420ED15E461E433603EA
:406AC000360B2A0089467B4B46E6032B00D1E1E0012BBBD11A40BBE61E433603360B4246744B39E6002BB1D07D194A1EAF4252D91100A542A8D1039A9A42A5D1A6E7030000
:406B00003E00283B9E400023994654E6FBF7AEFE203041E603005246283B9A400021934677E65046FBF7A2FE20305EE6029B0026AB4200D323E7039E0299B4466144884664
:406B4000B045B6415B467642F619B218013B0291974213D290424FD800D18EE0161A9B460DE7894500D28EE674084B46F60735005B081D434B46DB0702938BE69742EDD107
:406B80000399029CA142E5D93E1A9B46F7E69846CAE61E00A5E6AC423ED874D0110053E70121494252E71C000EE71E002BE71F2D3CDC20230A0058465B1B9840EA40994053
:406BC0000243481E81415E461143EE404B0709D00F230B40042B05D00B00191D99429B415B42F61833023CD55346012200211A40002601238946AFE502235B429C46039C46
:406C0000E344A446029B63449846A045B6417642F6190293B218B1E603988A1E41008142B6417642F619AD19039161E71F225242D31A5A46DA401300202D29D0402258460C
:406C4000551BA8400143481E814107200B4318400026002809D00F2200261A401900042ABBD10B0070077602360BDB0803439946012253461A4000236EE502998D42BBD80C
:406C80009B4600267BE603989842C5D3110032E70020D7E780265B4636031E433603360B009A8946034B57E5FF030000FFFFFFFEFE070000FF070000F0B55F4656464D4688
:406CC0004446F0B41F035C00DB0F9A46194B0E034D00C90F8046360B6D0D8B4691463F0B640D9D4219D0134B9C421BD00123A54206D018003CBC90469946A246AB46F0BD85
:406D0000BE42F6D1C845F4D1D34510D0002DF0D1304303005A1E9341EBE7310001230143E7D1E0E73A430123002AE2D1DEE70023DFE7C046FF070000F0B55F464446564680
:406D40004D46F0B41F033C0B2C4F0E034D00A3465C008446360B6D0DC90F9046640DDB0FBD422BD0254FBC422ED0002D0ED130430700814678427841002C17D15F463A4367
:406D800014D14B460020002B0AD006E0002C02D15846024301D099421AD00123484218433CBC90469946A246AB46F0BD0028F2D058425841012240421043F1E73700074330
:406DC000D0D002204042EBE75F461743CDD0F8E7A542E2DC05DB5E45DFD808D000205E45DED248424841012340421843D8E7C445D3D80020C445F4D3D2E7C046FF0700009C
:406E0000F0B55F464D4644465646F0B41C03240BA4462F4C0F034D005E00C90F80463F0B6D0D8B469146760DDB0FA54220D0284CA64222D0002D12D1384344424441002EDB
:406E400020D0002C0DD05C42634101245B421C4320003CBC90469946A246AB46F0BD002E17D05B4519D05B465C4201231C43EFE7390002240143EBD1D9E7614602241143ED
:406E8000E6D1D7E761460A43DBD100240028DFD0E9E761460A43E4D1E5E7B54203DD01225C421443D4E7B542CDDB6745DBD809D000246745CCD259464C426141012449420F
:406EC0000C43C5E7C845CED80024C845F3D3BFE7FF070000F0B55F4656464D464446F0B40D0399464E002B0B87B00700924680469B46760DCC0F002E69D06D4B9E4235D008
:406F00005B468022DD001204430F13432B439B46C3009846674B00279C460023664401934A4615035000D20F53462D0B400D914600D176E05E4A90426CD080225B0F12049A
:406F400013435C4AED0094461D4353460022DB00604449463618701C6140029017430F2F00D9AFE05448BF00C759BF465B461F4300D088E000239B46984602330827019383
:406F8000CEE74946022A6AD0032A00D109E2012A00D0BBE111400022002300259046CCB200212D030A0D12052D0B1543434A1B0515401D436D00E4076D0825434046290043
:406FC00007B03CBC90469946A246AB46F0BD034352D05B46002B00D18AE15846FBF746FC03000B3B1C2B00DD7BE11D22D31A3A0001005D46DA4008398D4013008F402B431A
:407000009B46B8462E4B00279C46002360444642019385E752462A432CD100250023022297E752462A4321D0002D00D154E12800FBF71CFC03000B3B1C2B00DD46E11D2187
:40704000CB1A51460200D9405346083A954093400D431B4A944660444042002279E7012400220C40124B0025904699E70025002301226EE703226CE700239B469846013306
:40708000042701934CE703230C27019348E700238025984600242D03054B81E75D464346019A6FE75D4643462100019A6AE7C046FF07000001FCFFFF8C820000FFFF0F8018
:4070C000F30300004246120C91461A0C9446424617044A461B041B0C5A43604690464A4642431000039262461C003F0C7A437C4342440192220C9246019A5244904506D942
:407100008246802040028046C24450460390100C049048462404240C1204121905922A0C2D042D0C68432C00824648467C4350438146200C8046574357444744BA4503D9CF
:40714000802040028046C144380C3F04B84648442404240C01900498A044404404905846000C814658460404200C8246070048465F434C4643436046604364468346504624
:407180004443380C8446E4186444A34203D980235B029C46E34448463F04230C3F0C2404E419574668436F4384464D46504655434243380C814662444A445B44944503D9BF
:4071C000802040028446654403983F04834604983F0C8446E344C345804140428246100484460198674484466744A344BC46A345A4419946D44464428742BF41D44580411B
:40720000E144A04699459B417F424042C8440743120CBA18A045A4415F423B0064422343D71843467D19DB0D6D021D435B465A02059B1A43531E9A415B46DB0D1A434346D4
