:400000000080002011000000E90B0000E90B000008B5044B1A6803F53F5302331A6000F003FE00BFFA46004010B5054C237833B9044B13B10448AFF300800123237010BD8E
:400040009082FF1F00000000E04C0000084B10B51BB108490848AFF300800848036803B910BD074B002BFBD0BDE81040184700BF000000009482FF1FE04C0000D080FF1F10
:400080000000000000230D4A13600AE00C4AD15C0A4A1A44127C914202D00121074A116001330E2BF2DD10B4054B064C0FCB07C424F8023B1B0C237010BC7047E080FF1FC2
:4000C000B082FF1FF080FF1F38B541F6FF734FF480420121084601F031FA054600F090FE0446162302460F2100F0A4FE074A92B246F24E41204600F0B1FE2146284600F07F
:4001000051FE0121284600F005FE38BDB082FF1F00B583B062B600F039FF00F09DFF00F0F1F800F0AFFAFFF7CFFF124A124B1A60124A134B1A6001F0DFF901F0F9F9114852
:4001400001F0E8F94FF47A7000F098FE0E4B009302A9002341F8043D684600F0A3F94FF47A7000F08BFE00F07BF941F2883000F085FEE7E79C83FF1FA483FF1FAC83FF1F87
:40018000A083FF1F85000000CDCCCC3D000000002DE9F04F85B001F08DFA824601F062FB8146514C2668C6EB0A066568451B304602F0D8FA4D4902F029FB8046284602F0D3
:4001C000D1FA4A4902F022FB0746404601F0BCFE43A3D3E9002302F035F802F0B9F98346434B1860384601F0AFFE3DA3D3E9002302F028F802F0ACF980463E4B18603E4BE9
:400200001F683946584602F0B5FB83463946404602F0B0FB01900146584602F0EFF90146384602F0F3FA4FF07C5102F0EFFA804603900199584602F0DFF90146384602F020
:40024000E5FA4FF07C5102F0E1FA07460290A3681E44A660E3681D44E560C4F800A0C4F804904FF001054146244B186802F062FC08B14FF000054FF001043946204B186821
:4002800002F058FC08B14FF000042C43E4B24FF001050021384602F04DFC08B94FF00005EDB24FF001060021404602F043FC08B94FF00006F6B254EA050300D126B102AACE
:4002C00003A9082000F090F9039A0C4B1A60029A0B4B1A6005B0BDE8F08F00BFAFF300809A9999999999A93F1483FF1F7233DC38C483FF1FB883FF1F0C81FF1FD483FF1F52
:40030000D083FF1F10B500F00BFE012404E00021204600F017FE0134042CF8DD012000F0F9FD01F0EFF901F0C5FA01F04FFA01F077FA01F091FA084801F080FA074C201DCC
:4003400000F0F0FA04F13C0000F0ECFA04F1740000F0E8FA10BD00BF910100000C81FF1FFF2911D808B538B9012000F0EBFD0021022000F0E7FD08BD032000F0E3FD0021F0
:40038000042000F0DFFD08BD704700BF08B500282DD12F4B1B78DBB22E4A1278D2B2FF3B18BF0123FF2A18BF002343B10021012000F0C8FD0021022000F0C4FD43E0244B46
:4003C0001B78DBB2234A1278D2B2FF2B14BF00230123FF2A08BF0023002B34D01921012000F0B0FD1921022000F0ACFD2BE01A4B1B78DBB2194A1278D2B2FF3B18BF0123B9
:40040000FF2A18BF002343B10021032000F09AFD0021042000F096FD15E00F4B1B78DBB20E4A1278D2B2FF2B14BF00230123FF2A08BF00233BB11921032000F083FD1921F3
:40044000042000F07FFD142000F018FD08BD00BF2364004033640040436400405364004008B50020FFF792FF0120FFF78FFF08BD38B505460C46FFF789FFFF2C11D845B9CB
:400480000021012000F05EFD2146022000F05AFD38BD0021032000F055FD2146042000F051FD38BDF8B50F68494E34682146006802F060FA05464FF07C51D6F8AC0002F071
:4004C000A5F90146384602F0A1F9214602F052FA06460146284602F091F807463146284602F08AF806463946204602F08FF90546384B18603146204602F088F90446364B3A
:4005000018603649284602F035FA354902F07EF901F01AFD01F050FB02F01AF805462F49204602F027FA2E4902F070F901F00CFD01F042FB02F00CF804462949284602F0BE
:4005400021FB28B92749284602F0FEFA10B902E0234D00E0234D2249204602F013FB28B92049204602F0F0FA10B902E01C4C00E01C4C0021284602F005FB38B1284602F0C9
:400580000BFB01460020FFF7EBFE09E02946002002F032F802F000FB01460020FFF768FF0021204602F0EEFA38B1204602F0F4FA01460120FFF7D4FEF8BD2146002002F0BC
:4005C0001BF802F0E9FA01460120FFF751FFF8BD0C81FF1FC083FF1FB483FF1F85EB113E00007F4300007FC370B590B005460B680B9313680A93002314E01C1DC3F10300AC
:4006000010AE304410F8146C0DF1400E744404F8106C03F1080410F8186C7046204400F8106C0133022BE8DDFF238DF830308DF831308DF832308DF8335055238DF83C30FF
:400640008DF83D308DF83E30652D12D00C68106801F07AFCCDE90201204601F075FCCDE900012A46064905A802F06CFF05A800F08FFC0F210CA800F035FD10B070BD00BFF3
:40068000E84C000008B500F021FE00F0E1FD00F039FE0C4800F028FE00F0F6FD0A4800F0E5FD00F085FF00F09FFF084800F08EFF00F0F8FE00F090FE00F0EEFF0122044B52
:4006C0001A6008BD59080000F1060000510800002483FF1F08B5012000F01AFE0F2000F0E3FB002000F014FE08BD00BF0000000070B500F02DFE044600F03AFE201A01F0DF
:4007000001FC29A3D3E9002301F09CFD01F020FF294D6C68294B196802F078F84FF07C5102F074F805EB8403986001346C60032C34D12C46E968A86801F060FF296901F022
:400740005DFF1F4902F016F9054660611D4B1860A2691D4B1A600023636001F0F5FB4FF0010613A3D3E9002301F0BEFE08B94FF000064FF001040021284602F003FA08B903
:400780004FF00004344014F0FF0F03D0012001F09DF905E0002001F099F901E0FFF79AFF0122054BDA6170BD0000000060E376419A9999999999C93F2483FF1FC081FF1F65
:4007C00000004040C883FF1FBC83FF1F08B5012000F0A4FD0F2000F067FB002000F09EFD08BD00BF70B5194B1B685BB3174D0023EB612B62FFF76EFFFFF7E8FF052000F0C5
:400800003DFB4FF001064FF07C51686902F09CF908B94FF000064FF001044FF07C510B4B986902F091F908B94FF00004344314F0FF0F09D0054901F1180214316520FFF72D
:40084000D3FE70BDFFF71EFF70BD00BF2483FF1F08B5FFF7C7FF08BD70B500F0DFFD044600F0ECFD201A01F04DFB27A3D3E9002301F0E8FC01F06CFE274D6C6A274B1968DB
:4008800001F0C4FF4FF07C5101F0C0FF05EB8403986201346C62032C2FD12C46E96AA86A01F0ACFE296B01F0A9FE1D4902F062F80546A0610023636201F046FB4FF0010629
:4008C00013A3D3E9002301F00FFE08B94FF000064FF001040021284602F054F908B94FF00004344014F0FF0F03D0012001F0E8F805E0002001F0E4F801E0FFF767FF0122CC
:40090000054B1A6270BD00BF0000000060E376419A9999999999C93F2483FF1FC081FF1F00004040002343628362C36203634363704700BFFEE700BFF0B40022174611E0B6
:4009400050F82760F3B226F0FF0608E001EB420511F812406D78A5550132013BDBB2002BF4D10137282FEBD9F0BC7047064B1B78DBB203F00701054A11701B0901321370DB
:400980004422034B1A707047CF0100496E5800407658004008B50A46002102F05AF908BD38B51925284B1D801823284A13702F2102321180023213704A2102321180023242
:4009C00013700222224B1A7008224FF040231A70032103F5007319701E4B1B78DBB21E490B701E4B1A8041F25122023B1A8000240CE01B4B1B7803F0010343EA440404F097
:400A000003044FF4F07001F067F8013D0DB1032CEFD115B90320FFF78DFF124B4FF480721A8007221A7000220F490A704820023108701A700222033B1A700C4A137843F0EE
:400A40000703137038BD00BF80400040824000400043004008010049A146004022420040254200400440004006400040A243004008B502F0E3F808BD38B572B6444A137840
:400A800043F00403137000240CE0424D630019194A0011462A44084691882858FFF77AFF0134E4B2092CF0D900240CE03948A20011194B000344B3F84420196CD86BFFF75B
:400AC000D7FF0134E4B2022CF0D933494FF09040FFF732FF04213148FFF75CFF304B314A136002F5806213602F4902F58062116001F1004102F54062116002F5C06213607D
:400B000002F554522B32137843F0020313701032137843F002031370244C237843F040032370A2F58632513A137843F0100313700A221F491F48FFF79BFF0A221E491F4826
:400B4000FFF796FF08221E491E48FFF791FF0A221D491E48FFF78CFF08221D491D48FFF787FF1D4A137843F0080313701B4D61232B70FFF715FF81232B700122184B1A70F0
:400B8000FFF7F4FE0E2221461648FFF771FF38BDE8460040044D0000A40000480076004004040484D8000140040404C4A043004060110048005100406C110048C0510040A0
:400BC000781100481251004080110048205100408C11004832510040224300400048004004000840B043004008B501F0FBFF03680C2B00D1FEE7FEE708B5094B1A681044D7
:400C0000084BC31AB3F5905F02DC054B186005E001F0E8FF0C2303604FF0FF32104608BDC481FF1F8884FF1F08B5104E104D16E029686B68AC68002204E051F8040B43F861
:400C4000040B0432A242F8D1E868002203E0002143F8041B04328242F9D11035013E002EE6D101F0C5FFFFF753FAFEE701000000E84E000008B5114A114B1A60114A1368AD
:400C800043F40073136000230AE0032B03D80E4A52F8231000E00D490D4A42F8231001332F2BF2D90B4B1A780B4B1A70084A0B4B1A60FFF7E1FE00F013F808BD0004FA0557
:400CC0000CED00E014ED00E000000000E90B00000080FF1FBC760040C080FF1F08ED00E00B4A7F2313708021517007E0DA0002F1804202F5F042013BDBB21370002BF5D14B
:400D0000DB0003F1804303F5F04300221A707047C881FF1F172815D831B103010A495A5C42F020025A5405E0030107495A5C02F0DF025A540001044A835C43F00103835463
:400D400000207047012070471070004017280BD80001064A835C03F0F103490001F00E011943815400207047012070471070004041F6FF73994201D14FF4005141F6FF734F
:400D80009A4201D14FF40052172808D8C00000F1804000F5EC408180C280002070470120704700BF172805D8034B03EB0010417200207047012070471070004017281BD8D2
:400DC00010B4C00000F1804404F5EC44D201D2B201F07F01114321709DF804201201D2B203F00F03134363709DF8083003F00F03A3700020E07001E00120704710BC7047D5
:400E000010B500F071FE0A4B5B78182B0BD9084A1478013B5370E30003F1804303F5F0431B78137000E0FF2400F062FE204610BDC881FF1F10F0800F0CD111F4704F0BD18E
:400E4000C00000F1804000F5F04001808270C37000207047012070470120704710F0800F08D1C00000F1804000F5F0408180C280002070470120704701BE704710B504463A
:400E800005E0084B186800F027FEA4F50044B4F5004FF6D8034B586800FB04F000F01CFE10BD00BFD081FF1F08B5034B1B7A00FB03F000F011FE08BDD081FF1F70B5044690
:400EC0000E46074B1D681F2802D90020FFF7D4FF04F01F04103455F8240045F8246070BD08ED00E038B504460D46072902D90020FFF7C2FF1F2C02D90020FFF7BDFF04F0D5
:400F00001F0000F1604000F564406D01EDB2057038BD00BF014B1870704700BF7A6400400322074B1A700022703B1A707F2210331A70BF2210331A70FF2210331A707047B1
:400F4000936400400138032816D8DFE800F002070C11C943C9B2094B19707047C943C9B2074B19707047C943C9B2064B19707047C943C9B2044B1970704700BF2364004023
:400F8000336400404364004053640040704700BF38B505460078012404E000F0ADFD285D0134E4B20028F8D138BD00BF08B511490520FFF783FF01210520FFF793FF002219
:400FC0000D4B1A7075220D4B1A702022033B1A700B490620FFF772FF07210620FFF782FF0E22084B1A708F2210331A70022250331A7008BD0D1100005883FF1F8D6400401D
:40100000A51100002764004010B500F06DFD04460D4A137843F020031370033A137843F010031370094A2023136009490B7843F010030B70402307490B60136000F0DEF884
:40104000204600F055FD10BD9D64004000E100E09764004080E200E008B5054B5B7823B9FFF7A4FF0122024B5A70FFF7CDFF08BD5883FF1F164BD9799B79DBB2994205D267
:401080005A1E914214BF0022012204E0CA1A952A14BF00220122002AECD1994207D10D4B1B7813F0040F02D10B4B18707047952900D90021094B58540131054BD971054B57
:4010C0001B7813F0020F02D04022054B1A6070475883FF1F6764004047650040DC83FF1F00E200E0084B5B7833B97047305DFFF7C1FF0134E4B203E070B50D4606460024C3
:40110000AC42F3D370BD00BF5883FF1F1D4B1B78DBB213F01E0F05D01B4803F01E0201780A43027003F0200303F0FF0233B3174B1978C9B2164B1B78DBB21648C154164B28
:401140001B7813F0FF0F02D00121144B197010490B780133DBB20B700B78DBB20E2B02D900210B4B19700A4B1978C9B20C4B1B78DBB2994202D10121074B1970002AC5D170
:40118000704700BF6A6400405883FF1F4E6400405B83FF1F7484FF1F5C83FF1F5D83FF1F5A83FF1F13E0104B1B78DBB2952B02D900220D4B1A700C4A1378DBB20B49CB5CC2
:4011C000DBB20B490B7013780133DBB21370064B1B78DBB2074A1278934204D0064B1B7813F0040FDFD070475E83FF1FDC83FF1F476500405F83FF1F67640040054A137822
:4012000043F0010313701032137843F001031370704700BFA2430040704700BF014B1B681864704708ED00E04001C0B2014B1870704700BF00E400E00122014B1A60704724
:4012400000E100E00122014B1A60704780E100E008B5FFF7F7FF0448FFF7E0FF0420FFF7E3FFFFF7E9FF08BD1912000010B50446FFF7E8FF2046FFF7D1FF0420FFF7D4FF33
:40128000FFF7DAFF10BD00BF0122014B1A60704780E200E0704700BF014B1B685864704708ED00E04001C0B2014B1870704700BF01E400E00222014B1A60704700E100E040
:4012C0000222014B1A60704780E100E008B5FFF7F7FF0448FFF7E0FF0320FFF7E3FFFFF7E9FF08BD9512000010B50446FFF7E8FF2046FFF7D1FF0320FFF7D4FFFFF7DAFF2A
:4013000010BD00BF0222014B1A60704780E200E0014B1870704700BF74650040014B1870704700BF71640040024A137843F08003137070477A650040014B1870704700BF4C
:4013400089640040014B1878704700BF69640040024B186820F07F40704700BF2864004008B50146014800F01DFC08BD28640040024B186820F07F40704700BF486400401E
:4013800008B50146014800F00DFC08BD0864004008B501E0FFF7ECFFFFF7D4FF10F0080FF8D108BD08B56FF07F40FFF7D9FF6FF07F40FFF7E5FF00F097FB064A137843F058
:4013C0001003137000F094FBFFF7E2FF0020FFF7B3FF08BD9964004008B5054B1B7823B9FFF7E0FF0122024B1A70FFF79DFF08BD6183FF1F024A137843F0800313707047CC
:4014000073640040014B1870704700BF81640040014B1878704700BF61640040024B186820F07F40704700BF2064004008B50146014800F0B7FB08BD20640040024B1868B4
:4014400020F07F40704700BF4064004008B50146014800F0A7FB08BD0064004008B501E0FFF7ECFFFFF7D4FF10F0080FF8D108BD08B56FF07F40FFF7D9FF6FF07F40FFF751
:40148000E5FF00F031FB064A137843F01003137000F02EFBFFF7E2FF0020FFF7B3FF08BD9164004008B5054B1B7823B9FFF7E0FF0122024B1A70FFF79DFF08BD6283FF1F31
:4014C000704700BF014B1B68D864704708ED00E04001C0B2014B1870704700BF03E400E00822014B1A60704700E100E00822014B1A60704780E100E008B5FFF7F7FF0448D6
:40150000FFF7E0FF0120FFF7E3FFFFF7E9FF08BDC114000010B50446FFF7E8FF2046FFF7D1FF0120FFF7D4FFFFF7DAFF10BD00BF0822014B1A60704780E200E0F0B583B047
:4015400016461F460B4D00242C700194009423460A4601462046FFF731FC3A4631462878FFF706FC02212878FFF7F0FB287803B0F0BD00BFEC81FF1F704700BF014B1B681E
:401580001865704708ED00E04001C0B2014B1870704700BF04E400E01022014B1A60704700E100E01022014B1A60704780E100E008B5FFF7F7FF0448FFF7E0FF0520FFF718
:4015C000E3FFFFF7E9FF08BD7915000010B50446FFF7E8FF2046FFF7D1FF0520FFF7D4FFFFF7DAFF10BD00BF1022014B1A60704780E200E0024A137843F0800313707047BF
:4016000074640040014B1870704700BF85640040014B1878704700BF6564004008B50146014800F0BFFA08BD24640040024B186820F07F40704700BF4464004008B5014643
:40164000014800F0AFFA08BD0464004008B501E0FFF7ECFFFFF7DCFF10F0080FF8D108BD10B50B4C2046FFF7D9FF2046FFF7E6FF00F03AFA074A137843F01003137000F0DC
:4016800037FAFFF7E3FF0120FFF7BCFF10BD00BFFF9E24009564004008B5054B1B7823B9FFF7DEFF0122024B1A70FFF7A3FF08BD6383FF1F08B500F029F9A0F5004000B2C9
:4016C00008BD00BF024B187800F00F00704700BF68650040014B1870704700BF8865004008B50F20FFF7F6FFFFF7ECFF00F0FCF9034A137843F01003137000F0F9F908BDAB
:401700009865004008B500F053F94FF4004000F0F7F8044B1B7813B90122024B1A70FFF7DFFF08BD6483FF1F024A137843F080031370704777650040014B1870704700BF9E
:4017400085650040014B1878704700BF6565004008B50146014800F025FA08BD24650040024B186820F07F40704700BF4465004008B50146014800F015FA08BD0465004044
:4017800008B501E0FFF7ECFFFFF7DCFF10F0080FF8D108BD10B50B4C2046FFF7D9FF2046FFF7E6FF00F0A0F9074A137843F01003137000F09DF9FFF7E3FF0020FFF7BCFF46
:4017C00010BD00BF7F4F12009565004008B5054B1B7823B9FFF7DEFF0122024B1A70FFF7A3FF08BD6583FF1F704700BF014B1B689864704708ED00E04001C0B2014B187043
:40180000704700BF02E400E00422014B1A60704700E100E00422014B1A60704780E100E008B5FFF7F7FF0448FFF7E0FF0220FFF7E3FFFFF7E9FF08BDE917000010B50446AE
:40184000FFF7E8FF2046FFF7D1FF0220FFF7D4FFFFF7DAFF10BD00BF0422014B1A60704780E200E008B500F0CBF8A0F5004000B208BD00BF024B187800F00F00704700BF67
:401880006F640040014B1870704700BF8F64004008B50F20FFF7F6FFFFF7ECFF00F024F9034A137843F01003137000F021F908BD9F64004008B500F0F5F84FF4004000F013
:4018C00099F8044B1B7813B90122024B1A70FFF7DFFF08BD6683FF1F024A137843F08003137070477B650040014B1870704700BF8B650040014B1878704700BF6B6500404C
:40190000014B1880704700BF146A0040024B1B78024B188880B270470A650040946A0040014B188880B27047946A0040014B1880704700BF546A0040014B1880704700BF27
:40194000746A004008B501E0FFF7EAFFFFF7D2FF10F0400FF8D108BD08B5134B1A7802F0F8021A701A7802F0FC021A70FFF7EAFF4FF40040FFF7DAFF4FF40040FFF7C0FF90
:401980000020FFF7B1FFFFF7B5FF4FF40040FFF7D3FF00F0A9F8054A137843F01003137000F0A6F808BD00BF7B6500409B65004008B5054B1B7823B9FFF7CEFF0122024B17
:4019C0001A70FFF789FF08BD6783FF1F024A137843F08003137070477E640040014B1870704700BF8E640040014B1878704700BF6E640040014B1880704700BF186800402F
:401A0000024B1B78024B188880B270470C64004098680040014B188880B2704798680040014B1880704700BF58680040014B1880704700BF7868004008B501E0FFF7EAFF9A
:401A4000FFF7D2FF10F0400FF8D108BD08B5134B1A7802F0F8021A701A7802F0FC021A70FFF7EAFF4FF40040FFF7DAFF4FF40040FFF7C0FF0020FFF7B1FFFFF7B5FF4FF477
:401A80000040FFF7D3FF00F02FF8054A137843F01003137000F02CF808BD00BF7E6400409E64004008B5054B1B7823B9FFF7CEFF0122024B1A70FFF789FF08BD6883FF1FE3
:401AC000014B1870704700BF72640040014B1870704700BF756400400230800803D000BF01380046FCD17047EFF3108072B6704780F31088704700BFFEB5494652465B4687
:401B00000EB40746244909688A46244A12682448022100F0A1F8030020480068C018204900F09AF8143883460121C9430C4601250026FFF7D9FF814651460B7823400B70E4
:401B400058460130FFF7C8FF3800F04028400B78234003430B705846FFF7BEFF0136072EF2D9002001300138013001200B78234003430B7058460430FFF7AEFF4846FFF75E
:401B8000B7FF00BF00BF00BF0EBC894692469B46FEBD00BFAFF30080E081FF1FDC81FF1F00C20100CBB20370C1F307234370C1F307418170704700BFF8B5C1F30A56A6F24A
:401BC000FF35132D0A460B460446864611DC002D2EDB0F461F4929410A4225D04FF400232B413B4423EA01030026194634462046F8BD332D05DDB5F5806F1FD0114620462C
:401C0000F8BDA6F213464FF0FF3121FA06F63042F4D00122C5F1330502FA05F52D1828BF9B1825EA0606E0E70028D7D11146E6E7013501F0004307D00026D6E702460B46C9
:401C400000F024F80446D2E743F07F5343F440130026CAE7FFFF0F00002902D0B0FBF1F0704708B14FF0FF3000F008B80029F8D00246B0FBF1F000FB11217047704700BFAE
:401C800081F0004102E000BF83F0004330B54FEA41044FEA430594EA050F08BF90EA020F1FBF54EA000C55EA020C7FEA645C7FEA655C00F0E2804FEA5454D4EB5555B8BF78
:401CC0006D420CDD2C4480EA020281EA030382EA000083EA010180EA020281EA0303362D88BF30BD11F0004F4FEA01314FF4801C4CEA113102D0404261EB410113F0004F66
:401D00004FEA03334CEA133302D0524263EB430394EA050F00F0A780A4F10104D5F1200E0DDB02FA0EFC22FA05F2801841F1000103FA0EF2801843FA05F359410EE0A5F1D3
:401D400020050EF1200E012A03FA0EFC28BF4CF0020C43FA05F3C01851EBE37101F0004507D54FF0000EDCF1000C7EEB00006EEB0101B1F5801F1BD3B1F5001F0CD34908ED
:401D80005FEA30004FEA3C0C04F101044FEA445212F5800F80F09A80BCF1004F08BF5FEA500C50F1000041EB045141EA050130BD5FEA4C0C404141EB010111F4801FA4F16F
:401DC0000104E9D191F0000F04BF01460020B1FA81F308BF2033A3F10B03B3F120020CDA0C3208DD02F1140CC2F10C0201FA0CF021FA02F10CE002F11402D8BFC2F1200C7C
:401E000001FA02F120FA0CFCDCBF41EA0C019040E41AA2BF01EB0451294330BD6FEA04041F3C1CDA0C340EDC04F11404C4F1200220FA04F001FA02F340EA030021FA04F3F9
:401E400045EA030130BDC4F10C04C4F1200220FA02F001FA04F340EA0300294630BD21FA04F0294630BD94F0000F83F4801306BF81F480110134013D4EE77FEA645C18BFA4
:401E80007FEA655C29D094EA050F08BF90EA020F05D054EA000C04BF1946104630BD91EA030F1EBF0021002030BD5FEA545C05D14000494128BF41F0004130BD14F5800493
:401EC0003CBF01F5801130BD01F0004545F0FE4141F470014FF0000030BD7FEA645C1ABF194610467FEA655C1CBF0B46024650EA013406BF52EA033591EA030F41F4002117
:401F000030BD00BF90F0000F04BF0021704730B54FF4806404F132044FF000054FF0000150E700BF90F0000F04BF0021704730B54FF4806404F1320410F0004548BF4042EB
:401F40004FF000013EE700BF42004FEAE2014FEA31014FEA02701FBF12F07F4393F07F4F81F06051704792F0000F14BF93F07F4F704730B54FF4607401F0004521F000410D
:401F800020E700BF50EA010208BF704730B54FF000050AE050EA010208BF704730B511F0004502D5404261EB41014FF4806404F132045FEA915C3FF4DCAE4FF003025FEAEE
:401FC000DC0C18BF03325FEADC0C18BF033202EBDC02C2F1200300FA03FC20FA02F001FA03FE40EA0E0021FA02F11444C1E600BF70B54FF0FF0C4CF4E06C1CEA11541DBFC8
:402000001CEA135594EA0C0F95EA0C0F00F0DEF82C4481EA030621EA4C5123EA4C5350EA013518BF52EA033541F4801143F4801338D0A0FB02CE4FF00005E1FB02E506F046
:402040000042E0FB03E54FF00006E1FB03569CF0000F18BF4EF0010EA4F1FF04B6F5007F64F5407404D25FEA4E0E6D4146EB060642EAC62141EA55514FEAC52040EA5E5013
:402080004FEACE2EB4F1FD0C88BFBCF5E06F1ED8BEF1004F08BF5FEA500E50F1000041EB045170BD06F0004646EA010140EA020081EA0301B4EB5C04C2BFD4EB0C0541EA21
:4020C000045170BD41F480114FF0000E013C00F3AB8014F1360FDEBF002001F0004170BDC4F10004203C35DA0C341BDC04F11404C4F1200500FA05F320FA04F001FA05F256
:4021000040EA020001F0004221F0004110EBD37021FA04F642EB06015EEA430E08BF20EAD37070BDC4F10C04C4F1200500FA04F320FA05F001FA04F240EA020001F000419F
:4021400010EBD37041F100015EEA430E08BF20EAD37070BDC4F1200500FA05F24EEA020E20FA04F301FA05F243EA020321FA04F001F0004121FA04F220EA020000EBD37040
:402180005EEA430E08BF20EAD37070BD94F0000F0FD101F00046400041EB010111F4801F08BF013CF7D041EA060195F0000F18BF704703F00046520043EB030313F4801F05
:4021C00008BF013DF7D043EA0603704794EA0C0F0CEA135518BF95EA0C0F0CD050EA410618BF52EA4306D1D181EA030101F000414FF0000070BD50EA410606BF104619465B
:4022000052EA430619D094EA0C0F02D150EA013613D195EA0C0F05D152EA03361CBF104619460AD181EA030101F0004141F0FE4141F470014FF0000070BD41F0FE4141F457
:40224000780170BD70B54FF0FF0C4CF4E06C1CEA11541DBF1CEA135594EA0C0F95EA0C0F00F0A7F8A4EB050481EA030E52EA03354FEA013100F088804FEA03334FF08055D8
:4022800045EA131343EA12634FEA022245EA111545EA10654FEA00260EF000419D4208BF964244F1FD0404F5407402D25B084FEA3202B61A65EB03055B084FEA32024FF4F3
:4022C00080104FF4002CB6EB020E75EB030E22BFB61A754640EA0C005B084FEA3202B6EB020E75EB030E22BFB61A754640EA5C005B084FEA3202B6EB020E75EB030E22BF64
:40230000B61A754640EA9C005B084FEA3202B6EB020E75EB030E22BFB61A754640EADC0055EA060E18D04FEA051545EA16754FEA06164FEAC30343EA52734FEAC2025FEA14
:402340001C1CC0D111F4801F0BD141EA00014FF000004FF0004CB6E711F4801F04BF01430020B4F1FD0C88BFBCF5E06F3FF6AFAEB5EB030C04BFB6EB020C5FEA500C50F128
:40238000000041EB045170BD0EF0004E4EEA113114EB5C04C2BFD4EB0C0541EA045170BD41F480114FF0000E013C90E645EA060E8DE60CEA135594EA0C0F08BF95EA0C0F78
:4023C0003FF43BAF94EA0C0F0AD150EA01347FF434AF95EA0C0F7FF425AF104619462CE795EA0C0F06D152EA03353FF4FDAE1046194622E750EA410618BF52EA43067FF40D
:40240000C5AE50EA41047FF40DAF52EA43057FF4EBAE12E74FF0FF3C06E000BF4FF0010C02E000BF4FF0010C4DF804CD4FEA410C7FEA6C5C4FEA430C18BF7FEA6C5C1BD052
:4024400001B050EA410C0CBF52EA430C91EA030F02BF90EA020F0020704710F1000F91EA030F58BF994208BF90422CBFD8176FEAE37040F0010070474FEA410C7FEA6C5CD1
:4024800002D150EA013C07D14FEA430C7FEA6C5CD6D152EA033CD3D05DF8040B704700BF8446104662468C461946634600E000BF01B5FFF7B7FF002848BF10F1000F01BD02
:4024C0004DF808EDFFF7F4FF0CBF012000205DF808FB00BF4DF808EDFFF7EAFF34BF012000205DF808FB00BF4DF808EDFFF7E0FF94BF012000205DF808FB00BF4DF808ED3E
:40250000FFF7CEFF94BF012000205DF808FB00BF4DF808EDFFF7C4FF34BF012000205DF808FB00BF4FEA410C7FEA6C5C02D150EA013C0AD14FEA430C7FEA6C5C02D152EA4B
:40254000033C02D14FF0000070474FF0010070474FEA4102B2F1E04324BFB3F5001CDCF1FE5C0DD901F0004C4FEAC0024CEA5070B2F1004F40EB830008BF20F00100704709
:4025800011F0804F21D113F13872BCBF01F00040704741F480114FEA5252C2F11802C2F1200C10FA0CF320FA02F018BF40F001004FEAC1234FEAD32303FA0CFC40EA0C0055
:4025C00023FA02F34FEA4303CCE77FEA625307D150EA01331EBF4FF0FE4040F44000704701F0004040F0FE4040F40000704700BF80F0004002E000BF81F0004142001FBF42
:402600005FEA410392EA030F7FEA226C7FEA236C6AD04FEA1262D2EB1363C1BFD218414048404140B8BF5B42192B88BF704710F0004F40F4000020F07F4018BF404211F080
:40264000004F41F4000121F07F4118BF494292EA030F3FD0A2F1010241FA03FC10EB0C00C3F1200301FA03F100F0004302D5494260EB4000B0F5000F13D3B0F1807F06D335
:4026800040084FEA310102F10102FE2A51D2B1F1004F40EBC25008BF20F0010040EA03007047490040EB000010F4000FA2F10102EDD1B0FA80FCACF1080CB2EB0C0200FAE5
:4026C0000CF0AABF00EBC25052421843BCBFD0401843704792F0000F81F4000106BF80F400000132013BB5E74FEA41037FEA226C18BF7FEA236C21D092EA030F04D092F089
:40270000000F08BF0846704790EA010F1CBF0020704712F07F4F04D1400028BF40F00040704712F100723CBF00F50000704700F0004343F0FE4040F4000070477FEA2262F7
:4027400016BF08467FEA23630146420206BF5FEA412390EA010F40F4800070474FF0000304E000BF10F0004348BF40425FEA000C08BF704743F0964301464FF000001CE043
:4027800050EA010208BF70474FF000030AE000BF50EA010208BF704711F0004302D5404261EB41015FEA010C02BF84460146002043F0B64308BFA3F18053A3F50003BCFA9A
:4027C0008CF2083AA3EBC25310DB01FA02FC634400FA02FCC2F12002BCF1004F20FA02F243EB020008BF20F00100704702F1200201FA02FCC2F1200250EA4C0021FA02F2DD
:4028000043EB020008BF20EADC7070474FF0FF0C1CEAD0521EBF1CEAD15392EA0C0F93EA0C0F6FD01A4480EA010C400218BF5FEA41211ED04FF0006343EA501043EA511168
:40284000A0FB01310CF00040B1F5000F3EBF490041EAD3715B0040EA010062F17F02FD2A1DD8B3F1004F40EBC25008BF20F00100704790F0000F0CF0004C08BF49024CEA91
:40288000502040EA51207F3AC2BFD2F1FF0340EAC250704740F400004FF00003013A5DDC12F1190FDCBF00F000407047C2F10002410021FA02F1C2F1200200FA02FC5FEA6A
:4028C000310040F1000053EA4C0308BF20EADC70704792F0000F00F0004C02BF400010F4000F013AF9D040EA0C0093F0000F01F0004C02BF490011F4000F013BF9D041EADE
:402900000C018FE70CEAD15392EA0C0F18BF93EA0C0F0AD030F0004C18BF31F0004CD8D180EA010000F00040704790F0000F17BF90F0004F084691F0000F91F0004F14D0A9
:4029400092EA0C0F01D142020FD193EA0C0F03D14B0218BF084608D180EA010000F0004040F0FE4040F40000704740F0FE4040F4400070474FF0FF0C1CEAD0521EBF1CEA31
:40298000D15392EA0C0F93EA0C0F69D0A2EB030280EA010C49024FEA402037D04FF0805343EA111143EA10130CF000408B4238BF5B0042F17D024FF4000C8B4224BF5B1A65
:4029C00040EA0C00B3EB510F24BFA3EB510340EA5C00B3EB910F24BFA3EB910340EA9C00B3EBD10F24BFA3EBD10340EADC001B0118BF5FEA1C1CE0D1FD2A3FF650AF8B4239
:402A000040EBC25008BF20F0010070470CF0004C4CEA50207F32C2BFD2F1FF0340EAC250704740F400004FF00003013A37E792F0000F00F0004C02BF400010F4000F013A07
:402A4000F9D040EA0C0093F0000F01F0004C02BF490011F4000F013BF9D041EA0C0195E70CEAD15392EA0C0F08D142027FF47DAF93EA0C0F7FF470AF084676E793EA0C0FD7
:402A800004D14B023FF44CAF08466EE730F0004C18BF31F0004CCAD130F000427FF45CAF31F000437FF43CAF5FE700BF4FF0FF3C06E000BF4FF0010C02E000BF4FF0010CD9
:402AC0004DF804CD4FEA40024FEA41037FEA226C18BF7FEA236C11D001B052EA530C18BF90EA010F58BFB2EB030088BFC81738BF6FEAE17018BF40F0010070477FEA226C40
:402B000002D15FEA402C05D17FEA236CE4D15FEA412CE1D05DF8040B704700BF844608466146FFE70FB5FFF7C9FF002848BF10F1000F0FBD4DF808EDFFF7F4FF0CBF012008
:402B400000205DF808FB00BF4DF808EDFFF7EAFF34BF012000205DF808FB00BF4DF808EDFFF7E0FF94BF012000205DF808FB00BF4DF808EDFFF7D2FF94BF012000205DF816
:402B800008FB00BF4DF808EDFFF7C8FF34BF012000205DF808FB00BF4FEA4002B2F1FE4F0FD34FF09E03B3EB12620DD94FEA002343F0004310F0004F23FA02F018BF404263
:402BC00070474FF00000704712F1610F01D1420205D110F0004008BF6FF0004070474FF000007047014B1868704700BF5082FF1F0E4B70B51E460E4C0025E41AA410A5424A
:402C000004D056F8253098470135F8E702F05AF9084B094C1E46E41AA4100025A54204D056F8253098470135F8E770BDD04E0000D04E0000D04E0000D84E000010B5431EDC
:402C40000A44914204D011F8014B03F8014FF8E710BD03460244934202D003F8011BFAE770472DE9F04788B0149F002B1E461299B8BF03F1004327F02007B6BF1E460023D4
:402C80002D23462F1446109DDDF84CA00B7003D0452F03D1013501E0032300E0022307AA049206AA03928DE828042246334600F003FD472F804602D1119BDB0728D5462FA2
:402CC00008EB050911D198F80030302B0AD10022002320463146FFF7F3FB18B9C5F10105CAF80050DAF8003099440022002320463146FFF7E5FB08B9302202E0CDF81C9019
:402D000006E0079B994503D9591C07911A70F8E74046079B159AC8EB0303136008B0BDE8F087034673B50029B8BF494203F8022BB4BF2D222B22092942701ADD0DF107024F
:402D400016460A2591FBF5F405FB1411092C01F1300102F8011D2146F4DC3031541E02F8011CB4421A460AD214F8012B03F8012BF7E71A463024214402F8024B5970101ADB
:402D800002B070BD2DE9F04F91B00C46DDF8688016461F46054601F027FA03681846099300F0F4FB00230E93D8F800300A90073323F0070303F1080294F81890D4F800B0CA
:402DC000C8F80020D3E90023C4E91223D4F84CA0D4F848802AF000430B934FF0FF32A74B40460B99FFF79EFBA0B94FF0FF32A34B40460B99FFF778FB60B9002200234046A2
:402E00005146FFF767FB10B12D2384F843309C4B9C4A0AE04246534640465146FFF782FB002800F09281984B984AB9F1470F8CBF90469846032323612BF0040323604FF0BE
:402E4000000A3DE0B9F1670F00F08A81B9F1470F00F0868123600193636800210DF13302059002920093424653460691CDF81090CDF80CE02846FFF7F4FE09F0DF03472BB6
:402E8000804600F08481B9F1650F0D9900F28D8101394A4604F150000D91FFF742FF0E9A82468318012A236100F37C812268D10700F178819DF8333013B12D2384F84330BE
:402EC000009733460FAA2146284600F09FF9013002D14FF0FF3096E123685A0501D4236965E0B9F1650F40F2D580D4E9120100220023FFF7E5FA78B30123654A31462846C1
:402F0000B8470130E5D00E9B0D9A9A420BDB2368D80708D423689B0740F111814FF0000804F1190906E10A9B099A31462846B8470130CED04FF0000804F11A090E9B013BE0
:402F40009845E7DA01234A4631462846B8470130BFD008F10108F1E70D9B002B29DC01234B4A31462846B8470130B2D00D9B23B90E9B13B92368D907CCD50A9B099A314695
:402F80002846B8470130A4D04FF0000904F11A0A0D9B5B42994509DA0123524631462846B847013095D009F10109F1E70E9B4246A7E00E9AA36D9A42A8BF1A46002A914672
:402FC00006DC4FF0000A29EAE97904F11A0B11E01346314642462846B8470130F1D178E701235A4631462846B84701303FF471AF0AF1010AA36DC9EB03029245F0DB08EB7F
:4030000003090D9A0E9B9A420FDB2368DA070CD40E9B0D9A9844C9EB08089B1A9845A8BF9846B8F1000F08DC0FE00A9B099A31462846B8470130EBD14BE743464A463146F5
:403040002846B84701303FF444AF4FF0000928EAE87804F11A0A09E00123524631462846B84701303FF435AF09F101090D9A0E9B9B1AC8EB03039945EEDB4BE7FFFFEF7FE1
:40308000604D0000644D0000684D00006C4D0000704D00000E9A012A01DCDB0738D50123424631462846B84701303FF412AF0A9B099A31462846B84701303FF40AAFD4E92D
:4030C000120100220023FFF7FBF920B14FF0000804F11A090EE00E9B08F10102013B19E001234A4631462846B84701303FF4F1AE08F101080E9B013B9845F1DB534604F1DD
:40310000500231462846B84701307FF403AFE0E64246012331462846B8470130EED1D8E601234A4631462846B84701303FF4D1AE08F10108E3680F9A9B1A9845F0DBE068E9
:403140000F9B9842B8BF18465DE062680EA8531C0DF1340E4BF480637FF474AE062201E012B90122626075E6002106910DF133018DE80C00236005904246CDF81090CDF88A
:403180000CE0029153462846FFF76BFD80460D9BD81C02DB626893421DDDA9F102095FFA89F970E60133236184E6B9F1660F14D10029636807DD216113B92268D2071DD5DC
:4031C00001330B4419E013B92268D00701D5023313E0012311E04FF067090D9B0E9A934205DB22682361D10708D5013305E0002BD4BFC3F102030123134423610D9B4FF026
:40320000000AA36556E611B0BDE8F08F2DE9F04791461F460A698B6806469342B8BF1346C9F8003091F843200C46DDF8208012B10133C9F800302368990642BFD9F80030C3
:403240000233C9F80030256815F0060510D104F1190A07E00123524639463046C04701301AD00135E368D9F800209B1A9D42F1DB94F843302268003318BF012392060FD5D3
:40328000E118302081F843005A1C94F845102244023382F8431003E04FF0FF30BDE8F08704F1430239463046C0470130F4D02268D9F80050E36802F00602042A08BF5D1B55
:4032C0002269A3680CBF25EAE57500259342C4BF9B1AED184FF000091A344D4509D00123224639463046C0470130D5D009F10109F3E70020BDE8F0872DE9F04317460A7E26
:4033000085B06E2A984606460C460C9B01F1430E00F0AE8011D8632A22D009D8002A00F0BB80582A40F0CA8081F84520834955E0642A1ED0692A1CD0C0E0732A00F0B0806B
:4033400009D86F2A2ED0702A40F0B8800A6842F020020A603EE0752A24D0782A3AD0ADE01A6801F14205111D1960136884F84230A8E021681A6811F0800F02D0111D196052
:4033800008E011F0400F02F10401196002D0B2F9003000E01368002B3CDA2D225B4284F8432037E021681A6811F0800F02D0111D196007E011F0400F02F10401196001D0AC
:4033C000138800E01368227E5C496F2A14BF0A2208221BE078225A4984F845202268186812F0800F00F104051D6003D1550601D5038800E00368D00744BF42F0200222601A
:403400001BB9226822F0200222601022002084F8430001E049490A226568002DA56008DB206820F0040020602BB9002D7DD175460CE0002B79D07546B3FBF2F002FB1033C5
:40344000CB5C05F8013D03460028F5D1082A0BD12368DA0708D5236962689A42DEBF302305F8013C05F1FF35C5EB0E0323612EE008681A6810F0800F496903D0101D1860D8
:40348000136808E010F0400F02F104001860136801D0198000E0196000232361754616E01A68111D1960156800216268284600F0A7FE08B1401B6060636804E004F1420502
:4034C00084F8422001232361002384F84330CDF800803B4603AA21463046FFF797FE013002D14FF0FF3026E023692A4639463046C0470130F5D023689B0710D5002504F1C7
:40350000190907E001234A4639463046C0470130E7D00135E368039A9B1A9D42F2DBE068039B9842B8BF184605E00B7804F1420584F842308AE705B0BDE8F083724D000047
:40354000834D00000EB400B54FF402719CB0ADF814106FF00041049107914FF6FF711DAB02900690084853F8042BADF81610006802A9019301F03AFA029B00221A701CB051
:403580005DF804EB03B070475082FF1F034613F8012B002AFBD1181A013870472DE9F74F03690C6980469C427FDC013C01F114074FEA840E00F1140606EB0E0357F82450B4
:4035C000019356F824300135B3FBF5F507EB0E09C5B34FF0000A3846B446D34650F8043B9AB205FB02A21B0C4FEA124A05FB03A392B2C2EB0B0BBCF800204FEA134A5A4484
:403600001FFA83FBDCF800308145CBEB134303EB224392B242EA03424FEA234B4CF8042BDCD256F80E306BB9019B043B9E421A4602D3C8F8104005E01268043B002AF8D10C
:40364000013CF3E7404600F0F6FF00282BDB304601354FF0000E57F8042B036891B2C1EB0E0E120C99B27144C2EB134303EB214389B24FEA234EB94541EA034340F8043B6F
:40368000E9D256F8242006EB840362B9043B9E421A4602D3C8F8104005E01268043B002AF8D1013CF3E7284600E0002003B0BDE8F08F0000000000002DE9F04F456A95B090
:4036C0008246219CCDE9022345B9102000F090FDCAF82400456085600560C560DAF82430196859B15A68012393404A608B60504600F0C9FDDAF8243000221A60039BA04A30
:40370000002BBDBF01232360039B0023BCBF23F000430393DDF80C80A8BF236028F000431B0D1B0593421DD142F20F73209A1360029B43B9934A944BC8F31300002814BF61
:403740001846104600E09048229B002B00F04685C37813B100F1080300E0C31C229A136000F03CBDDDE902450022002320462946FEF7A6FE074658B1209A01231360229B44
:40378000002B00F01E8581481860013800F026BD12AB019313AB009322462B46504600F0C5FFC8F30A56049056B1C5F3130343F07F51204641F44011A6F2FF3611971DE054
:4037C000139B129E1E4406F23243202B0ADD029A06F21240C3F1400322FA00F008FA03F3184304E0C3F12000029B03FA00F0FEF789FB0123A1F1F871013E11930022644BA0
:40380000FEF742FA58A3D3E90023FEF7F1FB58A3D3E90023FEF73AFA044630460D46FEF781FB55A3D3E90023FEF7E2FB02460B4620462946FEF72AFA04460D4601F028FA35
:4038400000228346002320462946FEF743FE58B15846FEF767FB02460B4620462946FEF72FFE08B90BF1FF3BBBF1160F0DD8DDE90223484901EBCB01D1E90001FEF748FECA
:4038800030B10BF1FF3B002300E00123109300E01090129B9E1B731E079343BFC3F10008002307934FF00008BBF1000F06DB079BCDF82CB05B440793002705E00023CBEB57
:4038C0000808CBF100070B931E9B092B28D8052BC4BF043B1E931E9BC8BF0025A3F10203D8BF0125032B20D8DFE803F0060E0204012302E0012308E000230A931F9B002B5B
:403900001DDD9946059321E000230A931F9B0BEB030909F10103012B0593B8BF012315E0012500231E930A9501E001230A934FF0FF390022CDF8149012231F9206E04FF0FF
:4039400001094B46CDF81490CDF87C90DAF8244000226260042101F114029A421CD86268490001326260F6E761436F63A787D23FB3C8608B288AC63FFB799F501344D33FD8
:403980000000F07F944D00009D4D0000714D00000000F83FB04D00006168504600F03EFCDAF8243020601B680693059B0E2B00F25B81002D00F05881DDE90234BBF1000F3C
:4039C000CDE90E3430DD9F4A0BF00F034FEA2B1502EBC303E80618CBCDE908340CD5DDE90E01994B05F00F05D3E90823FEF72AFC0324CDE9020100E00224934E6DB1E90763
:403A000008D5DDE90801D6E90023FEF7F1FACDE9080101346D100836F0E7DDE90823DDE90201FEF70FFC20E0CBF1000505B3DDE90E01844B05F00F0203EBC203D3E9002323
:403A4000FEF7D6FACDE902017F4E2D110023022455B1EA0705D5D6E90023FEF7C9FA013401236D100836F3E71BB1CDE9020100E00224109BE3B1DDE902560022734B2846E5
:403A80003146FEF727FD98B1059B8BB1B9F1000F40F3E6800BF1FF330893314600226C4B2846FEF7A5FA0134CDE902014E4602E0059ECDF820B02046FEF734FADDE90223D4
:403AC000FEF796FA634B0022FEF7E0F8A1F1507304460C931D46D6B9DDE9020100225E4BFEF7D2F822460C9BCDE90201FEF710FD002840F03F820C99224601F10043DDE936
:403B00000201FEF7E7FC002840F02B82A8E00A9A4C4B711E002A49D003EBC103D3E9002300204E49FEF78EFB22462B46FEF7ACF8CDE90C01069CDDE9020101F0A9F80546CD
:403B4000FEF7F0F902460B46DDE90201FEF79CF8DDE90C23303504F8015BCDE90201FEF7B9FC002840F01D83DDE9022300203749FEF78AF8DDE90C23FEF7ACFC002840F083
:403B8000D180069BE31AB3426ADADDE90C0100222F4BFEF72DFA0022CDE90C01DDE902012B4BFEF725FACDE90201C4E703EBC1012246D1E900012B46FEF71AFA069BCDE912
:403BC0000C011D469C19DDE9020101F061F80646FEF7A8F902460B46DDE90201FEF754F8303605F8016BAC42CDE902014FF0000222D11A4BDDE90C01FEF748F802460B4658
:403C0000DDE90201FEF784FC002840F08B80DDE90C2300201149FEF737F802460B46DDE90201FEF757FCD8B114F8013C621E302B40F0B7821446F7E7054BFEF7D9F9CDE98B
:403C40000201C0E7B04D0000884E00000000F03F0000244000001C40000014400000E03FDDE90E34CDE90234139B002B7CDBBBF10E0F79DCAB4B03EBCB03D3E900671F9B94
:403C8000002B14DA059B002B11DC40F06C810022A54B30463946FEF7ABF9DDE90223FEF72DFC059D2E46002840F05F8165E1069CDDE9028932463B4640464946FEF7C2FA27
:403CC00000F0E6FF0546FEF72DF932463B46FEF78FF90B46024649464046FDF7D5FF05F1300E069B04F801EBC3EB040E059B73452DD102460B46FDF7C9FF80468946024698
:403D00000B4630463946FEF7E5FB78B942464B4630463946FEF7D4FB002800F04482EB0704D440E2DDF820B000E01C4614F8012C631E392A07D1069A9A42F6D1069930228B
:403D40000BF1010B0A701A7801321A702BE20022764BFEF74DF90022002380468946FEF7AFFB0028A6D01EE20A9A002A2BD01E9A012A0ADC119A12B103F2334302E0129B36
:403D8000C3F136033D46444613E0059B5D1EAF42BFBF0B9BEA1B9B180B93059BB6BF2F467D1B0025002BA7BF4446059BC3EB08040023079A01211A4450469844079200F095
:403DC00001FB064602E03D4644460A9E5CB1079B002B08DDA342A8BF2346079AC3EB0808E41AD31A0793002F1DDD0A9BABB18DB131462A46504600F07FFB049A014606460C
:403E0000504600F0E8FA04990890504600F03BFA089B04937A1B06D000E03A460499504600F06AFB04900121504600F0CBFA0B9B05465BB31A460146504600F05DFB1E9B5F
:403E40000546012B18DC029B83B9039BC3F3130373B9039B23F000473F0D3F054FB1079B08F1010801330793012702E0002700E0029F0B9B73B100E000272B6905EB8303E1
:403E8000186900F052FAC0F1200004E01E9B012BD9DD0B9F0120079B184410F01F0008D0C0F12003042B02DDC0F11C0002E006D018461C30079B8044034404440793B8F1EC
:403EC000000F05DD42460499504600F063FB0490079B002B05DD29461A46504600F05AFB0546109B23B32946049800F0A4FB00281EDA00230A220499504600F0DBF90A9B6A
:403F00000BF1FF3B0490002B00F05F81314600230A22504600F0CEF9B9F1000F06463FDC3BE000BFB04D00000000144000002440059B002B2BDC1E9B022B28DDDDF81490C4
:403F4000B9F1000F11D129464B460522504600F0B1F901460546049800F06DFB00280CDC03E0354600E000252E461F9B069C6FEA030B09E03546DDF820B0069B069A5C1C5D
:403F8000312313700BF1010B05960026F7E00A9BDDF8149023B9069CB2E01E9B022BCFDC002C05DD31462246504600F0F3FA06469FB17168504600F031F90446326906F16A
:403FC0000C01023292000C30FEF738FE01222146504600F0DFFA059000E00596029B069F03F00103079329460498FFF7D7FA3146044600F13008049800F01DFB059A02902A
:404000002946504600F033FBC36802463BB901460A90049800F00FFB0A9A034600E00123114650460A9300F02EF90A9B53B91E9A42B9079A32B9B8F1390F2AD0029B002B4A
:404040001CDC1DE0029A002A04DB1BD11E9ACAB9079ABAB9002B13DD01220499504600F099FA2946049000F0E6FA002803DC07D118F0010F04D0B8F1390F0AD004F13108E0
:404080007C1C0CE0002B07F101040BDDB8F1390F03D139233B70013756E008F1010887F800806CE0069B2746E31A4B4504F8018C3BD000230A220499504600F0FBF8059BB1
:4040C00004909E424FF00A024FF000033146504604D100F0EFF80646059084E700F0EAF8002306460A220599504600F0E3F8059079E700230A220499504600F0DBF8049080
:4041000029460498FFF74AFA069B00F1300804F8018BE31A4B45ECDB069B0596B9F1010FACBF4B4401331F46002601220499504600F030FA2946049000F07DFA002803DC04
:4041400015D118F0010F12D03C4614F8013C621E392B09D1069B934204D10BF1010B3123069A02E01446F0E70133137007E03C4614F8013C621E302B01D11446F8E72946BE
:40418000504600F080F8059B6BB12EB19E4203D03146504600F077F80599504600F073F801E0DDF820B00499504600F06CF80023209A23700BF101031360229B1BB11C60C3
:4041C00001E008480AE0069808E0B9F1000F3FF7E2AE1E9B022B7FF7DEAEB1E615B0BDE8F08F00BF704D0000004870475482FF1F024B0146186800F041BB00BF5082FF1F19
:4042000010B5C9B202449042034605D01C7801308C42F8D1184610BD002010BD70B5456A04460E463DB91020FFF7E2FF6062456085600560C560656AEB6843B1636ADB6829
:4042400053F8260078B1026843F8262017E021220421204600F0B8FA636AE860DB68002BECD1002070BD012101FA06F56A1D9200204600F0A9FA0028F3D046608560002302
:404280000361C36070BD70B5446A06460D463CB91020FFF7ADFF7062446084600460C4603DB1736A6A68DB6853F82210296043F8225070BD2DE9F04106460C460D691F46AF
:4042C00001F1140E0023DEF80000013381B202FB0171000C0F0C02FB007089B201EB00419D424FEA10474EF8041BECDCD7B1A3689D4212DB616830460131FFF78FFF804629
:40430000226904F10C01023292000C30FEF796FC21463046FFF7B7FF444604EB850301355F6125612046BDE8F081030C1B0413B90004102300E0002310F07F4F04BF00021E
:40434000083310F0704F04BF0001043310F0404F04BF80000233002803DB420003D5581C70471846704720207047036813F007020BD0D90722D49A074BBF5B089B080360AE
:4043800003604CBF01200220704799B209B91B0C102213F0FF0F04BF1B0A0832190704BF1B090432990704BF9B080232D90702D45B0805D00132036010467047002070471D
:4043C0002020704710B50C460121FFF727FF01224461026110BD2DE9F74F14460A69236988469A42BEBF0B46A0461C46D8F81070D4F81090D8F80830D8F8041007EB09065B
:404400009E42C8BF0131FFF709FF00F114052B4605EB860C0022634502D243F8042BFAE704F1140208F1140102EB890301EB87070093009B0192934257D9B2F800B0BBF127
:40444000000F23D08946AE464FF0000859F8044BBEF800A0A3B20BFB03A34FEA144ADEF8004043444FEA14480BFB0A84F24604EB13449BB243EA04434F454FEA14484AF832
:40448000043B01D9D646E1E7CEF80480019B0432B3F802A0BAF1000F21D02C4689462B684FF00008B9F800E0B4F802B09BB20AFB0EBEA346F04443EA08434BF8043B59F85B
:4044C000043BB4F804E01B0C0AFB03E34F4503EB18434FEA134801D95C46E3E763600435A7E75CF8043D13B9013E002EF9DC066103B0BDE8F08F00002DE9F843154612F00B
:40450000030206460F4607D0214C013A002354F82220FFF7CFFE0746AD1036D0746A3CB91020FFF765FE7062446084600460C460D6F82480D8F808404CB940F271213046CB
:40454000FFF740FF04460023C8F8080003604FF00008EB070AD5394622463046FFF73BFF814639463046FFF78EFE4F466D100CD0206808B10446ECE7224621463046FFF704
:404580002AFF2060C0F80080F4E73846BDE8F883784E00002DE9F0470C460746914626694FEA621A56444968A368751CAB4202DA01315B00FAE73846FFF730FE002380462B
:4045C0001A4600F11401534503DA41F823200133F9E72AEAEA73206901EB830319F01F0904F1140101EB800E14D0C9F1200C002208689A4600FA09F0024343F8042B51F808
:40460000042B8E4522FA0CF2F2D8CAF8042042B1B51C06E0043B51F8042B8E4543F8042FF9D8013D3846C8F810502146FFF72BFE4046BDE8F08703690A6910B59B1A11D1FC
:4046400092001430143183180A4453F8044D52F8041D8C4202D007D3012010BD9842F4D3002010BD184610BD4FF0FF3010BD2DE9F8430C460746114620461546FFF7DBFFFB
:40468000061E08D131463846FFF7C8FD012303614661BDE8F883BCBF23462C4638466168BABF1D4601260026FFF7B8FD2B69C660266905F1140904F1140101EB860709EBBA
:4046C000830800F114054FF0000C51F8042B59F8044B93B29C44A3B2240CC3EB0C03C4EB124202EB23429BB24FEA224CC84543EA02428E4645F8042BE7D8BE450ED25EF85C
:40470000041B8AB26244131403EB114392B242EA03424FEA234C45F8042BEEE755F8043D0BB9013EFAE70661BDE8F8832DE9F3411C4601219046089E099DFFF76FFDC4F36F
:404740001302C4F30A5407460CB142F480120192B8F1000F19D002A840F8088DFFF705FE009B48B1019AC0F1200102FA01F10B43C2407B61019200E07B61019B002B14BF95
:4047800002210121BB61396107E001A8FFF7EDFD019B01217B613961203034B1A4F2334404443460C0F1350009E0A0F2324007EB810330601869FFF7B8FDC0EB41102860B3
:4047C000384602B0BDE8F08138B502FB01F4214600F054F8054618B122460021FEF739FA284638BD38B50546002944D051F8043C0C1F002BB8BFE41800F017FA1E4A13681E
:40480000114613B96360146030E0A3420DD92268A018834201BF18685B681218226063600C6023E0A24203D813465A68002AF9D118681918A1420BD121680144581882421B
:40484000196013D110685268014419605A600DE002D90C232B6009E021686018824201BF106852680918216062605C602846BDE8384000F0DBB938BD7083FF1F70B5CD1CCC
:4048800025F0030508350C2D38BF0C25002D064601DBA94202D90C23336046E000F0C5F9234B1C681A462146A1B10B685B1B0ED40B2B03D90B60CC18CD501EE08C420BBFA2
:4048C00063684B681360636018BF0C4615E00C464968E9E7174C23681BB9304600F07AF920602946304600F075F9431C18D0C41C24F00304A0420DD12560304600F096F939
:4049000004F10B00231D20F00700C31A0ED05A42E25070BD211A304600F05CF90130EBD10C233360304600F081F9002070BD00BF7083FF1F6C83FF1F2DE9F0478E688246B0
:404940009E420C46914698463ED88A8912F4906F3AD02568096902236F1A656905EB450595FBF3F57B1C43449D4238BF1D4653050FD52946FFF782FF064698B13A462169D3
:40498000FEF75CF9A38923F4906343F08003A38113E02A4600F04BF9064670B921695046FFF720FF0C23CAF80030A3894FF0FF3043F04003A381BDE8F08726613E4426605C
:4049C00046466561ED1BA560464528BF464649463246206800F00EF9A36800209B1BA36023681E442660BDE8F08700002DE9F04F9DB003938B8980461C060D4616460DD59C
:404A00000B695BB94021FFF739FF2860286118B90C23C8F80030CDE040236B610023099320238DF82930DFF89CB130238DF82A3037463C4614F8013B1BB9B7EB060910D0A0
:404A400003E0252BF9D02746F3E74B46324629464046FFF771FF013000F0A780099B4B4409933B78002B00F0A08000234FF0FF3204930793059206938DF853301A930126BA
:404A8000052221784E48FFF7BBFB671C049B38B14B4A3C46801A06FA00F018430490EFE7D90644BF20228DF853201A0744BF2B228DF8532022782A2A03D0079A00210A2051
:404AC0000BE0039A111D12680391002A10DA524243F00200079204900BE027463B780134303B092B03D800FB02320121F5E701B107923B782E2B1ED17B782A2B0AD1039BFA
:404B000002371A1D1B680392002BB8BF4FF0FF33059310E0002319460593781C0A2407463A780130303A092A03D804FB01210123F5E703B10591032239782248FFF760FBD2
:404B400040B14023CBEB000003FA00F0049B013718430490397806221B487E1C8DF82810FFF74EFB88B1194B33B9039B073323F007030833039314E003AB00932A46144B53
:404B800004A94046FEF7FEF807E003AB00932A460F4B04A94046FEF7AFFBB0F1FF3F824603D0099B5344099342E7AB895B0601D4099801E04FF0FF301DB0BDE8F08F00BF8F
:404BC000B04E0000B64E0000BA4E0000852D00003949000038B5064C0023054608462360FCF70AF8431C02D1236803B12B6038BD8484FF1F884210B501EB020301D8421E34
:404C00000BE09842FBD28118D21AD34204D013F8014D01F8014DF8E710BD994204D011F8014B02F8014FF8E710BD70477047F8B5074615460E4621B91146BDE8F840FFF713
:404C40001DBE1AB9FFF7CEFD2846F8BD00F015F885420ED929463846FFF710FE044650B131462A46FDF7EAFF31463846FFF7BAFD01E03046F8BD2046F8BD51F8040C0028AD
:404C8000BEBF091851F8043CC0180438704700004FEA410212F5001215D211D56FF47873B3EB625212D94FEAC12343F0004343EA505311F0004F23FA02F018BF4042704743
:404CC0004FF00000704750EA013005D111F0004008BF6FF0004070474FF00000704700BF0000000000000000543A25692C25302E34662C25302E34660A00000072657379EF
:404D00006E630000C84900401900405100403000F0510040100000000140000A800A01400002000D0140000300140140000800400140000A004C0140000210500140100015
:404D4000000A0140501000488000800C0140D01000488000005001405011004810004300494E4600696E66004E414E006E616E003000303132333435363738394142434443
:404D80004546003031323334353637383961626364656600496E66696E697479004E614E00504F534958002E0000000000000000000000000000F03F00000000000024406B
:404DC00000000000000059400000000000408F40000000000088C34000000000006AF8400000000080842E4100000000D01263410000000084D797410000000065CDCD4172
:404E0000000000205FA00242000000E876483742000000A2941A6D42000040E59C30A2420000901EC4BCD64200003426F56B0C430080E03779C3414300A0D8855734764335
:404E400000C84E676DC1AB43003D9160E458E143408CB5781DAF154450EFE2D6E41A4B4492D54D06CFF08044F64AE1C7022DB544B49DD9794378EA44050000001900000072
:404E80007D000000000000000080E03779C34143176E05B5B5B89346F5F93FE9034F384D321D30F94877825A3CBF737FDD4F1575232D302B2000686C4C0065666745464707
:404EC00000000000F8B500BFF8BC08BC9E4670474D000000750C0000F8B500BFF8BC08BC9E46704729000000F84E0000D080FF1FC0010000F801000000000000000000004F
:404F00000000000000000000010000000000000000000000000000000100000000000000000000000000000005000000FF000000F01D903E4260E53C000020410000A0418B
:404F4000000000000AD7A33C0000000000007E430000000000007E430000803F0000000000000000000000000000000000000000000020410000A041000000000AD7A33C2E
:404F80000000000000007E430000000000007E430000803F0000000000000000000000000000000000000000000020410000A041000000000AD7A33C0000000000007E43ED
:404FC0000000000000007E430000803F0000000000000000000000000000000000000000E17A943E0000803F00C0A5438884FF1F7F800000010000000000E02EC05D000048
:405000001800000000366E01675000400C00000007000000FF00000000000000000000000000000000000000000000000000000000000000000000005E4D000000000000FF
:405040000000000000000000000000000000000000000000000000000000000000000000000000000000000000000000000000000000000000000000F081FF1FA74D0000AD
:40508000B54E0000B54E0000B54E0000B54E0000B54E0000B54E0000B54E0000B54E0000B54E0000FFFFFFFFFFFFFFFFFFFFFFFFFFFF0000000000000000000000000000E3
:4050C00000000000000000000000000000000000000000000000000000000000000000000000000000000000000000000000000000000000000000000000000000000000B0
:40510000000000000000000000000000000000000000000000000000000000000000000000000000000000000000000000000000000000000000000000000000000000006F
:40514000000000000000000000000000000000000000000000000000000000000000000000000000000000000000000000000000000000000000000000000000000000002F
:4051800000000000000000000000000000000000000000000000000000000000000000000000000000000000000000000000000000000000000000000000000000000000EF
:020000040003F7
:0200000480007A
:400000000A5200400C64004003650040680001403D010140650201404D0301405E04014045050140650601404D07014057080140460901400D0A01404D0B01401A0C014074
:40004000400D01404E0E0140390F01405C14014052150140631601404F17014046180140411901405C1A01404F1B01400B4001401D410140164201400B430140024401409C
:400080000C4501400D4601400647014009480140164901400F4C0140054D01400650014004510140000A0143040C106011541408183419116010610803FF13FF23FF33FFF8
:4000C000810F850D870F890F8A3C8D758E6F8F0F850D880F8B6F0007013003C90D7311FD130215941760180C199E1A021B60220F240C2601280829CF2A012B302C0B2E0452
:400100002F0F340F37FF3F4040534106420249FF4AFF4BFF4F015018580459045A045C015D095F016040624064406540668068806A806C806E80800881058201830A850CD2
:400140008703880C8A018C0B8E04910F9220960F980C9A02A007A107A50AA620A705A903AB0CAC10B020B20FB410B70FBE11C053C106C202C9FFCAFFCBFFCD83CE03CF0113
:40018000D018D403D804D904DA04DB04DC11DD99DE80DF05E040E240E440E540E680E880EA80EC80EE8002400401051007010A040C0A0F0810181181166119101A041E484B
:4001C0001F0822802540270129802B0C2C882E043008311033013701380139033A403D013F084220431046204710480249204A044C024D205E505F056F027D08800183024E
:40020000848086408B018C08C0D8C272C4BFCAECCC87CEC9D066D23CD6F0DE40E001E208080311011302140315031A011B011C011E02210123022B072C012E0233043603D7
:4002400037033A8C3B8840534106420245EC4620480B49FF4AFF4BFF4D834E034F015018580459045A045B045C225D095F016040624064406540668068806A806C806E8028
:40028000800E8504870889048B088D018E0E8F029008910193029601970F98029A049B05A210A608A802A903AA04AB0CAC0EB001B103B50CB61EBB22C063C504C603C707BA
:4002C000C81DC9FFCAFFCBFFCD60D280D804D904DA04DB04DC21DD92DF01E070E120E251E3C8E4D1E5DCE651E7DC018002400420051008010A240C200E2210181180128004
:40030000158019821E221F082110220124202604270229102F8830203201330836243702380839A043084620471048204A044C024D204F05500451405220538056205A100A
:400340005B106F02700272407801790283109204950296109705981099209A409D809E209F10A140A280A40AA904AA01AE04B010B308C049C2EEC48FCAA4CCE7CE0ED06251
:40038000D234E80206020701080611041501190122012406250228042E013304340135033606388039203E403F044051410249FF4AFF4BFF4F0150185280580459045A0419
:4003C0005B045C095D995F016040624064406540668068806A806C806E808402860487088B068E018F0192029502970C99029A029B0C9E01A101A701A908AB06B001B2021B
:40040000B301B404B50EBB20BE01BF04C051C106C9FFCAFFCBFFCD83CE03CF01D018D401D804D904DA04DB04DC09DD99DF05E040E240E440E540E680E880EA80EC80EE80FD
:400440000108030406220E4A101011321348180419801B101E981F2020082110220424082510271029082D102F603010310233043410370438083C083E403F104004420243
:4004800046024A014B404F605D015E805F046F0173407C04821092409502962899029F10A408A710AA01AE05AF02B190B302C0A6C2D0C40FCAE2CC67CE72D01CD238D6D03C
:4004C000DE40E204E602E802EC0B0471060807780840097A0A030B040C020E010F4010011123120E13541450170518431A301B082430250326472704282429432A412B2C38
:400500002D20307F351F37603BA04051410645EC4720482349FF4AFF4BFF4D834E034F015018580459045A045D095F016040624064406540668068806A806C806E808001EF
:40054000820284028601870189018D04900192029401950196029B01A701AF02B101B304B403B502BA20BF05C005C640C9FFCA0FCBFFCC40CD20CEF0CF05D008D401D604AD
:40058000D804D904DA04DB04DC11DF01E040E1A8E240E320000401020428070108010A200D240E4015201708180419201D021E40221525602705280129082C302E6030209B
:4005C00033043508362238083A503C083DA04632470849884D014F64501052205501560258925A08610164026508664067107C807E018D019008912093409503962097146F
:4006000099829D089E029F0CA004A110A310A408A503AE20AF41C0ECC27CC460CA7ACCE6CE7ED010D238D60FD801E640EA0107080B04120213011A041E011F02200824019B
:400640002502300831023204330834023501360137043E413F0140534104420649FF4AFF4BFF4F015018580459045A045C115D095F016040624064406540668068806A809A
:400680006C806E80840187028B018F0190019401970299029D029E01A302AA01AB02B101B201B302BF01C056C104C202C9FFCAFFCBFFCD83CE03CF01D018D403D804D90464
:4006C000DA04DB04DD99DE80DF05E040E240E440E540E680E880EA80EC80EE80031005C0084809800A800CA00E8210081420150117081B081D421E401F24220423802440A0
:40070000272928482B042F20300831083240331036C138043A103B403C203E0841024204450246104B604D204F4059255B8079018E089004928093209440964D9740980402
:4007400099059A109B10A188A280A304A708B540B704C004C2DDC432CA45CC9ECE6ED0C5D23CD60FDE01EA019D01A101A901AE01B201B501B920BB08BF10D804D904DC01D2
:40078000DF0100040180020A0380084009880A8010A811401204160118041A801B801E20218022012304242026082718284029882B042C042F44302031083241368038208C
:4007C0003A04424449054B605210531059025A086140638469206B028340851087028C4893889681994A9A019C089F18A0A8A108A282A304A580A610A708B240B480B60852
:40080000B702C00FC20DC48FCAAFCC1FCE06D005D20CD603D80DE002E822ECAB14012E0130013E014053410449FF4AFF4BFF4DA04F01501858045A045D015F0160406280DC
:4008400064406540668068406A806C406D206E8000800318084009800AA00B400E20108012201310160119421A241B041E4021082222231028402A802B04324A33103955C1
:4008800040A044A04640470849844A804D804E01521153045A04695570287280920293809641975899089C089D049E509F10A040A690A70AAE02AF04B208B310C007C22D3F
:4008C000C48ECA0DCC0FCE0FD0C3D218D602E8200C0112011E011F01310136013E40405641024203440445CE480349FF4AFF4BFF4C624DA04EF04F41500C5280540F58047F
:4009000059045A045B045C105D105F056640670269106A306B106D106E106F1281188201836086018701880189018C068F049164931895489730980C99019D02A13CA54C12
:40094000A730A80CA902AC0AAD78AF04B001B301B502B60EB77CB880B920BE01BF04D40FD804D904DB04DC11DD10DF01004004080552064009420F04140316081A021D40E3
:400980001E801F402040240C25C027202C412D202F5431803510369237043C043D903F01431A484049084B50580859205A415C025E805F286104621071027840830187489E
:4009C000880189128F04C0F1C249C4C0CAF0CCF8CEF0D007D20CD6FFD806DE08E4300508070111071201150C17021D0C1F012201270F290B2B04330F34014054410249FF4D
:400A00004AFF4BFF4F015018580459045A045B045C195D095F016040624064406540668068806A806C806E8080738501860F8702889489018A608B028F109107943096C98F
:400A4000970798CF99079A309F04A308A49EA504A660A8FDAA02AF10B50FB6FFB710BE40BF40C054C106C9FFCAFFCBFFCD83CE03CF01D018D401D804D904DA04DB04DC1035
:400A8000DD99DF05E040E240E440E540E680E880EA80EC80EE800408052106080B400E280F20108014081508172018041A081F4021042208231024082640270828082B30E4
:400AC0002E802F60310132883501368037283A083E083F504004428046804B404E044F405D015E805F0469806D046F8A7E04800483A08520861089048B028D408E8C8F0845
:400B000091019344960899219A809B209C08A080A204A310A608A804B501C070C268C468CAD6CCFBCE72D085D238D6D0DE20E001E230E40BE690E810EA01040B0604070265
:400B400009020A0F0B011007140816011703180C1A021B01240C26012701340F35033B204014410645EC4602480749FF4AFF4BFF4D834E034F015018580459045A045C01A5
:400B80005D095F016040624064406540668068806A806C806E8080018202840285288601871488188B02900C9414953C99309B0C9C019E029F01A11CA418A514A728A801BF
:400BC000A90CAA02AB30B01CB101B33CB403B702B802BA20C036C102C6CEC70BC81CC9FFCAFFCBFFCEF0CF44D00CD280D804D904DA04DB04DC11DD90DF01E6C0EA40EB027E
:400C00000002020C03200524072008080A420E480F2010101110150419011A401B301D101E0820022241232024042610270829212B102F1030103114324036103704391406
:400C40003A043C083D2040044304468047804B304C044D014E044F045020510452405480568073C089018C0891109310950A99209B049E409F08A004A110A428AA02AB0431
:400C8000AC01AD10C06EC27DC426CA47CC6ECE66D096D224E280E480E608EA02EE08010409010B020C010D010F021001110113021502170119081A021C012204240227087E
:400CC00028022B082D04300432023304340135033708382039083B203E143F40540F580459045B045C115D105F0181048208830888088B028E02920897019B109D089E0436
:400D00009F04A104A308A401A904AA01AB08B002B110B204B302B408B501B601B70CBB80BE50D804D904DC11DF0100820208060108400B400C100E080F821004130416202D
:400D4000171119211A051B041C081E6020A02181230426442704284029012B042C102E202F0A3004318032103420371539223C203E403F025C015D045EA07D0C8210898171
:400D80008A0C8F04950196059740982499809B019D20A490AF24B420C08BC2D9C476CA75CCEECEB5D6F0E2A0E480E61C010203010F021F02330237014036410549FF4AFFBC
:400DC0004BFF4DA04F015018528059045A045B045C905D915F016040628064406540668068406A806C406D206E8081808201853C880189648B188D4C8E048F30938197043D
:400E000099489A039B30A102A578A704A918AB60AF02B101B201B37CB402B580B604B702BE04BF50C026C105C53CC604C72EC837C9FFCAFFCBFFCDAFCE07CF01D018D2809D
:400E4000D40FD804D904DA04DB04DC11DD11DF05E040E280E440E540E680E840EA80EC40ED20EE800510060107400E081C101D101F402002224425012604270A2C202D102D
:400E80002F4232403502362439013B403D4A3E2040104604480449204A034D224E024F065480560B57025D805E205F0A6010620466086704734077407D08802182018308D5
:400EC000851086208A128D408E20910194019608974099809E01A004A104A481A70BB110B504B740C0D0C240CAF0CCE8CEF9D022D23CD6F0D860DE40E040E440E810EA01B1
:400F0000EC40130830403104372838103E208201C410CCF0CE30E220030105200D20334035805108520254025780620176207740801094109A019C409D049E209F20A52017
:400F4000A920C0C0C280CC30D4E0D620D840E680E8203E10531082208320871099209C409D849E209F20A120A508A602A780AC02AF01CE20D420E2A0E640E840EA108D80A6
:400F8000961099209C409D84A780A908AD20AE02E810EAC07D80DE0403400420072058425D0461026608A540C00DD401D603D803854098019B60A540A802AC41AD04B10231
:400FC000B208B410E804EC04EE028F40970198019B60AB01E208878088408A40961099209C409D04A780E6100640500456205B205D026520810289208A208C048F209E4022
:40100000A904AA10B520C020D4E0D680D880E620EA80EE800B020C201321144078017C108301844097019801B720C203C40EDE03EE08AB20B020B410E808EE04100311016A
:401040001A031B011C021D0100FF013F03C0100104000A0006020100FF0F00000000C0002F00D01000003F0100040000F90906062B0614098000001040060009D600290670
:40108000E0080000071018070002A280000000105604020000EC20000BFFFFFF00830301180000001C00040004040404000900014000400040408000800080008000800015
:4010C00000000000000000000000000000000000000600002F02000400021004000610002F1200040900240100080000090822002108000000000100000826000010000073
:401100002018070608011000000208000000500053040000003EC0423BFFFFFF00AF07011800000000000212040404040001000140008000404080004000800040208000D3
:4011400000000000000000000000000000000000070100000000000006010301030103000C0080434F004F0000000000800000989800180000000000C00B0B00000000004A
:4011800004000BF4F400F40000000000023D3D003D00000000000000000000000000000000000000000000000000000000000000000000000000000000000000000000008B
:4011C00000000000000000000000000000000000000000000000000000000000000000000000000000000000000000000000000000000000000000000000000000000000EF
:4012000000000000000000000000000000000000000000000000000000000000000000000000000000000000000000000000000000000000000000000000000000000000AE
:40124000000000000000000000000000000000000000000000000000000000000000000000000000000000000000000000000000000000000000000000000000000000006E
:40128000000000000000000000000000000000000000000000000000000000000000000000000000000000000000000000000000000000000000000000000000000000002E
:0200000490006A
:0400000000004005B7
:0200000490105A
:04000000BC90ACAF55
:0200000490303A
:0200000022CA12
:0200000490402A
:4000000000000000000000000000000000000000000000000000000000000000000000000000000000000000000000000000000000000000000000000000000000000000C0
:400040000000000000000000000000000000000000000000000000000000000000000000000000000000000000000000000000000000000000000000000000000000000080
:400080000000000000000000000000000000000000000000000000000000000000000000000000000000000000000000000000000000000000000000000000000000000040
:4000C0000000000000000000000000000000000000000000000000000000000000000000000000000000000000000000000000000000000000000000000000000000000000
:0200000490501A
:0C00000000012E16106900012E3B333366
:00000001FF