:400000000080002011000000B1060000B106000008B5044B1A6803F53F5302331A6000F067FB00BFFA46004010B5054C237833B9044B13B10448AFF300800123237010BDA7
:400040009881FF1F0000000018400000084B10B51BB108490848AFF300800848036803B910BD074B002BFBD0BDE81040184700BF000000009C81FF1F18400000C880FF1FB2
:40008000000000002DE9F04184B0284B9B7A9BB9264B5A78264B1A6000230BE0254A1168981C224A105CC85423490968981D125CCA540133032BF1DD00240AE01F4D1B4BEF
:4000C0001A5D1F49284602F003FC284600F0AEFC0134092CF2DD164DD5F80080174F194C206801F0F5F8CDE90201174E306801F0EFF8CDE9000142461449384602F0E8FB23
:40010000384600F093FC306801F0E2F806460F462D68206801F0DCF8CDE9000132463B46284600F073F804B0BDE8F081B481FF1F8082FF1F7482FF1F7082FF1F4C82FF1F16
:40014000204000007C82FF1F6C82FF1F2440000038B541F6FF734FF480420121084600F0B1FE0D4C207000F0AFFB02460B4D287006230A2100F0C2FB094A92B246F24E41CF
:40018000287800F0CFFB2978207800F06FFB0121207800F023FB38BD4882FF1F7882FF1FB481FF1F08B562B600F03EFC00F090FC00F01CF800F04CF8FFF7CAFF064A074B2E
:4001C0001A60074A074B1A6000F05AFE00F074FE054800F063FEFEE76C82FF1F7482FF1F7C82FF1F7082FF1F8500000010B500F0E5FB012404E00021204600F0F1FB013434
:40020000042CF8DD022000F0D3FB10BDF0B58BB005460E46174600F07BFE0446384601F057F8CDE90201304601F052F8CDE900012A46064905A802F04BFB05A800F0F6FB6C
:40024000204600F069FE0BB0F0BD00BF3840000008B500F0FFFC00F0BFFC00F017FD084800F006FD00F0D4FC064800F0C3FC00F0DDFD00F075FD0122034B1A6008BD00BF30
:4002800071030000A90200000882FF1F08B5012000F002FD0F2000F055FB002000F0FCFC08BD00BF0000000030B587B000F014FD044600F021FD201A00F0E8FF1EA3D3E9AC
:4002C000002301F083F901F02FFB1D4D6C681D4B196801F087FC4FF07C5101F083FC05EB8403986001346C60032C1ED1E968A86801F070FB296901F06DFB134901F026FD96
:400300000446124901F00CFE58B1204600F0E0FF02460B460E4901A802F0DAFA01A800F085FB0022064B5A6001E0FFF7AFFF07B030BD00BFAFF300800000000060E3764136
:400340000882FF1FCC80FF1F000040409A99993E4840000008B5012000F0A4FC0F2000F0F1FA002000F09EFC0F2000F0EBFA08BD30B587B000F016FD044600F023FD201ABB
:4003800000F084FF1EA3D3E9002301F01FF901F0CBFA1D4D6C691D4B196801F023FC4FF07C5101F01FFC05EB8403986101346C61032C1ED1E969A86901F00CFB296A01F0AC
:4003C00009FB134901F0C2FC0446124901F0A8FD58B1204600F07CFF02460B460E4901A802F076FA01A800F021FB0022064B5A6101E0FFF7AFFF07B030BD00BFAFF30080F1
:400400000000000060E376410882FF1FCC80FF1F000040409A99993E50400000FEE700BFF0B40022174611E050F82760F3B226F0FF0608E001EB420511F812406D78A555FA
:400440000132013BDBB2002BF4D10137232FEBD9F0BC7047064B1B78DBB203F00701054A11701B09013213704422034B1A707047CF0100496E5800407658004008B50A469A
:40048000002101F0ACFD08BD38B53322264B1A801823264A13704A2102321180023213700222234B1A7008224FF040231A70032103F5007319701F4B1B78DBB21E490B7064
:4004C0001E4B1A8041F25122023B1A80002419250CE01B4B1B7803F0010343EA440404F003044FF4F07000F00BFD013D0DB1032CEFD115B90320FFF791FF124B4FF480723F
:400500001A8007221A7000220F490A704820023108701A700222033B1A700C4A137843F00303137038BD00BF80400040824000400043004008010049A146004022420040FE
:40054000254200400440004006400040A243004008B501F039FD08BD38B572B63D4A137843F00403137000240CE03B4D630019194A0011462A44084691882858FFF77EFF82
:400580000134E4B2072CF0D900240BE03249A3001819420088180622416B006BFFF7D8FF0134E4B2002CF1D02C494FF09040FFF737FF04212A48FFF761FF2A4A2A4B1A6070
:4005C0002A4A03F580531A60294A137843F0020313701032137843F002031370254C237843F040032370A2F58632513A137843F0100313700A2220492048FFF7A9FF0A22F7
:400600001F492048FFF7A4FF08221F491F48FFF79FFF08221E491F48FFF79AFF08221E491E48FFF795FF1E4A137843F0080313701C4D61232B70FFF727FF81232B70012202
:40064000194B1A70FFF706FF0E2221461748FFF77FFF38BDE846004058400000900000480076004004040484580601400400044403500140A0430040140900480051004076
:4006800020090048C05100402C0900481251004034090048225100403C09004832510040224300400048004004000840B043004008B501F05DFC03680C2B00D1FEE7FEE7E0
:4006C00008B5094B1A681044084BC31AB3F5006F02DC054B186005E001F04AFC0C2303604FF0FF32104608BDD080FF1F9882FF1F08B5104E104D16E029686B68AC6800223F
:4007000004E051F8040B43F8040B0432A242F8D1E868002203E0002143F8041B04328242F9D11035013E002EE6D101F027FCFFF739FDFEE7010000001842000008B5114ABB
:40074000114B1A60114A136843F40073136000230AE0032B03D80E4A52F8231000E00D490D4A42F8231001332F2BF2D90B4B1A780B4B1A70084A0B4B1A60FFF7EDFE00F0B7
:4007800013F808BD0004FA050CED00E014ED00E000000000B10600000080FF1FBC760040C080FF1F08ED00E00B4A7F2313708021517007E0DA0002F1804202F5F042013BFB
:4007C000DBB21370002BF5D1DB0003F1804303F5F04300221A707047D480FF1F172815D831B103010A495A5C42F020025A5405E0030107495A5C02F0DF025A540001044A8A
:40080000835C43F00103835400207047012070471070004017280BD80001064A835C03F0F103490001F00E011943815400207047012070471070004041F6FF73994201D1E4
:400840004FF4005141F6FF739A4201D14FF40052172808D8C00000F1804000F5EC408180C280002070470120704700BF172805D8034B03EB001041720020704701207047CC
:400880001070004017281BD810B4C00000F1804404F5EC44D201D2B201F07F01114321709DF804201201D2B203F00F03134363709DF8083003F00F03A3700020E07001E083
:4008C0000120704710BC704710B500F021FB0A4B5B78182B0BD9084A1478013B5370E30003F1804303F5F0431B78137000E0FF2400F012FB204610BDD480FF1F10F0800F91
:400900000CD111F4704F0BD1C00000F1804000F5F04001808270C37000207047012070470120704710F0800F08D1C00000F1804000F5F0408180C280002070470120704787
:4009400001BE704708B5034B1B7A00FB03F000F0D7FA08BDDC80FF1F70B504460E46074B1D681F2802D90020FFF7EAFF04F01F04103455F8240045F8246070BD08ED00E029
:4009800038B504460D46072902D90020FFF7D8FF1F2C02D90020FFF7D3FF04F01F0000F1604000F564406D01EDB2057038BD00BF014B1870704700BF756400400322074B5A
:4009C0001A700022703B1A707F2210331A70BF2210331A70FF2210331A707047976500400138032816D8DFE800F002070C11C943C9B2094B19707047C943C9B2074B19706D
:400A00007047C943C9B2064B19707047C943C9B2044B1970704700BF27650040376500404765004057650040704700BF38B505460078012404E000F073FA285D0134E4B2A6
:400A40000028F8D138BD00BF08B50D490320FFF783FF07210320FFF793FF0023094A13707121094A117020210132117006216D3A11704721103211705232137008BD00BFF7
:400A8000ED0A00003482FF1F8E64004010B500F03FFA04460B4A137843F0200313700132137843F0100313700822074B1A60074A137843F01003137000F064F8204600F084
:400AC0002BFA10BD9E64004000E100E09464004008B5054B5B7823B9FFF7B6FF0122024B5A70FFF7D3FF08BD3482FF1F1D4B1B78DBB213F01E0F05D01B4803F01E0201784B
:400B00000A43027003F0200303F0FF0233B3174B1978C9B2164B1B78DBB21648C154164B1B7813F0FF0F02D00121144B197010490B780133DBB20B700B78DBB2082B02D98D
:400B400000210B4B19700A4B1978C9B20C4B1B78DBB2994202D10121074B1970002AC5D1704700BF6F6400403482FF1F4E6400403782FF1F8482FF1F3882FF1F3982FF1F37
:400B80003682FF1F054A137843F0010313701032137843F001031370704700BFA2430040704700BF014B1B681864704708ED00E04001C0B2014B1870704700BF00E400E09B
:400BC0000122014B1A60704700E100E00122014B1A60704780E100E008B5FFF7F7FF0448FFF7E0FF0320FFF7E3FFFFF7E9FF08BDA10B000010B50446FFF7E8FF2046FFF757
:400C0000D1FF0320FFF7D4FFFFF7DAFF10BD00BF0122014B1A60704780E200E0704700BF014B1B685864704708ED00E04001C0B2014B1870704700BF01E400E00222014BFC
:400C40001A60704700E100E00222014B1A60704780E100E008B5FFF7F7FF0448FFF7E0FF0320FFF7E3FFFFF7E9FF08BD1D0C000010B50446FFF7E8FF2046FFF7D1FF0320D4
:400C8000FFF7D4FFFFF7DAFF10BD00BF0222014B1A60704780E200E0014B1870704700BF73640040014B1870704700BF72640040024A137843F0800313707047746500408C
:400CC000014B1870704700BF86650040014B1878704700BF66650040024B186820F07F40704700BF2465004008B50146014800F06DF908BD24650040024B186820F07F407A
:400D0000704700BF4465004008B50146014800F05DF908BD0465004008B501E0FFF7ECFFFFF7D4FF10F0080FF8D108BD08B56FF07F40FFF7D9FF6FF07F40FFF7E5FF00F0D5
:400D4000E7F8064A137843F01003137000F0E4F8FFF7E2FF0020FFF7B3FF08BD9665004008B5054B1B7823B9FFF7E0FF0122024B1A70FFF79DFF08BD3B82FF1F024A137831
:400D800043F080031370704776640040014B1870704700BF86640040014B1878704700BF66640040024B186820F07F40704700BF2464004008B50146014800F007F908BD7D
:400DC00024640040024B186820F07F40704700BF4464004008B50146014800F0F7F808BD0464004008B501E0FFF7ECFFFFF7D4FF10F0080FF8D108BD08B56FF07F40FFF7DA
:400E0000D9FF6FF07F40FFF7E5FF00F081F8064A137843F01003137000F07EF8FFF7E2FF0020FFF7B3FF08BD9664004008B5054B1B7823B9FFF7E0FF0122024B1A70FFF790
:400E40009DFF08BD3C82FF1F704700BF014B1B689864704708ED00E04001C0B2014B1870704700BF02E400E00422014B1A60704700E100E00422014B1A60704780E100E05D
:400E800008B5FFF7F7FF0448FFF7E0FF0720FFF7E3FFFFF7E9FF08BD490E000010B50446FFF7E8FF2046FFF7D1FF0720FFF7D4FFFFF7DAFF10BD00BF0422014B1A60704769
:400EC00080E200E0F0B583B016461F460B4D00242C700194009423460A4601462046FFF7D1FC3A4631462878FFF7A6FC02212878FFF790FC287803B0F0BD00BFF880FF1FE4
:400F00000230800803D000BF01380046FCD17047EFF3108072B6704780F31088704700BFFEB5494652465B460EB40746244909688A46244A12682448022100F051F80300A5
:400F400020480068C018204900F04AF8143883460121C9430C4601250026FFF7D9FF814651460B7823400B7058460130FFF7C8FF3800F04028400B78234003430B7058461F
:400F8000FFF7BEFF0136072EF2D9002001300138013001200B78234003430B7058460430FFF7AEFF4846FFF7B7FF00BF00BF00BF0EBC894692469B46FEBD00BFAFF30080EA
:400FC000EC80FF1FE880FF1F00C20100CBB20370C1F307234370C1F307418170704700BF002902D0B0FBF1F0704708B14FF0FF3000F008B80029F8D00246B0FBF1F000FB65
:4010000011217047704700BF81F0004102E000BF83F0004330B54FEA41044FEA430594EA050F08BF90EA020F1FBF54EA000C55EA020C7FEA645C7FEA655C00F0E2804FEA2D
:401040005454D4EB5555B8BF6D420CDD2C4480EA020281EA030382EA000083EA010180EA020281EA0303362D88BF30BD11F0004F4FEA01314FF4801C4CEA113102D040424A
:4010800061EB410113F0004F4FEA03334CEA133302D0524263EB430394EA050F00F0A780A4F10104D5F1200E0DDB02FA0EFC22FA05F2801841F1000103FA0EF2801843FA96
:4010C00005F359410EE0A5F120050EF1200E012A03FA0EFC28BF4CF0020C43FA05F3C01851EBE37101F0004507D54FF0000EDCF1000C7EEB00006EEB0101B1F5801F1BD359
:40110000B1F5001F0CD349085FEA30004FEA3C0C04F101044FEA445212F5800F80F09A80BCF1004F08BF5FEA500C50F1000041EB045141EA050130BD5FEA4C0C404141EB41
:40114000010111F4801FA4F10104E9D191F0000F04BF01460020B1FA81F308BF2033A3F10B03B3F120020CDA0C3208DD02F1140CC2F10C0201FA0CF021FA02F10CE002F159
:401180001402D8BFC2F1200C01FA02F120FA0CFCDCBF41EA0C019040E41AA2BF01EB0451294330BD6FEA04041F3C1CDA0C340EDC04F11404C4F1200220FA04F001FA02F339
:4011C00040EA030021FA04F345EA030130BDC4F10C04C4F1200220FA02F001FA04F340EA0300294630BD21FA04F0294630BD94F0000F83F4801306BF81F480110134013D27
:401200004EE77FEA645C18BF7FEA655C29D094EA050F08BF90EA020F05D054EA000C04BF1946104630BD91EA030F1EBF0021002030BD5FEA545C05D14000494128BF41F0A5
:40124000004130BD14F580043CBF01F5801130BD01F0004545F0FE4141F470014FF0000030BD7FEA645C1ABF194610467FEA655C1CBF0B46024650EA013406BF52EA0335CB
:4012800091EA030F41F4002130BD00BF90F0000F04BF0021704730B54FF4806404F132044FF000054FF0000150E700BF90F0000F04BF0021704730B54FF4806404F1320463
:4012C00010F0004548BF40424FF000013EE700BF42004FEAE2014FEA31014FEA02701FBF12F07F4393F07F4F81F06051704792F0000F14BF93F07F4F704730B54FF4607454
:4013000001F0004521F0004120E700BF50EA010208BF704730B54FF000050AE050EA010208BF704730B511F0004502D5404261EB41014FF4806404F132045FEA915C3FF409
:40134000DCAE4FF003025FEADC0C18BF03325FEADC0C18BF033202EBDC02C2F1200300FA03FC20FA02F001FA03FE40EA0E0021FA02F11444C1E600BF70B54FF0FF0C4CF4D0
:40138000E06C1CEA11541DBF1CEA135594EA0C0F95EA0C0F00F0DEF82C4481EA030621EA4C5123EA4C5350EA013518BF52EA033541F4801143F4801338D0A0FB02CE4FF0FE
:4013C0000005E1FB02E506F00042E0FB03E54FF00006E1FB03569CF0000F18BF4EF0010EA4F1FF04B6F5007F64F5407404D25FEA4E0E6D4146EB060642EAC62141EA5551D8
:401400004FEAC52040EA5E504FEACE2EB4F1FD0C88BFBCF5E06F1ED8BEF1004F08BF5FEA500E50F1000041EB045170BD06F0004646EA010140EA020081EA0301B4EB5C0433
:40144000C2BFD4EB0C0541EA045170BD41F480114FF0000E013C00F3AB8014F1360FDEBF002001F0004170BDC4F10004203C35DA0C341BDC04F11404C4F1200500FA05F366
:4014800020FA04F001FA05F240EA020001F0004221F0004110EBD37021FA04F642EB06015EEA430E08BF20EAD37070BDC4F10C04C4F1200500FA04F320FA05F001FA04F28A
:4014C00040EA020001F0004110EBD37041F100015EEA430E08BF20EAD37070BDC4F1200500FA05F24EEA020E20FA04F301FA05F243EA020321FA04F001F0004121FA04F2A9
:4015000020EA020000EBD3705EEA430E08BF20EAD37070BD94F0000F0FD101F00046400041EB010111F4801F08BF013CF7D041EA060195F0000F18BF704703F00046520031
:4015400043EB030313F4801F08BF013DF7D043EA0603704794EA0C0F0CEA135518BF95EA0C0F0CD050EA410618BF52EA4306D1D181EA030101F000414FF0000070BD50EACE
:40158000410606BF1046194652EA430619D094EA0C0F02D150EA013613D195EA0C0F05D152EA03361CBF104619460AD181EA030101F0004141F0FE4141F470014FF00000F5
:4015C00070BD41F0FE4141F4780170BD70B54FF0FF0C4CF4E06C1CEA11541DBF1CEA135594EA0C0F95EA0C0F00F0A7F8A4EB050481EA030E52EA03354FEA013100F0888016
:401600004FEA03334FF0805545EA131343EA12634FEA022245EA111545EA10654FEA00260EF000419D4208BF964244F1FD0404F5407402D25B084FEA3202B61A65EB03050F
:401640005B084FEA32024FF480104FF4002CB6EB020E75EB030E22BFB61A754640EA0C005B084FEA3202B6EB020E75EB030E22BFB61A754640EA5C005B084FEA3202B6EB3F
:40168000020E75EB030E22BFB61A754640EA9C005B084FEA3202B6EB020E75EB030E22BFB61A754640EADC0055EA060E18D04FEA051545EA16754FEA06164FEAC30343EA4A
:4016C00052734FEAC2025FEA1C1CC0D111F4801F0BD141EA00014FF000004FF0004CB6E711F4801F04BF01430020B4F1FD0C88BFBCF5E06F3FF6AFAEB5EB030C04BFB6EB9E
:40170000020C5FEA500C50F1000041EB045170BD0EF0004E4EEA113114EB5C04C2BFD4EB0C0541EA045170BD41F480114FF0000E013C90E645EA060E8DE60CEA135594EA8C
:401740000C0F08BF95EA0C0F3FF43BAF94EA0C0F0AD150EA01347FF434AF95EA0C0F7FF425AF104619462CE795EA0C0F06D152EA03353FF4FDAE1046194622E750EA4106EC
:4017800018BF52EA43067FF4C5AE50EA41047FF40DAF52EA43057FF4EBAE12E74FF0FF3C06E000BF4FF0010C02E000BF4FF0010C4DF804CD4FEA410C7FEA6C5C4FEA430C03
:4017C00018BF7FEA6C5C1BD001B050EA410C0CBF52EA430C91EA030F02BF90EA020F0020704710F1000F91EA030F58BF994208BF90422CBFD8176FEAE37040F00100704722
:401800004FEA410C7FEA6C5C02D150EA013C07D14FEA430C7FEA6C5CD6D152EA033CD3D05DF8040B704700BF8446104662468C461946634600E000BF01B5FFF7B7FF0028AC
:4018400048BF10F1000F01BD4DF808EDFFF7F4FF0CBF012000205DF808FB00BF4DF808EDFFF7EAFF34BF012000205DF808FB00BF4DF808EDFFF7E0FF94BF012000205DF8F1
:4018800008FB00BF4DF808EDFFF7CEFF94BF012000205DF808FB00BF4DF808EDFFF7C4FF34BF012000205DF808FB00BF4FEA410C7FEA6C5C02D150EA013C0AD14FEA430C1C
:4018C0007FEA6C5C02D152EA033C02D14FF0000070474FF0010070474FEA410212F5001215D211D56FF47873B3EB625212D94FEAC12343F0004343EA505311F0004F23FAEC
:4019000002F018BF404270474FF00000704750EA013005D111F0004008BF6FF0004070474FF00000704700BF4FEA4102B2F1E04324BFB3F5001CDCF1FE5C0DD901F0004C28
:401940004FEAC0024CEA5070B2F1004F40EB830008BF20F00100704711F0804F21D113F13872BCBF01F00040704741F480114FEA5252C2F11802C2F1200C10FA0CF320FA02
:4019800002F018BF40F001004FEAC1234FEAD32303FA0CFC40EA0C0023FA02F34FEA4303CCE77FEA625307D150EA01331EBF4FF0FE4040F44000704701F0004040F0FE40DA
:4019C00040F40000704700BF80F0004002E000BF81F0004142001FBF5FEA410392EA030F7FEA226C7FEA236C6AD04FEA1262D2EB1363C1BFD218414048404140B8BF5B42EE
:401A0000192B88BF704710F0004F40F4000020F07F4018BF404211F0004F41F4000121F07F4118BF494292EA030F3FD0A2F1010241FA03FC10EB0C00C3F1200301FA03F1C6
:401A400000F0004302D5494260EB4000B0F5000F13D3B0F1807F06D340084FEA310102F10102FE2A51D2B1F1004F40EBC25008BF20F0010040EA03007047490040EB0000E1
:401A800010F4000FA2F10102EDD1B0FA80FCACF1080CB2EB0C0200FA0CF0AABF00EBC25052421843BCBFD0401843704792F0000F81F4000106BF80F400000132013BB5E70A
:401AC0004FEA41037FEA226C18BF7FEA236C21D092EA030F04D092F0000F08BF0846704790EA010F1CBF0020704712F07F4F04D1400028BF40F00040704712F100723CBF54
:401B000000F50000704700F0004343F0FE4040F4000070477FEA226216BF08467FEA23630146420206BF5FEA412390EA010F40F4800070474FF0000304E000BF10F0004351
:401B400048BF40425FEA000C08BF704743F0964301464FF000001CE050EA010208BF70474FF000030AE000BF50EA010208BF704711F0004302D5404261EB41015FEA010C99
:401B800002BF84460146002043F0B64308BFA3F18053A3F50003BCFA8CF2083AA3EBC25310DB01FA02FC634400FA02FCC2F12002BCF1004F20FA02F243EB020008BF20F0BC
:401BC0000100704702F1200201FA02FCC2F1200250EA4C0021FA02F243EB020008BF20EADC7070474FF0FF0C1CEAD0521EBF1CEAD15392EA0C0F93EA0C0F6FD01A4480EA02
:401C0000010C400218BF5FEA41211ED04FF0006343EA501043EA5111A0FB01310CF00040B1F5000F3EBF490041EAD3715B0040EA010062F17F02FD2A1DD8B3F1004F40EB20
:401C4000C25008BF20F00100704790F0000F0CF0004C08BF49024CEA502040EA51207F3AC2BFD2F1FF0340EAC250704740F400004FF00003013A5DDC12F1190FDCBF00F007
:401C800000407047C2F10002410021FA02F1C2F1200200FA02FC5FEA310040F1000053EA4C0308BF20EADC70704792F0000F00F0004C02BF400010F4000F013AF9D040EA42
:401CC0000C0093F0000F01F0004C02BF490011F4000F013BF9D041EA0C018FE70CEAD15392EA0C0F18BF93EA0C0F0AD030F0004C18BF31F0004CD8D180EA010000F000404A
:401D0000704790F0000F17BF90F0004F084691F0000F91F0004F14D092EA0C0F01D142020FD193EA0C0F03D14B0218BF084608D180EA010000F0004040F0FE4040F40000A5
:401D4000704740F0FE4040F4400070474FF0FF0C1CEAD0521EBF1CEAD15392EA0C0F93EA0C0F69D0A2EB030280EA010C49024FEA402037D04FF0805343EA111143EA10138D
:401D80000CF000408B4238BF5B0042F17D024FF4000C8B4224BF5B1A40EA0C00B3EB510F24BFA3EB510340EA5C00B3EB910F24BFA3EB910340EA9C00B3EBD10F24BFA3EB2B
:401DC000D10340EADC001B0118BF5FEA1C1CE0D1FD2A3FF650AF8B4240EBC25008BF20F0010070470CF0004C4CEA50207F32C2BFD2F1FF0340EAC250704740F400004FF0A5
:401E00000003013A37E792F0000F00F0004C02BF400010F4000F013AF9D040EA0C0093F0000F01F0004C02BF490011F4000F013BF9D041EA0C0195E70CEAD15392EA0C0FD4
:401E400008D142027FF47DAF93EA0C0F7FF470AF084676E793EA0C0F04D14B023FF44CAF08466EE730F0004C18BF31F0004CCAD130F000427FF45CAF31F000437FF43CAF59
:401E80005FE700BF4FF0FF3C06E000BF4FF0010C02E000BF4FF0010C4DF804CD4FEA40024FEA41037FEA226C18BF7FEA236C11D001B052EA530C18BF90EA010F58BFB2EBAF
:401EC000030088BFC81738BF6FEAE17018BF40F0010070477FEA226C02D15FEA402C05D17FEA236CE4D15FEA412CE1D05DF8040B704700BF844608466146FFE70FB5FFF7B7
:401F0000C9FF002848BF10F1000F0FBD4DF808EDFFF7F4FF0CBF012000205DF808FB00BF4DF808EDFFF7EAFF34BF012000205DF808FB00BF4DF808EDFFF7E0FF94BF0120A1
:401F400000205DF808FB00BF4DF808EDFFF7D2FF94BF012000205DF808FB00BF4DF808EDFFF7C8FF34BF012000205DF808FB00BF014B1868704700BF5C81FF1F0E4B70B581
:401F80001E460E4C0025E41AA410A54204D056F8253098470135F8E702F02CF9084B094C1E46E41AA4100025A54204D056F8253098470135F8E770BD00420000004200003D
:401FC000004200000842000010B5431E0A44914204D011F8014B03F8014FF8E710BD03460244934202D003F8011BFAE770472DE9F04788B0149F002B1E461299B8BF03F12C
:40200000004327F02007B6BF1E4600232D23462F1446109DDDF84CA00B7003D0452F03D1013501E0032300E0022307AA049206AA03928DE828042246334600F001FD472F4C
:40204000804602D1119BDB0728D5462F08EB050911D198F80030302B0AD10022002320463146FFF7F1FB18B9C5F10105CAF80050DAF8003099440022002320463146FFF754
:40208000E3FB08B9302202E0CDF81C9006E0079B994503D9591C07911A70F8E74046079B159AC8EB0303136008B0BDE8F087034673B50029B8BF494203F8022BB4BF2D22C7
:4020C0002B22092942701ADD0DF1070216460A2591FBF5F405FB1411092C01F1300102F8011D2146F4DC3031541E02F8011CB4421A460AD214F8012B03F8012BF7E71A462C
:402100003024214402F8024B5970101A02B070BD2DE9F04F91B00C46DDF8688016461F46054601F025FA03681846099300F0F4FB00230E93D8F800300A90073323F0070313
:4021400003F1080294F81890D4F800B0C8F80020D3E90023C4E91223D4F84CA0D4F848802AF000430B934FF0FF32A74B40460B99FFF79CFBA0B94FF0FF32A34B40460B99CF
:40218000FFF776FB60B90022002340465146FFF765FB10B12D2384F843309C4B9C4A0AE04246534640465146FFF780FB002800F09281984B984AB9F1470F8CBF9046984692
:4021C000032323612BF0040323604FF0000A3DE0B9F1670F00F08A81B9F1470F00F0868123600193636800210DF13302059002920093424653460691CDF81090CDF80CE058
:402200002846FFF7F4FE09F0DF03472B804600F08481B9F1650F0D9900F28D8101394A4604F150000D91FFF742FF0E9A82468318012A236100F37C812268D10700F17881A2
:402240009DF8333013B12D2384F84330009733460FAA2146284600F09FF9013002D14FF0FF3096E123685A0501D4236965E0B9F1650F40F2D580D4E9120100220023FFF714
:40228000E3FA78B30123654A31462846B8470130E5D00E9B0D9A9A420BDB2368D80708D423689B0740F111814FF0000804F1190906E10A9B099A31462846B8470130CED0F1
:4022C0004FF0000804F11A090E9B013B9845E7DA01234A4631462846B8470130BFD008F10108F1E70D9B002B29DC01234B4A31462846B8470130B2D00D9B23B90E9B13B9A9
:402300002368D907CCD50A9B099A31462846B8470130A4D04FF0000904F11A0A0D9B5B42994509DA0123524631462846B847013095D009F10109F1E70E9B4246A7E00E9AE7
:40234000A36D9A42A8BF1A46002A914606DC4FF0000A29EAE97904F11A0B11E01346314642462846B8470130F1D178E701235A4631462846B84701303FF471AF0AF1010AB5
:40238000A36DC9EB03029245F0DB08EB03090D9A0E9B9A420FDB2368DA070CD40E9B0D9A9844C9EB08089B1A9845A8BF9846B8F1000F08DC0FE00A9B099A31462846B847D3
:4023C0000130EBD14BE743464A4631462846B84701303FF444AF4FF0000928EAE87804F11A0A09E00123524631462846B84701303FF435AF09F101090D9A0E9B9B1AC8EB0A
:4024000003039945EEDB4BE7FFFFEF7F94400000984000009C400000A0400000A44000000E9A012A01DCDB0738D50123424631462846B84701303FF412AF0A9B099A3146F2
:402440002846B84701303FF40AAFD4E9120100220023FFF7F9F920B14FF0000804F11A090EE00E9B08F10102013B19E001234A4631462846B84701303FF4F1AE08F1010840
:402480000E9B013B9845F1DB534604F1500231462846B84701307FF403AFE0E64246012331462846B8470130EED1D8E601234A4631462846B84701303FF4D1AE08F10108F3
:4024C000E3680F9A9B1A9845F0DBE0680F9B9842B8BF18465DE062680EA8531C0DF1340E4BF480637FF474AE062201E012B90122626075E6002106910DF133018DE80C0048
:40250000236005904246CDF81090CDF80CE0029153462846FFF76BFD80460D9BD81C02DB626893421DDDA9F102095FFA89F970E60133236184E6B9F1660F14D10029636825
:4025400007DD216113B92268D2071DD501330B4419E013B92268D00701D5023313E0012311E04FF067090D9B0E9A934205DB22682361D10708D5013305E0002BD4BFC3F116
:4025800002030123134423610D9B4FF0000AA36556E611B0BDE8F08F2DE9F04791461F460A698B6806469342B8BF1346C9F8003091F843200C46DDF8208012B10133C9F8C1
:4025C00000302368990642BFD9F800300233C9F80030256815F0060510D104F1190A07E00123524639463046C04701301AD00135E368D9F800209B1A9D42F1DB94F8433038
:402600002268003318BF012392060FD5E118302081F843005A1C94F845102244023382F8431003E04FF0FF30BDE8F08704F1430239463046C0470130F4D02268D9F800505F
:40264000E36802F00602042A08BF5D1B2269A3680CBF25EAE57500259342C4BF9B1AED184FF000091A344D4509D00123224639463046C0470130D5D009F10109F3E700204A
:40268000BDE8F0872DE9F04317460A7E85B06E2A984606460C460C9B01F1430E00F0AE8011D8632A22D009D8002A00F0BB80582A40F0CA8081F84520834955E0642A1ED08A
:4026C000692A1CD0C0E0732A00F0B08009D86F2A2ED0702A40F0B8800A6842F020020A603EE0752A24D0782A3AD0ADE01A6801F14205111D1960136884F84230A8E021688E
:402700001A6811F0800F02D0111D196008E011F0400F02F10401196002D0B2F9003000E01368002B3CDA2D225B4284F8432037E021681A6811F0800F02D0111D196007E03F
:4027400011F0400F02F10401196001D0138800E01368227E5C496F2A14BF0A2208221BE078225A4984F845202268186812F0800F00F104051D6003D1550601D5038800E02F
:402780000368D00744BF42F0200222601BB9226822F0200222601022002084F8430001E049490A226568002DA56008DB206820F0040020602BB9002D7DD175460CE0002B0B
:4027C00079D07546B3FBF2F002FB1033CB5C05F8013D03460028F5D1082A0BD12368DA0708D5236962689A42DEBF302305F8013C05F1FF35C5EB0E0323612EE008681A684A
:4028000010F0800F496903D0101D1860136808E010F0400F02F104001860136801D0198000E0196000232361754616E01A68111D1960156800216268284600F0A5FE08B1DD
:40284000401B6060636804E004F1420584F8422001232361002384F84330CDF800803B4603AA21463046FFF797FE013002D14FF0FF3026E023692A4639463046C04701303E
:40288000F5D023689B0710D5002504F1190907E001234A4639463046C0470130E7D00135E368039A9B1A9D42F2DBE068039B9842B8BF184605E00B7804F1420584F84230E0
:4028C0008AE705B0BDE8F083A6400000B74000000EB400B54FF402719CB0ADF814106FF00041049107914FF6FF711DAB02900690084853F8042BADF81610006802A90193CD
:4029000001F038FA029B00221A701CB05DF804EB03B070475C81FF1F034613F8012B002AFBD1181A013870472DE9F74F03690C6980469C427FDC013C01F114074FEA840ECD
:4029400000F1140606EB0E0357F82450019356F824300135B3FBF5F507EB0E09C5B34FF0000A3846B446D34650F8043B9AB205FB02A21B0C4FEA124A05FB03A392B2C2EB5E
:402980000B0BBCF800204FEA134A5A441FFA83FBDCF800308145CBEB134303EB224392B242EA03424FEA234B4CF8042BDCD256F80E306BB9019B043B9E421A4602D3C8F85C
:4029C000104005E01268043B002AF8D1013CF3E7404600F0F4FF00282BDB304601354FF0000E57F8042B036891B2C1EB0E0E120C99B27144C2EB134303EB214389B24FEA74
:402A0000234EB94541EA034340F8043BE9D256F8242006EB840362B9043B9E421A4602D3C8F8104005E01268043B002AF8D1013CF3E7284600E0002003B0BDE8F08F00000E
:402A40002DE9F04F456A95B08246219CCDE9022345B9102000F090FDCAF82400456085600560C560DAF82430196859B15A68012393404A608B60504600F0C9FDDAF8243097
:402A800000221A60039BA04A002BBDBF01232360039B0023BCBF23F000430393DDF80C80A8BF236028F000431B0D1B0593421DD142F20F73209A1360029B43B9934A944B93
:402AC000C8F31300002814BF1846104600E09048229B002B00F04685C37813B100F1080300E0C31C229A136000F03CBDDDE902450022002320462946FEF7A6FE074658B116
:402B0000209A01231360229B002B00F01E8581481860013800F026BD12AB019313AB009322462B46504600F0C5FFC8F30A56049056B1C5F3130343F07F51204641F4401144
:402B4000A6F2FF3611971DE0139B129E1E4406F23243202B0ADD029A06F21240C3F1400322FA00F008FA03F3184304E0C3F12000029B03FA00F0FEF789FB0123A1F1F8716E
:402B8000013E11930022644BFEF742FA58A3D3E90023FEF7F1FB58A3D3E90023FEF73AFA044630460D46FEF781FB55A3D3E90023FEF7E2FB02460B4620462946FEF72AFABE
:402BC00004460D46FEF788FE00228346002320462946FEF743FE58B15846FEF767FB02460B4620462946FEF72FFE08B90BF1FF3BBBF1160F0DD8DDE90223484901EBCB0135
:402C0000D1E90001FEF748FE30B10BF1FF3B002300E00123109300E01090129B9E1B731E079343BFC3F10008002307934FF00008BBF1000F06DB079BCDF82CB05B440793D2
:402C4000002705E00023CBEB0808CBF100070B931E9B092B28D8052BC4BF043B1E931E9BC8BF0025A3F10203D8BF0125032B20D8DFE803F0060E0204012302E0012308E0A7
:402C800000230A931F9B002B1DDD9946059321E000230A931F9B0BEB030909F10103012B0593B8BF012315E0012500231E930A9501E001230A934FF0FF390022CDF81490F2
:402CC00012231F9206E04FF001094B46CDF81490CDF87C90DAF8244000226260042101F114029A421CD86268490001326260F6E761436F63A787D23FB3C8608B288AC63F26
:402D0000FB799F501344D33F0000F07FC8400000D1400000A54000000000F83FE04000006168504600F03EFCDAF8243020601B680693059B0E2B00F25B81002D00F058811B
:402D4000DDE90234BBF1000FCDE90E3430DD9F4A0BF00F034FEA2B1502EBC303E80618CBCDE908340CD5DDE90E01994B05F00F05D3E90823FEF72AFC0324CDE9020100E04D
:402D80000224934E6DB1E90708D5DDE90801D6E90023FEF7F1FACDE9080101346D100836F0E7DDE90823DDE90201FEF70FFC20E0CBF1000505B3DDE90E01844B05F00F022D
:402DC00003EBC203D3E90023FEF7D6FACDE902017F4E2D110023022455B1EA0705D5D6E90023FEF7C9FA013401236D100836F3E71BB1CDE9020100E00224109BE3B1DDE986
:402E000002560022734B28463146FEF727FD98B1059B8BB1B9F1000F40F3E6800BF1FF330893314600226C4B2846FEF7A5FA0134CDE902014E4602E0059ECDF820B02046C8
:402E4000FEF734FADDE90223FEF796FA634B0022FEF7E0F8A1F1507304460C931D46D6B9DDE9020100225E4BFEF7D2F822460C9BCDE90201FEF710FD002840F03F820C9917
:402E8000224601F10043DDE90201FEF7E7FC002840F02B82A8E00A9A4C4B711E002A49D003EBC103D3E9002300204E49FEF78EFB22462B46FEF7ACF8CDE90C01069CDDE9D7
:402EC0000201FEF709FD0546FEF7F0F902460B46DDE90201FEF79CF8DDE90C23303504F8015BCDE90201FEF7B9FC002840F01D83DDE9022300203749FEF78AF8DDE90C23BC
:402F0000FEF7ACFC002840F0D180069BE31AB3426ADADDE90C0100222F4BFEF72DFA0022CDE90C01DDE902012B4BFEF725FACDE90201C4E703EBC1012246D1E900012B4609
:402F4000FEF71AFA069BCDE90C011D469C19DDE90201FEF7C1FC0646FEF7A8F902460B46DDE90201FEF754F8303605F8016BAC42CDE902014FF0000222D11A4BDDE90C01EA
:402F8000FEF748F802460B46DDE90201FEF784FC002840F08B80DDE90C2300201149FEF737F802460B46DDE90201FEF757FCD8B114F8013C621E302B40F0B7821446F7E717
:402FC000054BFEF7D9F9CDE90201C0E7E0400000B84100000000F03F0000244000001C40000014400000E03FDDE90E34CDE90234139B002B7CDBBBF10E0F79DCAB4B03EBB9
:40300000CB03D3E900671F9B002B14DA059B002B11DC40F06C810022A54B30463946FEF7ABF9DDE90223FEF72DFC059D2E46002840F05F8165E1069CDDE9028932463B46CE
:4030400040464946FEF7C2FAFEF746FC0546FEF72DF932463B46FEF78FF90B46024649464046FDF7D5FF05F1300E069B04F801EBC3EB040E059B73452DD102460B46FDF7A1
:40308000C9FF8046894602460B4630463946FEF7E5FB78B942464B4630463946FEF7D4FB002800F04482EB0704D440E2DDF820B000E01C4614F8012C631E392A07D1069A07
:4030C0009A42F6D1069930220BF1010B0A701A7801321A702BE20022764BFEF74DF90022002380468946FEF7AFFB0028A6D01EE20A9A002A2BD01E9A012A0ADC119A12B129
:4031000003F2334302E0129BC3F136033D46444613E0059B5D1EAF42BFBF0B9BEA1B9B180B93059BB6BF2F467D1B0025002BA7BF4446059BC3EB08040023079A01211A4422
:4031400050469844079200F001FB064602E03D4644460A9E5CB1079B002B08DDA342A8BF2346079AC3EB0808E41AD31A0793002F1DDD0A9BABB18DB131462A46504600F048
:403180007FFB049A01460646504600F0E8FA04990890504600F03BFA089B04937A1B06D000E03A460499504600F06AFB04900121504600F0CBFA0B9B05465BB31A460146D8
:4031C000504600F05DFB1E9B0546012B18DC029B83B9039BC3F3130373B9039B23F000473F0D3F054FB1079B08F1010801330793012702E0002700E0029F0B9B73B100E008
:4032000000272B6905EB8303186900F052FAC0F1200004E01E9B012BD9DD0B9F0120079B184410F01F0008D0C0F12003042B02DDC0F11C0002E006D018461C30079B804419
:40324000034404440793B8F1000F05DD42460499504600F063FB0490079B002B05DD29461A46504600F05AFB0546109B23B32946049800F0A4FB00281EDA00230A22049923
:40328000504600F0DBF90A9B0BF1FF3B0490002B00F05F81314600230A22504600F0CEF9B9F1000F06463FDC3BE000BFE04000000000144000002440059B002B2BDC1E9BDA
:4032C000022B28DDDDF81490B9F1000F11D129464B460522504600F0B1F901460546049800F06DFB00280CDC03E0354600E000252E461F9B069C6FEA030B09E03546DDF8C8
:4033000020B0069B069A5C1C312313700BF1010B05960026F7E00A9BDDF8149023B9069CB2E01E9B022BCFDC002C05DD31462246504600F0F3FA06469FB17168504600F073
:4033400031F90446326906F10C01023292000C30FEF73AFE01222146504600F0DFFA059000E00596029B069F03F00103079329460498FFF7D9FA3146044600F130080498E5
:4033800000F01DFB059A02902946504600F033FBC36802463BB901460A90049800F00FFB0A9A034600E00123114650460A9300F02EF90A9B53B91E9A42B9079A32B9B8F1A8
:4033C000390F2AD0029B002B1CDC1DE0029A002A04DB1BD11E9ACAB9079ABAB9002B13DD01220499504600F099FA2946049000F0E6FA002803DC07D118F0010F04D0B8F1B3
:40340000390F0AD004F131087C1C0CE0002B07F101040BDDB8F1390F03D139233B70013756E008F1010887F800806CE0069B2746E31A4B4504F8018C3BD000230A22049906
:40344000504600F0FBF8059B04909E424FF00A024FF000033146504604D100F0EFF80646059084E700F0EAF8002306460A220599504600F0E3F8059079E700230A220499E0
:40348000504600F0DBF8049029460498FFF74CFA069B00F1300804F8018BE31A4B45ECDB069B0596B9F1010FACBF4B4401331F46002601220499504600F030FA2946049010
:4034C00000F07DFA002803DC15D118F0010F12D03C4614F8013C621E392B09D1069B934204D10BF1010B3123069A02E01446F0E70133137007E03C4614F8013C621E302B57
:4035000001D11446F8E72946504600F080F8059B6BB12EB19E4203D03146504600F077F80599504600F073F801E0DDF820B00499504600F06CF80023209A23700BF101034D
:403540001360229B1BB11C6001E008480AE0069808E0B9F1000F3FF7E2AE1E9B022B7FF7DEAEB1E615B0BDE8F08F00BFA4400000004870476081FF1F024B0146186800F0A6
:4035800041BB00BF5C81FF1F10B5C9B202449042034605D01C7801308C42F8D1184610BD002010BD70B5456A04460E463DB91020FFF7E2FF6062456085600560C560656A57
:4035C000EB6843B1636ADB6853F8260078B1026843F8262017E021220421204600F0B8FA636AE860DB68002BECD1002070BD012101FA06F56A1D9200204600F0A9FA0028A9
:40360000F3D04660856000230361C36070BD70B5446A06460D463CB91020FFF7ADFF7062446084600460C4603DB1736A6A68DB6853F82210296043F8225070BD2DE9F04143
:4036400006460C460D691F4601F1140E0023DEF80000013381B202FB0171000C0F0C02FB007089B201EB00419D424FEA10474EF8041BECDCD7B1A3689D4212DB61683046B8
:403680000131FFF78FFF8046226904F10C01023292000C30FEF798FC21463046FFF7B7FF444604EB850301355F6125612046BDE8F081030C1B0413B90004102300E00023C0
:4036C00010F07F4F04BF0002083310F0704F04BF0001043310F0404F04BF80000233002803DB420003D5581C70471846704720207047036813F007020BD0D90722D49A071B
:403700004BBF5B089B08036003604CBF01200220704799B209B91B0C102213F0FF0F04BF1B0A0832190704BF1B090432990704BF9B080232D90702D45B0805D0013203601A
:4037400010467047002070472020704710B50C460121FFF727FF01224461026110BD2DE9F74F14460A69236988469A42BEBF0B46A0461C46D8F81070D4F81090D8F80830E8
:40378000D8F8041007EB09069E42C8BF0131FFF709FF00F114052B4605EB860C0022634502D243F8042BFAE704F1140208F1140102EB890301EB87070093009B0192934205
:4037C00057D9B2F800B0BBF1000F23D08946AE464FF0000859F8044BBEF800A0A3B20BFB03A34FEA144ADEF8004043444FEA14480BFB0A84F24604EB13449BB243EA0443F4
:403800004F454FEA14484AF8043B01D9D646E1E7CEF80480019B0432B3F802A0BAF1000F21D02C4689462B684FF00008B9F800E0B4F802B09BB20AFB0EBEA346F04443EA9A
:4038400008434BF8043B59F8043BB4F804E01B0C0AFB03E34F4503EB18434FEA134801D95C46E3E763600435A7E75CF8043D13B9013E002EF9DC066103B0BDE8F08F000027
:403880002DE9F843154612F0030206460F4607D0214C013A002354F82220FFF7CFFE0746AD1036D0746A3CB91020FFF765FE7062446084600460C460D6F82480D8F80840E9
:4038C0004CB940F271213046FFF740FF04460023C8F8080003604FF00008EB070AD5394622463046FFF73BFF814639463046FFF78EFE4F466D100CD0206808B10446ECE78D
:40390000224621463046FFF72AFF2060C0F80080F4E73846BDE8F883A84100002DE9F0470C460746914626694FEA621A56444968A368751CAB4202DA01315B00FAE7384666
:40394000FFF730FE002380461A4600F11401534503DA41F823200133F9E72AEAEA73206901EB830319F01F0904F1140101EB800E14D0C9F1200C002208689A4600FA09F07F
:40398000024343F8042B51F8042B8E4522FA0CF2F2D8CAF8042042B1B51C06E0043B51F8042B8E4543F8042FF9D8013D3846C8F810502146FFF72BFE4046BDE8F087036960
:4039C0000A6910B59B1A11D192001430143183180A4453F8044D52F8041D8C4202D007D3012010BD9842F4D3002010BD184610BD4FF0FF3010BD2DE9F8430C46074611464A
:403A000020461546FFF7DBFF061E08D131463846FFF7C8FD012303614661BDE8F883BCBF23462C4638466168BABF1D4601260026FFF7B8FD2B69C660266905F1140904F137
:403A4000140101EB860709EB830800F114054FF0000C51F8042B59F8044B93B29C44A3B2240CC3EB0C03C4EB124202EB23429BB24FEA224CC84543EA02428E4645F8042B5E
:403A8000E7D8BE450ED25EF8041B8AB26244131403EB114392B242EA03424FEA234C45F8042BEEE755F8043D0BB9013EFAE70661BDE8F8832DE9F3411C4601219046089EC3
:403AC000099DFFF76FFDC4F31302C4F30A5407460CB142F480120192B8F1000F19D002A840F8088DFFF705FE009B48B1019AC0F1200102FA01F10B43C2407B61019200E0D9
:403B00007B61019B002B14BF02210121BB61396107E001A8FFF7EDFD019B01217B613961203034B1A4F2334404443460C0F1350009E0A0F2324007EB810330601869FFF702
:403B4000B8FDC0EB41102860384602B0BDE8F08138B502FB01F4214600F054F8054618B122460021FEF73BFA284638BD38B50546002944D051F8043C0C1F002BB8BFE41853
:403B800000F017FA1E4A1368114613B96360146030E0A3420DD92268A018834201BF18685B681218226063600C6023E0A24203D813465A68002AF9D118681918A1420BD1C6
:403BC0002168014458188242196013D110685268014419605A600DE002D90C232B6009E021686018824201BF106852680918216062605C602846BDE8384000F0DBB938BD76
:403C00004482FF1F70B5CD1C25F0030508350C2D38BF0C25002D064601DBA94202D90C23336046E000F0C5F9234B1C681A462146A1B10B685B1B0ED40B2B03D90B60CC18EF
:403C4000CD501EE08C420BBF63684B681360636018BF0C4615E00C464968E9E7174C23681BB9304600F07AF920602946304600F075F9431C18D0C41C24F00304A0420DD18C
:403C80002560304600F096F904F10B00231D20F00700C31A0ED05A42E25070BD211A304600F05CF90130EBD10C233360304600F081F9002070BD00BF4482FF1F4082FF1F28
:403CC0002DE9F0478E6882469E420C46914698463ED88A8912F4906F3AD02568096902236F1A656905EB450595FBF3F57B1C43449D4238BF1D4653050FD52946FFF782FFF4
:403D0000064698B13A462169FEF75EF9A38923F4906343F08003A38113E02A4600F04BF9064670B921695046FFF720FF0C23CAF80030A3894FF0FF3043F04003A381BDE84D
:403D4000F08726613E44266046466561ED1BA560464528BF464649463246206800F00EF9A36800209B1BA36023681E442660BDE8F08700002DE9F04F9DB003938B898046D5
:403D80001C060D4616460DD50B695BB94021FFF739FF2860286118B90C23C8F80030CDE040236B610023099320238DF82930DFF89CB130238DF82A3037463C4614F8013BDF
:403DC0001BB9B7EB060910D003E0252BF9D02746F3E74B46324629464046FFF771FF013000F0A780099B4B4409933B78002B00F0A08000234FF0FF320493079305920693BE
:403E00008DF853301A930126052221784E48FFF7BBFB671C049B38B14B4A3C46801A06FA00F018430490EFE7D90644BF20228DF853201A0744BF2B228DF8532022782A2AC0
:403E400003D0079A00210A200BE0039A111D12680391002A10DA524243F00200079204900BE027463B780134303B092B03D800FB02320121F5E701B107923B782E2B1ED188
:403E80007B782A2B0AD1039B02371A1D1B680392002BB8BF4FF0FF33059310E0002319460593781C0A2407463A780130303A092A03D804FB01210123F5E703B1059103220A
:403EC00039782248FFF760FB40B14023CBEB000003FA00F0049B013718430490397806221B487E1C8DF82810FFF74EFB88B1194B33B9039B073323F007030833039314E084
:403F000003AB00932A46144B04A94046FEF700F907E003AB00932A460F4B04A94046FEF7B1FBB0F1FF3F824603D0099B5344099342E7AB895B0601D4099801E04FF0FF30B6
:403F40001DB0BDE8F08F00BFE0410000E6410000EA41000011210000C13C000038B5064C0023054608462360FCF7AAFB431C02D1236803B12B6038BD9082FF1F884210B529
:403F800001EB020301D8421E0BE09842FBD28118D21AD34204D013F8014D01F8014DF8E710BD994204D011F8014B02F8014FF8E710BD70477047F8B5074615460E4621B9A0
:403FC0001146BDE8F840FFF71DBE1AB9FFF7CEFD2846F8BD00F015F885420ED929463846FFF710FE044650B131462A46FDF7ECFF31463846FFF7BAFD01E03046F8BD204644
:40400000F8BD51F8040C0028BEBF091851F8043CC018043870470000000000000000000025782000092025693A2025302E33662025302E3366200A00256920252E3366204E
:40404000252E3366000000004C3A20256600000009523A2025660A00C84900401900405100403000F0510040100000000140001000140140000800400140000A004C014017
:404080000002005001402000605200400C09004806004300494E4600696E66004E414E006E616E0030003031323334353637383941424344454600303132333435363738DB
:4040C0003961626364656600496E66696E697479004E614E00504F534958002E00000000000000000000F03F000000000000244000000000000059400000000000408F40EF
:40410000000000000088C34000000000006AF8400000000080842E4100000000D01263410000000084D797410000000065CDCD41000000205FA00242000000E87648374264
:40414000000000A2941A6D42000040E59C30A2420000901EC4BCD64200003426F56B0C430080E03779C3414300A0D8855734764300C84E676DC1AB43003D9160E458E1435D
:40418000408CB5781DAF154450EFE2D6E41A4B4492D54D06CFF08044F64AE1C7022DB544B49DD9794378EA4405000000190000007D000000000000000080E03779C3414392
:4041C000176E05B5B5B89346F5F93FE9034F384D321D30F94877825A3CBF737FDD4F1575232D302B2000686C4C0065666745464700000000F8B500BFF8BC08BC9E46704729
:404200004D0000003D070000F8B500BFF8BC08BC9E4670472900000028420000C880FF1FD0000000000100000000000000C0A5439882FF1F7F800000010000000000E02EB6
:40424000C05D00001800000000366E01675000400C00000007000000FF00000000000000000000000000000000000000000000000000000000000000000000009240000089
:40428000000000000000000000000000000000000000000000000000000000000000000000000000000000000000000000000000000000000000000000000000FC80FF1F64
:4042C000DB400000E5410000E5410000E5410000E5410000E5410000E5410000E5410000E5410000E5410000FFFFFFFFFFFFFFFFFFFFFFFFFFFF000000000000000000005B
:40430000000000000000000000000000000000000000000000000000000000000000000000000000000000000000000000000000000000000000000000000000000000007D
:40434000000000000000000000000000000000000000000000000000000000000000000000000000000000000000000000000000000000000000000000000000000000003D
:4043800000000000000000000000000000000000000000000000000000000000000000000000000000000000000000000000000000000000000000000000000000000000FD
:4043C00000000000000000000000000000000000000000000000000000000000000000000000000000000000000000000000000000000000000000000000000000000000BD
:020000040003F7
:0200000480007A
:400000000752004005640040056500405E0001402B0101404E0201402E0301405504014037050140440601402D070140020B0140320C0140290D01403B0E01402F0F014061
:400040003F140140331501404B1601402917014001190140021B01400F4001400F4101400F4201400843014003440140064501400746014002470140024801400E490140F9
:400080000E4C0140084D01400A50014003510140004401440920110114081805190C800D840F860F8E718F3807FF17FF27FF37FF860F02020507070809010B120C180D06B8
:4000C0000E440F11104012101460160C1A02211F241C25182620270328042A482D102E012F04307C34023601371F3E104010410249FF4AFF4BFF4DA04F04501852875405FB
:40010000580459045A045B045C115D115F01604062C06440654066C068C06AC06CC06EC088188A03921F9C109E04A401A612A807AA08AC06AE11B21FC050C102C5D0C620B7
:40014000C701C83AC9FFCAFFCBFFCDAFCE0FCF04D018D804DA04DC01DD01DF01E040E2C0E440E540E6C0E8C0EAC0ECC0EEC000010140060409250F8210281380154017282A
:40018000180119011A041B401F04224029012A042B0139544001412045204D024F8055255604570159025A84682869546B2873808B04C049C29EC4E7CA0BCE0ED02CD2106E
:4001C000D60BE28800030101030E070311011306170C190C1A011B031C0323082802330F340338203B083E104002474049FF4A074BFF4C404D204EF04F05500858045904CA
:400200005A045B045F01604061A862406320811082058406851486018A068E029203930395099710991C9B02A110A30CA601AD0CAF11B11FB607BA80C012C105C5E0C6C025
:40024000C70BC81AC9FFCAFFCBFFCEF0CF44D00CD804D904DA04DB04DF01E6C0EA40EB020102020103140502074008020D100E010F041304171019401A031D2021022710B0
:40028000280229422E02310233143502371438083A013E013F0441104340452049404B014F045014560369806F018308C01FC2C8C444CA89CCE7CEC3D02CD2080006021880
:4002C0000414060807010A100B01100611011208140616081A0A1B0120012101301E340137013A023E103F4040524104420349FF4AFF4BFF4F0150185401580459045A04CE
:400300005B045D095F016040624064406540668068806A806C806E8080018401850288028C019B019D01A101B002B401B503B820B920BE01C012C104C203C9FFCAFFCBFFB5
:40034000CD83CE03CF01D018D804D904DA04DB04DD09DF01E040E240E440E540E680E880EA80EC80EE80010203140542071808010A100B24130319021A041D021F202240EA
:40038000270429022D023001320133103540371038203B243F04412A452A474048015A945B026E806F088708890190209202930599409B189D029F04A720A940AF20B3010B
:4003C000C0FEC20EC408CA81CC35CE46D0F7D208D60FEE2002030302150217011A011B0224022A0230013202330135023E0540124104420345EC4620480B49FF4AFF4BFF38
:400400004D834E034F01501852805403580459045A045B045C905D995E805F056040624064406540668068806A806C806E80810183028503860388018A028C038D0397011F
:4004400099019B02A201A401A602B103B203B603BA88BB02D804D904DC11DF01005407400D2010A01504172818121D081EA021012408272030283728384439023C02452A21
:4004800047404F0555205EA05F05740177407D0480408110940895029B089F40A102A401A528A804AE40C017C240C46CCC66CE8BD0F0D6F0DE40B702E02003040508091802
:4004C0000D7F113C1341156717181B632110251C27622D642F803180331F353837403A023B28580459045F01810484078506880189028A068C068E01900791069301950114
:40050000970699069A019B01A107A402A701A806AC04B107B207BB02D804D904DF010202031408100A401028120119041D011E40220325012716281029012E022F2232012E
:40054000333434103622370438283A033D023E403F149028931496429A029D049F16A028A220A702C007C20AC407CAD3CCE7CEF703020401050108010901100111011C015E
:4005800027023001310235013E013F014032410542064404450E47C0482149FF4AFF4BFF4C624DA04EF04F41500C56025713580459045A045B045F016640670269106A3094
:4005C0006B106D106E106F12930295019B02A301A701AD01B302B701B980BF04D418D604D904DB04DF0103340A430B401901200422222508270129042E412F20300231047F
:400600003208361037053802391440044306450846204A184B404D804E02500159015F0265806620678068026914703C720273148740C006C209CAD2CCE1CE07D007D20C16
:40064000D681D8B00A020D0110021201130127012E023002320133013F0440544101420349FF4AFF4BFF4F0150185280580459045A045B045C095D995F016040624064407D
:400680006540668068806A806C806E808C01B601BE40C054C101C202C9FFCAFFCBFFCD83CE03CF01D018D804DA04DB04DD09DF01E040E240E440E540E680E880EA80EC8065
:4006C000EE80001004800B801002181019081A801E01210423202908300238803B8040024104428144024680472048024C026C206EA06F807002710173408240838086500B
:400700008C20908097409A809C029D019F20AD10AE01C082C208C401CA02CC01CE08D0BBD218E610E80AEA010201220130013E0140544101420245EC4602480749FF4AFF14
:400740004BFF4D834E034F015018540358045A045B045D995E805F056040624064406540668068806A806C806E808607870389018B028D038E039701980199019A029B023E
:400780009C019E02AA01B004B503B603BAB2BB20C042C503C670C704C81DC9FFCAFFCBFFCD60D804D904DA04DC11DD01DF01E070E120E251E3C8E4D1E5DCE651E7DC004488
:4007C000050109200A011008168018441A011E802110302838443920404444024680472048204D044F415088512056805D045E805F217D2090809444A110A4A8B401C01574
:40080000C203C412CC06CE0ED0B5D210D6F0DE20E840E80AEA01102032023340362037083E208620870888208A028B01C410CCF0CE20E21000010710530457015801660486
:4008400083109F40A301A620C030D420D660D880E0203E1053105708871090019F40A620AA04AF04B001CE20D460E640EA80EE108001900196109F40AA20AF08E080EEC065
:4008800010101420C40C0420500153109830C001D4058B10940297209830B410E004EE029402983096109F405280530157085F208341868087088F209F40AA10D4E0D62060
:4008C000E6F0EA801040132014805A01610278107C209830B401C40ED602D802DE03E80278407C8098C0AB20AD02AE01DC01DE040003010108030A030B010E0110021101A3
:400900001A021B0100FF03C010010000243C0000300000000800036C6C006C0000000000B000008CBC003C0000000000003B3B00300000000803030003000000000F0F00C4
:400940000F00000000000000000000000000000000000000000000000000000000000000000000000000000000000000000000000000000000000000000000000000000068
:400980000000000000000000000000000000000000000000000000000000000000000000000000000000000000000000000000000000000000000000000000000000000037
:4009C00000000000000000000000000000000000000000000000000000000000000000000000000000000000000000000000000000000000000000000000000000000000F7
:400A000000000000000000000000000000000000000000000000000000000000000000000000000000000000000000000000000000000000000000000000000000000000B6
:400A40000000000000000000000000000000000000000000000000000000000000000000000000000000000000000000000000000000000000000000000000000000000076
:0200000490006A
:0400000000004005B7
:0200000490105A
:04000000BC90ACAF55
:0200000490303A
:02000000075B9C
:0200000490402A
:4000000000000000000000000000000000000000000000000000000000000000000000000000000000000000000000000000000000000000000000000000000000000000C0
:400040000000000000000000000000000000000000000000000000000000000000000000000000000000000000000000000000000000000000000000000000000000000080
:400080000000000000000000000000000000000000000000000000000000000000000000000000000000000000000000000000000000000000000000000000000000000040
:4000C0000000000000000000000000000000000000000000000000000000000000000000000000000000000000000000000000000000000000000000000000000000000000
:0200000490501A
:0C00000000012E16106900012E3317C4F9
:00000001FF