:400000000080002011000000A9100000A910000008B5044B1A6803F53F5302331A6001F063F800BFFA46004010B5054C237833B9044B13B10448AFF300800123237010BDA9
:400040002082FF1F0000000048690000084B10B51BB108490848AFF300800848036803B910BD074B002BFBD0BDE81040184700BF000000002482FF1F48690000C880FF1FEE
:40008000000000002DE9F04186B0544B00241C605C600521524A11609C600AE04F4D2544287B01F04FFC2B7BFF2B01D14C4B1C600134052CF2DD4A4B186803280FDD012292
:4000C000464B9A60C0F10E0004F082F9049006AA002342F8043D04A95A2000F007FC3F4B9B68002B76D13E4B1B6801333B4A13441A7B3C4B1A60002112E03B4B1D68384CF8
:400100002368CA18023235480244137B6B54374B1A6823680B44063303441B7B535401310329EADD2F4BD3F800802D4B1F68304E304C206803F03EFDCDE902012E4D286816
:4001400003F038FDCDE9000143463A462B49304605F02EF8304601F0E7FB2E6827684FF001052749304604F025FB08B94FF000054FF001042249384604F01CFB08B94FF0A8
:4001800000042C40E4B24FF001051E49304604F02FFB08B94FF00005EDB24FF001061949384604F025FB08B94FF00006F6B22C420DD066B10F4A10490A4B186800F0E4FBB5
:4001C00008E0064A1A4400211173013300E000230E2BF6DD06B0BDE8F08100BF3C82FF1FCC80FF1F5483FF1F4483FF1F4083FF1F1483FF1F5083FF1F3C83FF1F50690000B9
:4002000000401C4600401CC638B541F6FF734FF480420121084601F091FE0D4C207001F04FF802460B4D287006230F2101F062F8094A92B246F24B41287801F06FF829787E
:40024000207801F00FF80121207800F0C3FF38BD1083FF1F4883FF1F4882FF1F08B562B601F060FB01F0D4FB00F07CF900F06CFCFFF7CAFF064A074B1A60074A074B1A6075
:4002800001F03AFE01F054FE054801F043FEFEE73C83FF1F4483FF1F5083FF1F4083FF1F8500000010B50446082001F093F8204601F044F80C2001F08DF8204601F03EF8E0
:4002C000042001F087F8204601F038F8062001F081F8204601F032F8022001F07BF8204601F02CF8032001F075F8204601F026F8012001F06FF8204601F020F8092001F0D9
:4003000069F8204601F01AF810BD00BF10B50446092001F05FF8204601F010F8012001F059F8204601F00AF8032001F053F8204601F004F8022001F04DF8204600F0FEFF6F
:40034000062001F047F8204600F0F8FF042001F041F8204600F0F2FF0C2001F03BF8204600F0ECFF082001F035F8204600F0E6FF10BD00BF30B58DB04FF0884104F07CF815
:40038000114904F02DF9044604F03CFA054604F01FF80146204603F065FF03F00BFCCDE900012A46094902A804F002FF02A801F0BBFA002403E00320FFF7A8FF0134AC42AF
:4003C000F9DB0DB030BD00BF0000B4436C69000008B501F04BF800211E2001F0C3F9222001F01CFA002001F019FA01F0FBF908BD08B501F03FFA08BD704700BF704700BF48
:4004000008B501F033F800216A2001F0ABF9102001F004FA502001F001FA01F0E3F908BD2DE9F04F85B001F045FE824601F01AFF8146454C2668C6EB0A066568451B3046BC
:4004400003F0C6FF414904F017F88046284603F0BFFF3E4904F010F80746404603F0AAFB37A3D3E9002303F023FD03F0A7FE8346374B1860384603F09DFB31A3D3E9002381
:4004800003F016FD03F09AFE8046324B1860324B1F683946584604F0A3F883463946404604F09EF801900146584603F0DDFE0146384603F0E1FF4FF07C5103F0DDFF80466B
:4004C00003900199584603F0CDFE0146384603F0D3FF4FF07C5103F0CFFF07460290A3681E44A660E3681D44E560C4F800A0C4F804904FF001054146184B186804F050F941
:4005000008B14FF000054FF001043946144B186804F046F908B14FF000042C4314F0FF0F04D002AA03A9082000F0E0F9039A0B4B1A60029A0A4B1A6005B0BDE8F08F00BFDF
:400540009A9999999999A93FB082FF1F9C5008396883FF1F5C83FF1FD880FF1F7883FF1F7483FF1F10B501F0A7F9012404E00021204601F0B3F90134042CF8DD022001F005
:4005800095F901F0BFFD01F095FE01F01FFE01F047FE01F061FE064801F050FE054C201D00F020FC04F13C0000F01CFC10BD00BF21040000D880FF1F0268034B1A600A68BD
:4005C000024B1A60704700BF7083FF1F7C83FF1FFF2A12D808B5114638B9012001F07EF90021022001F07AF908BD032001F076F90021042001F072F908BD704708B50028FE
:400600002DD12F4B1B78DBB22E4A1278D2B2FF3B18BF0123FF2A18BF002343B10021012001F05CF90021022001F058F943E0244B1B78DBB2234A1278D2B2FF2B14BF0023F6
:400640000123FF2A08BF0023002B34D01921012001F044F91921022001F040F92BE01A4B1B78DBB2194A1278D2B2FF3B18BF0123FF2A18BF002343B10021032001F02EF95C
:400680000021042001F02AF915E00F4B1B78DBB20E4A1278D2B2FF2B14BF00230123FF2A08BF00233BB11921032001F017F91921042001F013F9642000F040FE08BD00BFDA
:4006C0002965004039650040496500405965004008B50020FFF792FF0120FFF78FFF08BD38B505460C46FFF789FFFF2C11D845B90021012001F0F2F82146022001F0EEF8FD
:4007000038BD0021032001F0E9F82146042001F0E5F838BD10B5044601460020FFF7E0FF21460120FFF7DCFF10BD00BF2DE9F843D1F80080006803F03DFA06460F4600243F
:400740004FF0804522462B4601F086FF404603F031FA8046894622462B4601F07DFF22462B463046394601F077FF06460F4622462B464046494601F06FFF04460D4622467F
:400780002B463046394603F0B7F802F0FDF8BDE8F88300BFF8B50F684C4E34682146006803F01EFF05464FF07C51706F03F064FE0146384603F060FE214603F011FF0646DB
:4007C0000146284603F050FD07463146284603F049FD06463946204603F04EFE05463C4B18603146204603F047FE0446394B1860394B1D60394B18603949284603F0F0FEB6
:40080000384903F039FE03F0D5F901F0D5FE03F0D5FC05463249204603F0E2FE314903F02BFE03F0C7F901F0C7FE03F0C7FC04462C49284603F0DCFF28B92B49284603F05F
:40084000B9FF10B902E0274D00E0274D2549204603F0CEFF28B92449204603F0ABFF10B902E0204C00E0204C0021284603F0C0FF40B1284603F0C6FF024600210846FFF700
:40088000A7FE09E02946002003F0ECFC03F0BAFF01460020FFF724FF0021204603F0A8FF40B1204603F0AEFF024600210120FFF78FFEF8BD2146002003F0D4FC03F0A2FF5C
:4008C00001460120FFF70CFFF8BD00BFD880FF1F6483FF1F5883FF1F7083FF1F7C83FF1FF01D903E00007F4300007FC310B586B00B68019313680093002314E0191DC3F189
:40090000030206AC224412F8144C0DF1180E714401F8104C03F1080112F8184C72460A4402F8104C0133022BE8DDFF238DF808308DF809308DF80A308DF80B0055238DF82C
:4009400014308DF815308DF816300F2102A801F0A5F806B010BD00BF10B584B00446094800F0E2FF0023009301930293CDF80B3001F0A8F818B9E1B2684601F08FF804B0E1
:4009800010BD00BF8469000030B583B00B460C68019415680095D02800F2D380DFE800F0696E717D888E93999CD1D1D1D1D1D1D1D1D1D1D1D1D1D1D1D1D1D1D1D1D1D1D1DC
:4009C000D1D1D1D1D1D1D1D1D1D1D1D1D1D1D1D1D1D1A1A7ADD1D1D1D1D1D1D1D1D1D1D1D1D1D1D1D1D1D1D1D1D1D1D1D1D1D1D1D1D1D1D1D1D1D1D1D1D1B1D1D1D1D1D155
:400A0000D1D1D1D1B7BABDC0D1D1D1D1D1D1D1D1D1D1D1D1D1D1D1D1D1D1D1D1D1D1D1D1D1D1D1D1D1D1D1D1D1D1D1D1D1D1D1D1D1D1D1D1D1D1D1D1D1D1D1D1D1D1D1D1CC
:400A4000D1D1D1D1D1D1D1D1D1D1D1D1D1D1D1D1D1D1D1D1D1D1D1D1D1D1D1D1D1D1D1D1D1D1D1D1D1D1D1D1C3C6C9CCD1D1D1D1CF0011461846FFF759FE62E0FFF772FDF4
:400A80005FE0284603F0BEFE0546204603F0BAFE2A460021FFF79CFD53E0284603F0B2FE0546204603F0AEFE2946FFF719FE48E0204603F0A7FEFFF7A1FD42E019460020F3
:400AC000FFF77AFD3DE0204603F09CFEFFF722FE37E0FFF7FDFD34E0694601A8FFF75AFE2FE0204603F08EFEFFF7DCFB29E0204603F088FEFFF70AFC23E02046FFF73AFC68
:400B00001FE0204603F07EFEFFF726FF19E000F01BF816E000F0C6F813E000F03DF810E000F0B4F80DE0FFF753FC0AE0FFF760FC07E0FFF761FC04E0FFF760FC01E0FFF7CD
:400B40005FFC03B030BD00BF08B501F0BFF801F07FF801F0D7F80C4801F0C6F801F094F80A4801F083F801F023FA01F03DFA084801F02CFA01F096F901F02EF901F08CFA44
:400B80000122044B1A6008BD190D0000B10B0000110D0000C082FF1F08B5012001F0B8F80F2000F0E1FB002001F0B2F808BD00BF70B501F0CDF8044601F0DAF8201A02F057
:400BC000D7FF29A3D3E9002303F072F903F0F6FA294D6C68294B196803F04EFC4FF07C5103F04AFC05EB8403986001346C60032C34D12C46E968A86803F036FB296903F052
:400C000033FB1F4903F0ECFC054660611D4B1860A2691D4B1A600023636002F0CBFF4FF0010613A3D3E9002303F094FA08B94FF000064FF001040021284603F0D9FD08B909
:400C40004FF00004344014F0FF0F03D0012001F03DFC05E0002001F039FC01E0FFF79CFF0122054BDA6170BD0000000060E376419A9999999999C93FC082FF1F5481FF1F29
:400C8000000040406C83FF1F6083FF1F08B5012001F044F80F2000F067FB002001F03EF808BD00BF70B5194B1B685BB3174D0023EB612B62FFF770FFFFF7E8FF052000F07E
:400CC0003DFB4FF001064FF07C51686903F072FD08B94FF000064FF001044FF07C510B4B986903F067FD08B94FF00004344314F0FF0F09D0054901F1180214316520FFF7B3
:400D0000F5FD70BDFFF720FF70BD00BFC082FF1F08B5FFF7C7FF08BD70B501F07FF8044601F08CF8201A02F023FF27A3D3E9002303F0BEF803F042FA274D6C6A274B19689D
:400D400003F09AFB4FF07C5103F096FB05EB8403986201346C62032C2FD12C46E96AA86A03F082FA296B03F07FFA1D4903F038FC0546A0610023636202F01CFF4FF001065E
:400D800013A3D3E9002303F0E5F908B94FF000064FF001040021284603F02AFD08B94FF00004344014F0FF0F03D0012001F088FB05E0002001F084FB01E0FFF767FF012213
:400DC000054B1A6270BD00BF0000000060E376419A9999999999C93FC082FF1F5481FF1F00004040002343628362C36203634363704700BFFEE700BFF0B40022174611E0C3
:400E000050F82760F3B226F0FF0608E001EB420511F812406D78A5550132013BDBB2002BF4D10137282FEBD9F0BC7047064B1B78DBB203F00701054A11701B090132137016
:400E40004422034B1A707047CF0100496E5800407658004008B50A46002103F030FD08BD38B52F22284B1A801823284A1370332102321180023213704A210232118002328E
:400E800013700222224B1A7008224FF040231A70032103F5007319701E4B1B78DBB21E490B701E4B1A8041F25122023B1A80002419250CE01A4B1B7803F0010343EA440489
:400EC00004F003044FF4F07001F006FB013D0DB1032CEFD115B90320FFF78CFF114B4FF480721A8007221A7000220F490A704820023108701A700222033B1A700B4A1378CA
:400F000043F00703137038BD80400040824000400043004008010049A146004022420040254200400440004006400040A243004008B503F0B9FC08BD38B572B6444A13782C
:400F400043F00403137000240CE0424D630019194A0011462A44084691882858FFF77AFF0134E4B2072CF0D900240BE03948A20011194B0003441A8F596B186BFFF7D8FFA9
:400F80000134E4B2012CF1D933494FF09040FFF733FF04213148FFF75DFF314B314A136002F5D062136003F1404302F5C07213602D4902F59062116002F5F062136002F530
:400FC00066522B32137843F0020313701032137843F002031370254C237843F040032370A2F58632513A137843F01003137008221F492048FFF79CFF0A221F491F48FFF74F
:4010000097FF08221E491F48FFF792FF0A221E491E48FFF78DFF08221D491E48FFF788FF1D4A137843F0080313701C4D61232B70FFF716FF81232B700122194B1A70FFF721
:40104000F5FE0E2221461748FFF772FF38BD00BFE84600408C690000A400004800760040040404C45802014004040444A0430040001100480251004008110048C0510040EB
:4010800014110048125100401C110048205100402811004832510040224300400048004004000840B043004008B503F0D1FB03680C2B00D1FEE7FEE708B5094B1A6810446A
:4010C000084BC31AB3F5905F02DC054B186005E003F0BEFB0C2303604FF0FF32104608BD5881FF1F4884FF1F08B5104E104D16E029686B68AC68002204E051F8040B43F875
:40110000040B0432A242F8D1E868002203E0002143F8041B04328242F9D11035013E002EE6D103F09BFBFFF799F8FEE701000000886B000008B5114A114B1A60114A136813
:4011400043F40073136000230AE0032B03D80E4A52F8231000E00D490D4A42F8231001332F2BF2D90B4B1A780B4B1A70084A0B4B1A60FFF7E1FE00F013F808BD0004FA0592
:401180000CED00E014ED00E000000000A91000000080FF1FBC760040C080FF1F08ED00E00B4A7F2313708021517007E0DA0002F1804202F5F042013BDBB21370002BF5D1C1
:4011C000DB0003F1804303F5F04300221A7070475C81FF1F172815D831B103010A495A5C42F020025A5405E0030107495A5C02F0DF025A540001044A835C43F0010383540B
:4012000000207047012070471070004017280BD80001064A835C03F0F103490001F00E011943815400207047012070471070004041F6FF73994201D14FF4005141F6FF738A
:401240009A4201D14FF40052172808D8C00000F1804000F5EC408180C280002070470120704700BF172805D8034B03EB0010417200207047012070471070004017281BD80D
:4012800010B4C00000F1804404F5EC44D201D2B201F07F01114321709DF804201201D2B203F00F03134363709DF8083003F00F03A3700020E07001E00120704710BC704710
:4012C00010B501F011F90A4B5B78182B0BD9084A1478013B5370E30003F1804303F5F0431B78137000E0FF2401F002F9204610BD5C81FF1F10F0800F0CD111F4704F0BD1FE
:40130000C00000F1804000F5F04001808270C37000207047012070470120704710F0800F08D1C00000F1804000F5F0408180C280002070470120704701BE704710B5044675
:4013400005E0084B186801F0C7F8A4F50044B4F5004FF6D8034B586800FB04F001F0BCF810BD00BF6481FF1F08B5034B1B7A00FB03F001F0B1F808BD6481FF1F70B50446D2
:401380000E46074B1D681F2802D90020FFF7D4FF04F01F04103455F8240045F8246070BD08ED00E038B504460D46072902D90020FFF7C2FF1F2C02D90020FFF7BDFF04F010
:4013C0001F0000F1604000F564406D01EDB2057038BD00BF014B1870704700BF7565004010B50222114B1A7081220E3B1A70082202331A70042211331A70002401331C7004
:401400004FF400420A4B1A6007210F20FFF7CAFF08490F20FFF7B2FF1022074B1A70074B1C70074B1C70074B1C7010BDD649004080E100E0951400008083FF1F8683FF1F15
:401440008883FF1F8483FF1F08B501F04DF8064A137843F0040313701032137843F00403137001F045F808BDA543004008B5074B1B7823B9FFF7B4FF0122044B1A70FFF7D5
:40148000E3FF4FF40042024B1A6008BDF482FF1F00E100E038B5A54B1C78A54B1B7813F0400F00F03A81E4B214F0010F00F01D819F4B1B78453B052B00F21481DFE813F03D
:4014C00006008200120112010600DF0004F0DF0504F00A04082C42D1954B1B78DBB2452B35D1944B1B7813F0FF0F10D0924B1B681B78DBB2914A137004228C4B1A700122D7
:401500008F4B1A7046228A4B1A702C46EDE08D4B1B7813F0020F0DD08B4A137843F00A0313706022824B1A704FF40042874B1A602C46DAE0864A137843F010031370102296
:40154000844B1A700422023B1A702C46CDE00022764B1A704A22764B1A702C46C5E00A2C2BD1794A137843F0A0031370754B1B7813F0020F14D06E4B1B7813F0080F01D070
:40158000092300E00A23704A11780B4313706022674B1A704FF400426C4B1A602C46A4E06B4A137843F0100313701022694B1A700422023B1A702C4697E00020FFF7BCFE55
:4015C0002C4692E014F0020F36D15D4B1A78D2B2584B1B78DBB29A4210D2594A1378DBB255490968CB5CDBB254490B7004214F4B197013780133DBB2137076E0514B1B787A
:4016000013F0020F0CD0504A137843F00A0313706022474B1A704FF400424C4B1A6064E04B4A137843F0100313701022494B1A700422023B1A7058E0424B1B7813F0020FC8
:401640000CD0414A137843F09A0313706022384B1A704FF400423D4B1A6046E03C4A137843F01003137010223A4B1A700422023B1A70354A137843F09003137035E0364AF9
:401680001378DBB2354908682C490978C9B2C15413780133DBB213701278D2B2304B1B78DBB29A4203D21022204B1A701DE0254B1B7813F0020F0CD0234A137843F0090327
:4016C000137060221A4B1A704FF400421F4B1A600BE01F4A137843F0100313700022134B1A7002E00020FFF727FE14F0200F1CD00F4B1B7813F0080F01D0012300E002239E
:40170000114A11780B431370114A137803F0EF0313701022064B1A7038BD054B1B7813F0100F02D11022024B1A7038BDD74900408083FF1F8783FF1F8C83FF1FD849004097
:401740008483FF1F8583FF1F8683FF1F80E100E0D6490040D94900408883FF1F9083FF1F9483FF1F1A4B1B78DBB2102B29D1194B1B7813F0080F26D14FF40042164B1A6044
:401780004000C0B229B140F001004922104B1A7002E045220E4B1A70104B1870012201331A700F4B1B7813F0010FFAD00C4B1B7803F00A030A2B08D11022054B1A7003203B
:4017C000704702207047012070470020704700BF8083FF1FD949004080E100E0D8490040D74900400A4B1B7813F0040F0ED01023074A13700421023A1170064A1370064B7D
:401800001B7813F0210FFAD00020704702207047D94900408083FF1FD7490040114B1B7813F0040F1BD0104B18700422013B1A7046220E4B1A700E4B1B7813F0010FFAD0B2
:401840000B4B1B7813F0020F04D16022074B1A70002070476022054B1A70032070470220704700BFD9490040D84900408083FF1FD74900404FF40042084B1A60084B18781A
:40188000C0B2084B1B7813F0400F01D040F004004FF40042044B1A60704700BF80E100E08683FF1F8083FF1F00E100E0014B1870704700BF746400400322074B1A700022E6
:4018C000703B1A707F2210331A70BF2210331A70FF2210331A707047996500400138032816D8DFE800F002070C11C943C9B2094B19707047C943C9B2074B19707047C94345
:40190000C9B2064B19707047C943C9B2044B1970704700BF29650040396500404965004059650040704700BF38B505460078012404E000F0E1FD285D0134E4B20028F8D1F0
:4019400038BD00BF38B504460309054DE85C00F0D3FD04F00F04285D00F0CEFD38BD00BFD069000008B511490520FFF707FD01210520FFF717FD00220D4B1A7071220D4B70
:401980001A70202204331A700B490620FFF7F6FC07210620FFF706FD0622084B1A70472210331A700222B03B1A7008BD0D1B0000F582FF1F80640040A51B000027650040EB
:4019C00010B500F091FD04460D4A137843F0200313700432137843F010031370094A2023136009490B7843F010030B70402307490B60136000F002F9204600F079FD10BD61
:401A00009064004000E100E09764004080E200E008B5054B5B7823B9FFF7A4FF0122024B5A70FFF7CDFF08BDF582FF1F164BD9799B79DBB2994205D25A1E914214BF002243
:401A4000012204E0CA1A952A14BF00220122002AECD1994207D10D4B1B7813F0040F02D10B4B18707047952900D90021094B58540131054BD971054B1B7813F0020F02D054
:401A80004022054B1A607047F582FF1F67640040476400409883FF1F00E200E0084B5B7833B97047305DFFF7C1FF0134E4B203E070B50D4606460024AC42F3D370BD00BF7B
:401AC000F582FF1F40220E4B1A600E4B9A79D2B2DB799A420FD00B4A9279D2B2934204D9084A9079181AC0B206E0064A9079181A6A38C0B200E000204022034B1A60704722
:401B000080E100E0F582FF1F00E100E01D4B1B78DBB213F01E0F05D01B4803F01E0201780A43027003F0200303F0FF0233B3174B1978C9B2164B1B78DBB21648C154164B20
:401B40001B7813F0FF0F02D00121144B197010490B780133DBB20B700B78DBB20E2B02D900210B4B19700A4B1978C9B20C4B1B78DBB2994202D10121074B1970002AC5D166
:401B8000704700BF64640040F582FF1F4B640040F882FF1F3084FF1FF982FF1FFA82FF1FF782FF1F13E0104B1B78DBB2952B02D900220D4B1A700C4A1378DBB20B49CB5CF9
:401BC000DBB20B490B7013780133DBB21370064B1B78DBB2074A1278934204D0064B1B7813F0040FDFD07047FB82FF1F9883FF1F47640040FC82FF1F67640040054A137825
:401C000043F0020313701032137843F002031370704700BFA2430040704700BF014B1B681864704708ED00E04001C0B2014B1870704700BF00E400E00122014B1A60704718
:401C400000E100E00122014B1A60704780E100E008B5FFF7F7FF0448FFF7E0FF0420FFF7E3FFFFF7E9FF08BD191C000010B50446FFF7E8FF2046FFF7D1FF0420FFF7D4FF1F
:401C8000FFF7DAFF10BD00BF0122014B1A60704780E200E0704700BF014B1B685864704708ED00E04001C0B2014B1870704700BF01E400E00222014B1A60704700E100E036
:401CC0000222014B1A60704780E100E008B5FFF7F7FF0448FFF7E0FF0320FFF7E3FFFFF7E9FF08BD951C000010B50446FFF7E8FF2046FFF7D1FF0320FFF7D4FFFFF7DAFF16
:401D000010BD00BF0222014B1A60704780E200E0014B1870704700BF73640040014B1870704700BF72640040024A137843F080031370704778640040014B1870704700BF46
:401D400089640040014B1878704700BF69640040024B186820F07F40704700BF2864004008B50146014800F01DFC08BD28640040024B186820F07F40704700BF4864004014
:401D800008B50146014800F00DFC08BD0864004008B501E0FFF7ECFFFFF7D4FF10F0080FF8D108BD08B56FF07F40FFF7D9FF6FF07F40FFF7E5FF00F097FB064A137843F04E
:401DC0001003137000F094FBFFF7E2FF0020FFF7B3FF08BD9964004008B5054B1B7823B9FFF7E0FF0122024B1A70FFF79DFF08BDFE82FF1F024A137843F080031370704726
:401E000071640040014B1870704700BF82640040014B1878704700BF62640040024B186820F07F40704700BF2064004008B50146014800F0B7FB08BD20640040024B1868AA
:401E400020F07F40704700BF4064004008B50146014800F0A7FB08BD0064004008B501E0FFF7ECFFFFF7D4FF10F0080FF8D108BD08B56FF07F40FFF7D9FF6FF07F40FFF747
:401E8000E5FF00F031FB064A137843F01003137000F02EFBFFF7E2FF0020FFF7B3FF08BD9264004008B5054B1B7823B9FFF7E0FF0122024B1A70FFF79DFF08BDFF82FF1F8A
:401EC000704700BF014B1B68D864704708ED00E04001C0B2014B1870704700BF03E400E00822014B1A60704700E100E00822014B1A60704780E100E008B5FFF7F7FF0448CC
:401F0000FFF7E0FF0120FFF7E3FFFFF7E9FF08BDC11E000010B50446FFF7E8FF2046FFF7D1FF0120FFF7D4FFFFF7DAFF10BD00BF0822014B1A60704780E200E0F0B583B033
:401F400016461F460B4D00242C700194009423460A4601462046FFF791F93A4631462878FFF766F902212878FFF750F9287803B0F0BD00BF8081FF1F704700BF014B1B6868
:401F80001865704708ED00E04001C0B2014B1870704700BF04E400E01022014B1A60704700E100E01022014B1A60704780E100E008B5FFF7F7FF0448FFF7E0FF0520FFF70E
:401FC000E3FFFFF7E9FF08BD791F000010B50446FFF7E8FF2046FFF7D1FF0520FFF7D4FFFFF7DAFF10BD00BF1022014B1A60704780E200E0024A137843F0800313707047AB
:4020000075640040014B1870704700BF86640040014B1878704700BF6664004008B50146014800F0BFFA08BD24640040024B186820F07F40704700BF4464004008B5014636
:40204000014800F0AFFA08BD0464004008B501E0FFF7ECFFFFF7DCFF10F0080FF8D108BD10B50B4C2046FFF7D9FF2046FFF7E6FF00F03AFA074A137843F01003137000F0D2
:4020800037FAFFF7E3FF0120FFF7BCFF10BD00BFFF9E24009664004008B5054B1B7823B9FFF7DEFF0122024B1A70FFF7A3FF08BD0083FF1F08B500F029F9A0F5004000B221
:4020C00008BD00BF024B187800F00F00704700BF69650040014B1870704700BF8965004008B50F20FFF7F6FFFFF7ECFF00F0FCF9034A137843F01003137000F0F9F908BD9F
:402100009965004008B500F053F94FF4004000F0F7F8044B1B7813B90122024B1A70FFF7DFFF08BD0183FF1F024A137843F080031370704777650040014B1870704700BFF6
:4021400086650040014B1878704700BF6665004008B50146014800F025FA08BD24650040024B186820F07F40704700BF4465004008B50146014800F015FA08BD0465004038
:4021800008B501E0FFF7ECFFFFF7DCFF10F0080FF8D108BD10B50B4C2046FFF7D9FF2046FFF7E6FF00F0A0F9074A137843F01003137000F09DF9FFF7E3FF0020FFF7BCFF3C
:4021C00010BD00BF7F4F12009665004008B5054B1B7823B9FFF7DEFF0122024B1A70FFF7A3FF08BD0283FF1F704700BF014B1B689864704708ED00E04001C0B2014B18709B
:40220000704700BF02E400E00422014B1A60704700E100E00422014B1A60704780E100E008B5FFF7F7FF0448FFF7E0FF0220FFF7E3FFFFF7E9FF08BDE921000010B504469A
:40224000FFF7E8FF2046FFF7D1FF0220FFF7D4FFFFF7DAFF10BD00BF0422014B1A60704780E200E008B500F0CBF8A0F5004000B208BD00BF024B187800F00F00704700BF5D
:4022800063640040014B1870704700BF8364004008B50F20FFF7F6FFFFF7ECFF00F024F9034A137843F01003137000F021F908BD9364004008B500F0F5F84FF4004000F02D
:4022C00099F8044B1B7813B90122024B1A70FFF7DFFF08BD0383FF1F024A137843F080031370704778650040014B1870704700BF8F640040014B1878704700BF6F640040A2
:40230000014B1880704700BF1C680040024B1B78024B188880B270470E6400409C680040014B188880B270479C680040014B1880704700BF5C680040014B1880704700BF02
:402340007C68004008B501E0FFF7EAFFFFF7D2FF10F0400FF8D108BD08B5134B1A7802F0F8021A701A7802F0FC021A70FFF7EAFF4FF40040FFF7DAFF4FF40040FFF7C0FF80
:402380000020FFF7B1FFFFF7B5FF4FF40040FFF7D3FF00F0A9F8054A137843F01003137000F0A6F808BD00BF786500409F64004008B5054B1B7823B9FFF7CEFF0122024B0D
:4023C0001A70FFF789FF08BD0483FF1F024A137843F08003137070477A640040014B1870704700BF8A640040014B1878704700BF6A640040014B1880704700BF1868004094
:40240000024B1B78024B188880B270470C64004098680040014B188880B2704798680040014B1880704700BF58680040014B1880704700BF7868004008B501E0FFF7EAFF90
:40244000FFF7D2FF10F0400FF8D108BD08B5134B1A7802F0F8021A701A7802F0FC021A70FFF7EAFF4FF40040FFF7DAFF4FF40040FFF7C0FF0020FFF7B1FFFFF7B5FF4FF46D
:402480000040FFF7D3FF00F02FF8054A137843F01003137000F02CF808BD00BF7A6400409A64004008B5054B1B7823B9FFF7CEFF0122024B1A70FFF789FF08BD0583FF1F44
:4024C000014B1870704700BF76650040014B1870704700BF746500400230800803D000BF01380046FCD17047EFF3108072B6704780F31088704700BFFEB5494652465B4678
:402500000EB40746244909688A46244A12682448022101F0D7F9030020480068C018204901F0D0F9143883460121C9430C4601250026FFF7D9FF814651460B7823400B706A
:4025400058460130FFF7C8FF3800F04028400B78234003430B705846FFF7BEFF0136072EF2D9002001300138013001200B78234003430B7058460430FFF7AEFF4846FFF754
:40258000B7FF00BF00BF00BF0EBC894692469B46FEBD00BFAFF300807481FF1F7081FF1F00C20100CBB20370C1F307234370C1F307418170704700BFF8B5C1F30A56A6F218
:4025C000FF35132D0A460B460446864611DC002D2EDB0F461F4929410A4225D04FF400232B413B4423EA01030026194634462046F8BD332D05DDB5F5806F1FD01146204622
:40260000F8BDA6F213464FF0FF3121FA06F63042F4D00122C5F1330502FA05F52D1828BF9B1825EA0606E0E70028D7D11146E6E7013501F0004307D00026D6E702460B46BF
:4026400001F05AF90446D2E743F07F5343F440130026CAE7FFFF0F002DE9F04F8DB006460F4614461D4600F0EBF9DFF81093CDE9000199F90080B8F1FF3F46D022462B46C3
:402680002046294601F084FD834600283DD132463B463046394601F07BFD8246002874D1304639460022002301F040FD002833D0002200232046294601F038FD8346B8B143
:4026C000A94A012300200021CDF828A0CDE90467CDE90645CDE9080103920293B8F1000F6CD0A24B0022104619460DB0BDE8F08F2046294600F0CEFF38B10022002320462B
:40270000294601F01DFD00286AD1DDE90023104619460DB0BDE8F08FDDE9000100F0BAFF804600287DD0DDE900014FF0000A4FF0000B52465B4601F0F9FC0028E5D03046C6
:40274000394600F0A7FF0028DFD02046294600F0A1FF0028D9D099F90030834804210022022BCDE90467CDE90645CDE908AB039002910A9204D002A800F092FF002847D1AA
:4027800002F066F82223036042E0002200232046294601F0CBFC0028B7D0744B724800220121B8F1020FCDF828B0CDE90467CDE90645CDE9082303900291A8D002A800F02F
:4027C0006FFF00287ED00A9B43B302F041F8DDE908230A990160104619460DB0BDE8F08F614999F900300122CDF828B0CDE90467CDE9064503910292002B68D05C49002006
:40280000022BCDE9080166D102F022F8212303600A9B1BB102F01CF80A9B0360DDE9082375E73046394600F035FF00283FF47BAF2046294600F02EFF00283FF474AFDDE922
:4028400000231046194601F0A3FC00286FD1464B99F90080039303230A90CDE90467CDE906450293B8F1000F3BD1DFF814B14FF0604A0022002330463946CDE908AB01F0FB
:402880005FFC00283FF477AF00223A4B2046294601F0E4F904460D4600F00AFF02460B462046294601F042FC00283DD1324B4FF06042CDE9082399F90080B8F1020F7FF40B
:4028C0005AAF5DE701F0C4FF212303607BE700230024CDE9083402A800F0E2FE002897D192E7DFF8A0B04FF0000A0022002330463946CDE908AB01F023FC0028DDD00022F8
:402900001C4B2046294601F0A9F904460D4600F0CFFE02460B462046294601F007FC18B9134B0022CDE9082399F90080C5E70E4A99F900900123CDF82880CDE90467CDE93A
:40294000064503920293B9F1000FC0D0002200231046194601F0ACFAB9F1020FCDE908013FF452AFB7E700BFE46900000000F03F0000F0FF0000E03FFFFFEFC78181FF1F9F
:40298000FFFFEF470000F07F2DE9F04F8BB004460D4600F0B7FD284B064693F900A00F46BAF1FF3F12D022462B462046294601F0EFFB834650B94FF000084FF00009204648
:4029C000294642464B4601F0BBFB20B9304639460BB0BDE8F08F194A0123CDF820B0CDE90445CDE9024501920093BAF1000F15D042464B464046494601F05AFABAF1020FEF
:402A0000CDE906010CD101F023FF21230360089B63B9DDE906010BB0BDE8F08FCDE90689684600F03DFE0028F1D1ECE701F010FF089B0360EDE700BF8181FF1FE8690000F2
:402A40002DE9F04F23F0004858EA020993B03CD0714C21F00046A64283460D460CDD06F1404606F5801656EA0B0038D183466B49584613B0BDE8F08F9A4696462BD0A04509
:402A8000EDDC654CA04578D0002D0F468146CDE9002376DB0024BEF1000F27D15E4B984500F08B805D4B984552D0BAF1804F00F0C9835B4B9A4519D1002D17DB48463946A9
:402AC00013B0BDE8F04F00F01DBDCB465846534913B0BDE8F08F0028C1D1B045D1DD514813B0BDE8F04F00F0DDBD00244846394600F0CCFDBBF1000F1CD0ED0F013D54EA03
:402B0000050370D0484B984540F3948003F10473984540F30D84454B9E4270DDBAF1000F70DD3BA3D3E900231046194601F096F883469DE726B1394B25F040429A42DCD10D
:402B4000BAF1000FC0F2B783002D08DB83468FE7BAF1000FC0F25E84CB46394688E706F1404606F5801656EA040300F08384012CECD101F1004183467AE7BEF1000F83D06F
:402B80006DE72B4B98452CDCA3F15473984581DD4FEA2853A3F2FF33142B40F35384C3F134032EFA03F202FA03F39E457FF472AF02F00102C2F102046DE706F1404303F527
:402BC000801353EA0B0300F03A83184B9E4240F36783BAF1000F15DBDDE900349B46214646E7022457E74A4648463B46394600F081FE02460B4601F05BF9834638E7BAF16F
:402C0000000F8EDB4FF0000B594631E7AFF300809C7500883CE4377E0000F07F0000F03F0000E03FEC6900000000E041FFFFEF3FFFFF3F43B6F5801F4FF0000205DAD04B27
:402C400001F00CF80E466FF03402DFF844E33315C6F31306A3F2FF3346F07F57764503EB020A47F4401740F3C983C64B00229E4240F304840023CDE90823CDE90C23C24B01
:402C80000022CDE906230AF1010AA7F5801700263946DDE90623CDE90A0100F02BFEDDE9062380468946DDE90A0100F025FE02460B460020B44901F0FBF80A46014613467A
:402CC000CDE90E1202464946404600F0C7FF8C4683467B1043F0005303F5002399190020CDE904BC06460F464FF0000B6146584632463B46CDE910BCCDE9020100F0AEFFDB
:402D000002460B464046494600F0F4FDDDE90623804689463046394600F0ECFD02460B46DDE90A0100F0E6FDDDE9022300F096FF02460B464046494600F0DCFDDDE90E2397
:402D400000F08CFFDDE90478CDE906013A4643463846414600F082FF77A3D3E9002306460F4600F07BFF76A3D3E9002300F0C4FD32463B4600F072FF73A3D3E9002300F06E
:402D8000BBFD32463B4600F069FF71A3D3E9002300F0B2FD32463B4600F060FF6EA3D3E9002300F0A9FD32463B4600F057FF6CA3D3E9002300F0A0FD3246804689463B4662
:402DC0003046394600F04AFF02460B464046494600F044FFDDE9022306460F46DDE9040100F08AFDDDE9062300F038FF32463B4600F082FDDDE902678046894632463B46BB
:402E00003046394600F02AFF0022604BCDE90A0100F072FD42464B4600F06EFDDDE910BC0F46DDE902015A463B46CDE90EBC5E4600F014FF0022CDE90201544B30463946BC
:402E400000F058FDDDE90A2300F054FD02460B464046494600F04EFDDDE9042300F0FEFE324680468946DDE906013B4600F0F6FE02460B464046494600F03EFD804689466A
:402E800002460B46DDE9020100F036FDDDE90EBC35A3D3E900235846CDE906BC5E460F4600F0DCFEDDE90223CDE904013046394600F020FD02460B464046494600F01AFD10
:402EC0002BA3D3E9002300F0C9FE2BA3D3E90023804689463046394600F0C0FE02460B464046494600F008FDDDE90C2300F004FD80465046894600F04BFE06460F46DDE935
:402F0000040142464B4600F0F7FCDDE9082300F0F3FC32463B4600F0EFFCDDE906BC324658463B46DA468B4600F0E4FCDDE9082330E000BFAFF30080EF4E454A287ECA3FAF
:402F400065DBC9934A86CD3F01411DA96074D13F4D268F515555D53FFFAB6FDBB66DDB3F033333333333E33F000000E009C7EE3FFD033ADC09C7EE3FF5015B14E02F3EBE27
:402F80000000404379B60B000000F03F000008408E98030000F0AEFCDDE9042300F0AAFC02460B464046494600F0A4FC80468946DDE90012013C54EA050314BFD64CD74C51
:402FC0000023CDE904340B461446CDE9023400230293DDE9024508462B461146224600F089FC52465B4600F039FEDDE9002306460F464046494600F031FE02460B46304644
:40300000394600F079FC06460F4622462B4650465946CDE9006700F021FE0B460246804689463046394600F067FCBD4B064699420D460C4640F30E8101F13F4303F5E00376
:40304000034340F0F081A0A3D3E90023DDE9000100F052FC424682468B464B463046294600F048FC02460B465046594601F086F8002840F0D8812F463B154FF48012A3F25A
:40308000FE3342FA03F32344C3F30A52A54EA2F2FF321641C3F3130B0020C2F1140523EA06014BF4801B02460B46002C4BFA05FB40464946B8BFCBF1000B00F01BFC0246CB
:4030C0000B4680468946DDE9000100F015FC4FEA0B5A00247EA3D3E9002320460D4600F0BDFD424606460F464B462046294600F001FC02460B46DDE9000100F0FBFB76A322
:40310000D3E9002300F0AAFD75A3D3E90023804689462046294600F0A1FD02460B464046494600F0E9FB8046894602460B463046394600F0E1FB32463B4604460D4600F033
:40314000D9FB02460B464046494600F0D3FB2246804689462B462046294600F07FFD62A3D3E9002306460F4600F078FD60A3D3E9002300F0BFFB32463B4600F06FFD5EA394
:40318000D3E9002300F0B8FB32463B4600F066FD5BA3D3E9002300F0ADFB32463B4600F05DFD59A3D3E9002300F0A6FB32463B4600F054FD02460B462046294600F09AFBF0
:4031C00006460F4602460B462046294600F046FD0022CDE900014FF080433046394600F089FB02460B46DDE9000100F061FE424606460F464B462046294600F02FFD424667
:403200004B4600F079FB02460B463046394600F071FB22462B4600F06DFB02460B4600203D4900F067FB8A44BAF5801FC0F237815146DDE9042300F011FD834618E4F346E7
:40324000354915E44A4648463B46394600F006FD83460DE4344B21F000479F4240F30181324B0B4403430CD142464B4600F042FB02460B46DDE9000100F06CFF00283FF454
:40328000FBAE23A3D3E90023DDE9040100F0E6FC1FA3D3E9002300F0E1FC8346FFF7E8BBBAF1000FBFF6AEACDDE900349B4604F10041FFF7DDBB02460B460020164900F0E3
:4032C000F7FD41E4AFF30080FE822B654715973C00000000432EE63FEF39FAFE422EE63F396CA80C615C20BED0A4BE726937663EF16BD2C541BDBB3E2CDE25AF6A56113F55
:4033000093BDBE166CC1663F3E5555555555C53F59F3F8C21F6EA5010000F03F0000F0BFFFFF8F40FFFF0F00FFCB904000346F3F6F4B9E427FF763AC6E4B9E423FF7EEABB8
:4033400000226C4B00F0D6FA5BA3D3E9002306460F4600F083FC5AA3D3E90023804689463046394600F07AFC002282468B46624B3046394600F072FC02460B4652A1D1E9FA
:40338000000100F0B7FA32463B4600F067FC02460B460020594900F0ADFA3246CDE902013B463046394600F059FC02460B46DDE9020100F053FC46A3D3E9002300F04EFC9E
:4033C00002460B465046594600F094FA02460B4606460F464046494600F08EFA42464B46002082468B4600F085FA02460B463046394600F07FFA80468946D9E500220023EA
:40340000CDE90823CDE90C233A4B00220026CDE906233DE44A463B460020364900F048FD8346FFF725BB2CA3D3E90023DDE9040100F014FC28A3D3E9002300F00FFC83468E
:40344000FFF716BBBEF1000F7FF44FABC3F1140348FA03F202FA03F3984524D07446FFF721BB264B9F423FF707AEDDE902349A469B462EE602460B46FFF7B9BB204B4FF44A
:403480008026CDE9062316A3D3E90023CDE9082315A3D3E90023CDE90C23FFF7F9BB5A4600F096F9C5E602F00102C2F10204FFF7F9BA00BFAFF30080000000604715F73FF4
:4034C00044DF5DF80BAE543E555555555555D53FFE822B654715F73F9C7500883CE4377E0000004003B8E23F06D0CF43EBFD4C3EFEFFEF3F0000F03F0000D03F0000E03FE9
:403500000000F83F2DE9F0415F4E0C46B6460E407645054600F0988000290B46024674DD5FEA215E7FD0AEF2FF3EC3F313031EF0010F43F4801363D100273E4603EBD271EB
:403540000B444FEA6E0E520016204FF4001174189C424FEAD2754FEA420202DC1B1B66180F44013805EB43034FEA5101EFD1844620244FF0004109E020D003EBD275013C8C
:403580004FEA51012B444FEA420220D09E4201EB0C05F1DA002D05EB010C09DBB0469542A3EB060300D9013B4646521B0844E4E7BCF1000FF2DB06F10108F0E7954217D83F
:4035C000002D05EB010C49DB98460023ECE7134310D140087B1003F17F5303F50013FA0703EB0E57394648BF40F00040BDE8F0813346C2E7411C35D000F001031844E8E7CB
:403600005B0003EBD273520096E721F000460643ECD079BB8E46D30AAEF1150E5205002BF9D0DD0221D4002100E001465B00DC0201F10100F9D5C0F1200422FA04F423437A
:40364000C1EB0E0E82406EE702460B4600F006FB2A46234600F050F9BDE8F081BCF1000FA9DAB1E701372046B4E720244FF0FF310020E2E702460B4600F03CF902460B46B6
:4036800000F016FCB2E700BF0000F07F21F00041704700BF41F0004101F58010C00F70470020704700200149704700BF0000F87FF0B5C1F30A5EAEF2FF36132E83B002467B
:4036C0000B460C464FEAD17507462EDC002E49DB3D49314103EA010010432BD049080B4053EA02070CD04FF48023132E24EA010143FA06F444EA01040CBF4FF000470027F4
:40370000324B214603EBC505D5E90045384622462B4600F0F1F8CDE90001DDE9000122462B4600F0E7F803B0F0BD332E06DDB6F5806F45D01046194603B0F0BDAEF2134E2B
:403740004FF0FF3121FA0EF10842F3D049080842D6D04FF0804320EA010143FA0EFE4EEA0107CDE721F0004101431946E4D0C3F3130343EA000CCCF1000343EA0C0C134B16
:40378000640C4FEA1C3C0CF4002C03EBC5036404D3E900674CEA040132463B4600F0ACF8CDE90001DDE9000132463B4600F0A2F8024621F0004141EAC57310461946BBE77E
:4037C00000F09AF8B8E700BFFFFF0F00F0690000F8B5C1F30A5604460D460B46174606BB21F00043034325D000222F4B00F036FA2E4A044697420D460B462ADBC1F30A5613
:40380000363E40F2FE723E44964228DC002E12DD23F0FF4323F4E00343EA065520462946F8BD40F2FF729642EBD102460B4600F063F8F8BDF8BD16F1350F1DDA4CF250330E
:403840009F420CDC14A1D1E9000122462B4600F031F811A3D3E9002300F000FAF8BD22460FA1D1E900012B4600F024F80CA3D3E9002300F0F3F9F8BD23F0FF4323F4E0032D
:40388000363643EA0655204629460022084B00F0E5F9F8BDAFF3008059F3F8C21F6EA5019C7500883CE4377E00005043B03CFFFF0000903C03F0004321F0004242EA03017C
:4038C000704700BF002902D0B0FBF1F0704708B14FF0FF3000F008B80029F8D00246B0FBF1F000FB11217047704700BF81F0004102E000BF83F0004330B54FEA41044FEA79
:40390000430594EA050F08BF90EA020F1FBF54EA000C55EA020C7FEA645C7FEA655C00F0E2804FEA5454D4EB5555B8BF6D420CDD2C4480EA020281EA030382EA000083EAC0
:40394000010180EA020281EA0303362D88BF30BD11F0004F4FEA01314FF4801C4CEA113102D0404261EB410113F0004F4FEA03334CEA133302D0524263EB430394EA050F12
:4039800000F0A780A4F10104D5F1200E0DDB02FA0EFC22FA05F2801841F1000103FA0EF2801843FA05F359410EE0A5F120050EF1200E012A03FA0EFC28BF4CF0020C43FABC
:4039C00005F3C01851EBE37101F0004507D54FF0000EDCF1000C7EEB00006EEB0101B1F5801F1BD3B1F5001F0CD349085FEA30004FEA3C0C04F101044FEA445212F5800FEA
:403A000080F09A80BCF1004F08BF5FEA500C50F1000041EB045141EA050130BD5FEA4C0C404141EB010111F4801FA4F10104E9D191F0000F04BF01460020B1FA81F308BFCC
:403A40002033A3F10B03B3F120020CDA0C3208DD02F1140CC2F10C0201FA0CF021FA02F10CE002F11402D8BFC2F1200C01FA02F120FA0CFCDCBF41EA0C019040E41AA2BF2C
:403A800001EB0451294330BD6FEA04041F3C1CDA0C340EDC04F11404C4F1200220FA04F001FA02F340EA030021FA04F345EA030130BDC4F10C04C4F1200220FA02F001FAAC
:403AC00004F340EA0300294630BD21FA04F0294630BD94F0000F83F4801306BF81F480110134013D4EE77FEA645C18BF7FEA655C29D094EA050F08BF90EA020F05D054EAB1
:403B0000000C04BF1946104630BD91EA030F1EBF0021002030BD5FEA545C05D14000494128BF41F0004130BD14F580043CBF01F5801130BD01F0004545F0FE4141F4700151
:403B40004FF0000030BD7FEA645C1ABF194610467FEA655C1CBF0B46024650EA013406BF52EA033591EA030F41F4002130BD00BF90F0000F04BF0021704730B54FF4806457
:403B800004F132044FF000054FF0000150E700BF90F0000F04BF0021704730B54FF4806404F1320410F0004548BF40424FF000013EE700BF42004FEAE2014FEA31014FEA0B
:403BC00002701FBF12F07F4393F07F4F81F06051704792F0000F14BF93F07F4F704730B54FF4607401F0004521F0004120E700BF50EA010208BF704730B54FF000050AE003
:403C000050EA010208BF704730B511F0004502D5404261EB41014FF4806404F132045FEA915C3FF4DCAE4FF003025FEADC0C18BF03325FEADC0C18BF033202EBDC02C2F136
:403C4000200300FA03FC20FA02F001FA03FE40EA0E0021FA02F11444C1E600BF70B54FF0FF0C4CF4E06C1CEA11541DBF1CEA135594EA0C0F95EA0C0F00F0DEF82C4481EA98
:403C8000030621EA4C5123EA4C5350EA013518BF52EA033541F4801143F4801338D0A0FB02CE4FF00005E1FB02E506F00042E0FB03E54FF00006E1FB03569CF0000F18BFFB
:403CC0004EF0010EA4F1FF04B6F5007F64F5407404D25FEA4E0E6D4146EB060642EAC62141EA55514FEAC52040EA5E504FEACE2EB4F1FD0C88BFBCF5E06F1ED8BEF1004F4A
:403D000008BF5FEA500E50F1000041EB045170BD06F0004646EA010140EA020081EA0301B4EB5C04C2BFD4EB0C0541EA045170BD41F480114FF0000E013C00F3AB8014F1AD
:403D4000360FDEBF002001F0004170BDC4F10004203C35DA0C341BDC04F11404C4F1200500FA05F320FA04F001FA05F240EA020001F0004221F0004110EBD37021FA04F6AA
:403D800042EB06015EEA430E08BF20EAD37070BDC4F10C04C4F1200500FA04F320FA05F001FA04F240EA020001F0004110EBD37041F100015EEA430E08BF20EAD37070BDBC
:403DC000C4F1200500FA05F24EEA020E20FA04F301FA05F243EA020321FA04F001F0004121FA04F220EA020000EBD3705EEA430E08BF20EAD37070BD94F0000F0FD101F0B1
:403E00000046400041EB010111F4801F08BF013CF7D041EA060195F0000F18BF704703F00046520043EB030313F4801F08BF013DF7D043EA0603704794EA0C0F0CEA1355F6
:403E400018BF95EA0C0F0CD050EA410618BF52EA4306D1D181EA030101F000414FF0000070BD50EA410606BF1046194652EA430619D094EA0C0F02D150EA013613D195EAC0
:403E80000C0F05D152EA03361CBF104619460AD181EA030101F0004141F0FE4141F470014FF0000070BD41F0FE4141F4780170BD70B54FF0FF0C4CF4E06C1CEA11541DBF81
:403EC0001CEA135594EA0C0F95EA0C0F00F0A7F8A4EB050481EA030E52EA03354FEA013100F088804FEA03334FF0805545EA131343EA12634FEA022245EA111545EA1065D7
:403F00004FEA00260EF000419D4208BF964244F1FD0404F5407402D25B084FEA3202B61A65EB03055B084FEA32024FF480104FF4002CB6EB020E75EB030E22BFB61A754616
:403F400040EA0C005B084FEA3202B6EB020E75EB030E22BFB61A754640EA5C005B084FEA3202B6EB020E75EB030E22BFB61A754640EA9C005B084FEA3202B6EB020E75EB22
:403F8000030E22BFB61A754640EADC0055EA060E18D04FEA051545EA16754FEA06164FEAC30343EA52734FEAC2025FEA1C1CC0D111F4801F0BD141EA00014FF000004FF0B7
:403FC000004CB6E711F4801F04BF01430020B4F1FD0C88BFBCF5E06F3FF6AFAEB5EB030C04BFB6EB020C5FEA500C50F1000041EB045170BD0EF0004E4EEA113114EB5C04AC
:40400000C2BFD4EB0C0541EA045170BD41F480114FF0000E013C90E645EA060E8DE60CEA135594EA0C0F08BF95EA0C0F3FF43BAF94EA0C0F0AD150EA01347FF434AF95EAD9
:404040000C0F7FF425AF104619462CE795EA0C0F06D152EA03353FF4FDAE1046194622E750EA410618BF52EA43067FF4C5AE50EA41047FF40DAF52EA43057FF4EBAE12E79B
:404080004FF0FF3C06E000BF4FF0010C02E000BF4FF0010C4DF804CD4FEA410C7FEA6C5C4FEA430C18BF7FEA6C5C1BD001B050EA410C0CBF52EA430C91EA030F02BF90EA0A
:4040C000020F0020704710F1000F91EA030F58BF994208BF90422CBFD8176FEAE37040F0010070474FEA410C7FEA6C5C02D150EA013C07D14FEA430C7FEA6C5CD6D152EACD
:40410000033CD3D05DF8040B704700BF8446104662468C461946634600E000BF01B5FFF7B7FF002848BF10F1000F01BD4DF808EDFFF7F4FF0CBF012000205DF808FB00BFDD
:404140004DF808EDFFF7EAFF34BF012000205DF808FB00BF4DF808EDFFF7E0FF94BF012000205DF808FB00BF4DF808EDFFF7CEFF94BF012000205DF808FB00BF4DF808ED3F
:40418000FFF7C4FF34BF012000205DF808FB00BF4FEA410C7FEA6C5C02D150EA013C0AD14FEA430C7FEA6C5C02D152EA033C02D14FF0000070474FF0010070474FEA4102DC
:4041C000B2F1E04324BFB3F5001CDCF1FE5C0DD901F0004C4FEAC0024CEA5070B2F1004F40EB830008BF20F00100704711F0804F21D113F13872BCBF01F00040704741F4E0
:4042000080114FEA5252C2F11802C2F1200C10FA0CF320FA02F018BF40F001004FEAC1234FEAD32303FA0CFC40EA0C0023FA02F34FEA4303CCE77FEA625307D150EA013318
:404240001EBF4FF0FE4040F44000704701F0004040F0FE4040F40000704700BF80F0004002E000BF81F0004142001FBF5FEA410392EA030F7FEA226C7FEA236C6AD04FEAD0
:404280001262D2EB1363C1BFD218414048404140B8BF5B42192B88BF704710F0004F40F4000020F07F4018BF404211F0004F41F4000121F07F4118BF494292EA030F3FD00C
:4042C000A2F1010241FA03FC10EB0C00C3F1200301FA03F100F0004302D5494260EB4000B0F5000F13D3B0F1807F06D340084FEA310102F10102FE2A51D2B1F1004F40EBDE
:40430000C25008BF20F0010040EA03007047490040EB000010F4000FA2F10102EDD1B0FA80FCACF1080CB2EB0C0200FA0CF0AABF00EBC25052421843BCBFD040184370476A
:4043400092F0000F81F4000106BF80F400000132013BB5E74FEA41037FEA226C18BF7FEA236C21D092EA030F04D092F0000F08BF0846704790EA010F1CBF0020704712F0C1
:404380007F4F04D1400028BF40F00040704712F100723CBF00F50000704700F0004343F0FE4040F4000070477FEA226216BF08467FEA23630146420206BF5FEA412390EAEB
:4043C000010F40F4800070474FF0000304E000BF10F0004348BF40425FEA000C08BF704743F0964301464FF000001CE050EA010208BF70474FF000030AE000BF50EA01024D
:4044000008BF704711F0004302D5404261EB41015FEA010C02BF84460146002043F0B64308BFA3F18053A3F50003BCFA8CF2083AA3EBC25310DB01FA02FC634400FA02FCFA
:40444000C2F12002BCF1004F20FA02F243EB020008BF20F00100704702F1200201FA02FCC2F1200250EA4C0021FA02F243EB020008BF20EADC7070474FF0FF0C1CEAD052B0
:404480001EBF1CEAD15392EA0C0F93EA0C0F6FD01A4480EA010C400218BF5FEA41211ED04FF0006343EA501043EA5111A0FB01310CF00040B1F5000F3EBF490041EAD371CF
:4044C0005B0040EA010062F17F02FD2A1DD8B3F1004F40EBC25008BF20F00100704790F0000F0CF0004C08BF49024CEA502040EA51207F3AC2BFD2F1FF0340EAC25070476B
:4045000040F400004FF00003013A5DDC12F1190FDCBF00F000407047C2F10002410021FA02F1C2F1200200FA02FC5FEA310040F1000053EA4C0308BF20EADC70704792F086
:40454000000F00F0004C02BF400010F4000F013AF9D040EA0C0093F0000F01F0004C02BF490011F4000F013BF9D041EA0C018FE70CEAD15392EA0C0F18BF93EA0C0F0AD008
:4045800030F0004C18BF31F0004CD8D180EA010000F00040704790F0000F17BF90F0004F084691F0000F91F0004F14D092EA0C0F01D142020FD193EA0C0F03D14B0218BF6D
:4045C000084608D180EA010000F0004040F0FE4040F40000704740F0FE4040F4400070474FF0FF0C1CEAD0521EBF1CEAD15392EA0C0F93EA0C0F69D0A2EB030280EA010C1D
:4046000049024FEA402037D04FF0805343EA111143EA10130CF000408B4238BF5B0042F17D024FF4000C8B4224BF5B1A40EA0C00B3EB510F24BFA3EB510340EA5C00B3EB40
:40464000910F24BFA3EB910340EA9C00B3EBD10F24BFA3EBD10340EADC001B0118BF5FEA1C1CE0D1FD2A3FF650AF8B4240EBC25008BF20F0010070470CF0004C4CEA5020FF
:404680007F32C2BFD2F1FF0340EAC250704740F400004FF00003013A37E792F0000F00F0004C02BF400010F4000F013AF9D040EA0C0093F0000F01F0004C02BF490011F448
:4046C000000F013BF9D041EA0C0195E70CEAD15392EA0C0F08D142027FF47DAF93EA0C0F7FF470AF084676E793EA0C0F04D14B023FF44CAF08466EE730F0004C18BF31F0C1
:40470000004CCAD130F000427FF45CAF31F000437FF43CAF5FE700BF4FF0FF3C06E000BF4FF0010C02E000BF4FF0010C4DF804CD4FEA40024FEA41037FEA226C18BF7FEA4E
:40474000236C11D001B052EA530C18BF90EA010F58BFB2EB030088BFC81738BF6FEAE17018BF40F0010070477FEA226C02D15FEA402C05D17FEA236CE4D15FEA412CE1D076
:404780005DF8040B704700BF844608466146FFE70FB5FFF7C9FF002848BF10F1000F0FBD4DF808EDFFF7F4FF0CBF012000205DF808FB00BF4DF808EDFFF7EAFF34BF01207A
:4047C00000205DF808FB00BF4DF808EDFFF7E0FF94BF012000205DF808FB00BF4DF808EDFFF7D2FF94BF012000205DF808FB00BF4DF808EDFFF7C8FF34BF012000205DF89C
:4048000008FB00BF4FEA4002B2F1FE4F0FD34FF09E03B3EB12620DD94FEA002343F0004310F0004F23FA02F018BF404270474FF00000704712F1610F01D1420205D110F0FC
:40484000004008BF6FF0004070474FF000007047014B1868704700BFE481FF1F0E4B70B51E460E4C0025E41AA410A54204D056F8253098470135F8E702F074F9084B094CB4
:404880001E46E41AA4100025A54204D056F8253098470135F8E770BD706B0000706B0000706B0000786B000010B5431E0A44914204D011F8014B03F8014FF8E710BD03461A
:4048C0000244934202D003F8011BFAE770472DE9F04788B0149F002B1E461299B8BF03F1004327F02007B6BF1E4600232D23462F1446109DDDF84CA00B7003D0452F03D19F
:40490000013501E0032300E0022307AA049206AA03928DE828042246334600F001FD472F804602D1119BDB0728D5462F08EB050911D198F80030302B0AD1002200232046A6
:404940003146FFF7F3FB18B9C5F10105CAF80050DAF8003099440022002320463146FFF7E5FB08B9302202E0CDF81C9006E0079B994503D9591C07911A70F8E74046079B20
:40498000159AC8EB0303136008B0BDE8F087034673B50029B8BF494203F8022BB4BF2D222B22092942701ADD0DF1070216460A2591FBF5F405FB1411092C01F1300102F81C
:4049C000011D2146F4DC3031541E02F8011CB4421A460AD214F8012B03F8012BF7E71A463024214402F8024B5970101A02B070BD2DE9F04F91B00C46DDF8688016461F4671
:404A0000054601F025FA03681846099300F0F4FB00230E93D8F800300A90073323F0070303F1080294F81890D4F800B0C8F80020D3E90023C4E91223D4F84CA0D4F8488087
:404A40002AF000430B934FF0FF32A74B40460B99FFF79EFBA0B94FF0FF32A34B40460B99FFF778FB60B90022002340465146FFF767FB10B12D2384F843309C4B9C4A0AE04C
:404A80004246534640465146FFF782FB002800F09281984B984AB9F1470F8CBF90469846032323612BF0040323604FF0000A3DE0B9F1670F00F08A81B9F1470F00F086818F
:404AC00023600193636800210DF13302059002920093424653460691CDF81090CDF80CE02846FFF7F4FE09F0DF03472B804600F08481B9F1650F0D9900F28D8101394A460A
:404B000004F150000D91FFF742FF0E9A82468318012A236100F37C812268D10700F178819DF8333013B12D2384F84330009733460FAA2146284600F09FF9013002D14FF001
:404B4000FF3096E123685A0501D4236965E0B9F1650F40F2D580D4E9120100220023FFF7E5FA78B30123654A31462846B8470130E5D00E9B0D9A9A420BDB2368D80708D450
:404B800023689B0740F111814FF0000804F1190906E10A9B099A31462846B8470130CED04FF0000804F11A090E9B013B9845E7DA01234A4631462846B8470130BFD008F192
:404BC0000108F1E70D9B002B29DC01234B4A31462846B8470130B2D00D9B23B90E9B13B92368D907CCD50A9B099A31462846B8470130A4D04FF0000904F11A0A0D9B5B4230
:404C0000994509DA0123524631462846B847013095D009F10109F1E70E9B4246A7E00E9AA36D9A42A8BF1A46002A914606DC4FF0000A29EAE97904F11A0B11E01346314612
:404C400042462846B8470130F1D178E701235A4631462846B84701303FF471AF0AF1010AA36DC9EB03029245F0DB08EB03090D9A0E9B9A420FDB2368DA070CD40E9B0D9A9F
:404C80009844C9EB08089B1A9845A8BF9846B8F1000F08DC0FE00A9B099A31462846B8470130EBD14BE743464A4631462846B84701303FF444AF4FF0000928EAE87804F1A4
:404CC0001A0A09E00123524631462846B84701303FF435AF09F101090D9A0E9B9B1AC8EB03039945EEDB4BE7FFFFEF7F026A0000066A00000A6A00000E6A0000126A000074
:404D00000E9A012A01DCDB0738D50123424631462846B84701303FF412AF0A9B099A31462846B84701303FF40AAFD4E9120100220023FFF7FBF920B14FF0000804F11A09A7
:404D40000EE00E9B08F10102013B19E001234A4631462846B84701303FF4F1AE08F101080E9B013B9845F1DB534604F1500231462846B84701307FF403AFE0E642460123B4
:404D800031462846B8470130EED1D8E601234A4631462846B84701303FF4D1AE08F10108E3680F9A9B1A9845F0DBE0680F9B9842B8BF18465DE062680EA8531C0DF1340E86
:404DC0004BF480637FF474AE062201E012B90122626075E6002106910DF133018DE80C00236005904246CDF81090CDF80CE0029153462846FFF76BFD80460D9BD81C02DB90
:404E0000626893421DDDA9F102095FFA89F970E60133236184E6B9F1660F14D10029636807DD216113B92268D2071DD501330B4419E013B92268D00701D5023313E0012397
:404E400011E04FF067090D9B0E9A934205DB22682361D10708D5013305E0002BD4BFC3F102030123134423610D9B4FF0000AA36556E611B0BDE8F08F2DE9F04791461F4698
:404E80000A698B6806469342B8BF1346C9F8003091F843200C46DDF8208012B10133C9F800302368990642BFD9F800300233C9F80030256815F0060510D104F1190A07E040
:404EC0000123524639463046C04701301AD00135E368D9F800209B1A9D42F1DB94F843302268003318BF012392060FD5E118302081F843005A1C94F845102244023382F869
:404F0000431003E04FF0FF30BDE8F08704F1430239463046C0470130F4D02268D9F80050E36802F00602042A08BF5D1B2269A3680CBF25EAE57500259342C4BF9B1AED1828
:404F40004FF000091A344D4509D00123224639463046C0470130D5D009F10109F3E70020BDE8F0872DE9F04317460A7E85B06E2A984606460C460C9B01F1430E00F0AE8039
:404F800011D8632A22D009D8002A00F0BB80582A40F0CA8081F84520834955E0642A1ED0692A1CD0C0E0732A00F0B08009D86F2A2ED0702A40F0B8800A6842F020020A6076
:404FC0003EE0752A24D0782A3AD0ADE01A6801F14205111D1960136884F84230A8E021681A6811F0800F02D0111D196008E011F0400F02F10401196002D0B2F9003000E02A
:405000001368002B3CDA2D225B4284F8432037E021681A6811F0800F02D0111D196007E011F0400F02F10401196001D0138800E01368227E5C496F2A14BF0A2208221BE04D
:4050400078225A4984F845202268186812F0800F00F104051D6003D1550601D5038800E00368D00744BF42F0200222601BB9226822F0200222601022002084F8430001E06F
:4050800049490A226568002DA56008DB206820F0040020602BB9002D7DD175460CE0002B79D07546B3FBF2F002FB1033CB5C05F8013D03460028F5D1082A0BD12368DA071C
:4050C00008D5236962689A42DEBF302305F8013C05F1FF35C5EB0E0323612EE008681A6810F0800F496903D0101D1860136808E010F0400F02F104001860136801D0198049
:4051000000E0196000232361754616E01A68111D1960156800216268284600F0A5FE08B1401B6060636804E004F1420584F8422001232361002384F84330CDF800803B460F
:4051400003AA21463046FFF797FE013002D14FF0FF3026E023692A4639463046C0470130F5D023689B0710D5002504F1190907E001234A4639463046C0470130E7D00135B1
:40518000E368039A9B1A9D42F2DBE068039B9842B8BF184605E00B7804F1420584F842308AE705B0BDE8F083146A0000256A00000EB400B54FF402719CB0ADF814106FF093
:4051C0000041049107914FF6FF711DAB02900690084853F8042BADF81610006802A9019301F038FA029B00221A701CB05DF804EB03B07047E481FF1F034613F8012B002A4D
:40520000FBD1181A013870472DE9F74F03690C6980469C427FDC013C01F114074FEA840E00F1140606EB0E0357F82450019356F824300135B3FBF5F507EB0E09C5B34FF09B
:40524000000A3846B446D34650F8043B9AB205FB02A21B0C4FEA124A05FB03A392B2C2EB0B0BBCF800204FEA134A5A441FFA83FBDCF800308145CBEB134303EB224392B2A7
:4052800042EA03424FEA234B4CF8042BDCD256F80E306BB9019B043B9E421A4602D3C8F8104005E01268043B002AF8D1013CF3E7404600F0F4FF00282BDB304601354FF0DB
:4052C000000E57F8042B036891B2C1EB0E0E120C99B27144C2EB134303EB214389B24FEA234EB94541EA034340F8043BE9D256F8242006EB840362B9043B9E421A4602D33A
:40530000C8F8104005E01268043B002AF8D1013CF3E7284600E0002003B0BDE8F08F00002DE9F04F456A95B08246219CCDE9022345B9102000F090FDCAF8240045608560AC
:405340000560C560DAF82430196859B15A68012393404A608B60504600F0C9FDDAF8243000221A60039BA04A002BBDBF01232360039B0023BCBF23F000430393DDF80C8037
:40538000A8BF236028F000431B0D1B0593421DD142F20F73209A1360029B43B9934A944BC8F31300002814BF1846104600E09048229B002B00F04685C37813B100F1080392
:4053C00000E0C31C229A136000F03CBDDDE902450022002320462946FEF7A8FE074658B1209A01231360229B002B00F01E8581481860013800F026BD12AB019313AB009303
:4054000022462B46504600F0C5FFC8F30A56049056B1C5F3130343F07F51204641F44011A6F2FF3611971DE0139B129E1E4406F23243202B0ADD029A06F21240C3F1400328
:4054400022FA00F008FA03F3184304E0C3F12000029B03FA00F0FEF78BFB0123A1F1F871013E11930022644BFEF744FA58A3D3E90023FEF7F3FB58A3D3E90023FEF73CFA48
:40548000044630460D46FEF783FB55A3D3E90023FEF7E4FB02460B4620462946FEF72CFA04460D4601F028FA00228346002320462946FEF745FE58B15846FEF769FB02461F
:4054C0000B4620462946FEF731FE08B90BF1FF3BBBF1160F0DD8DDE90223484901EBCB01D1E90001FEF74AFE30B10BF1FF3B002300E00123109300E01090129B9E1B731E31
:40550000079343BFC3F10008002307934FF00008BBF1000F06DB079BCDF82CB05B440793002705E00023CBEB0808CBF100070B931E9B092B28D8052BC4BF043B1E931E9B58
:40554000C8BF0025A3F10203D8BF0125032B20D8DFE803F0060E0204012302E0012308E000230A931F9B002B1DDD9946059321E000230A931F9B0BEB030909F10103012B60
:405580000593B8BF012315E0012500231E930A9501E001230A934FF0FF390022CDF8149012231F9206E04FF001094B46CDF81490CDF87C90DAF8244000226260042101F175
:4055C00014029A421CD86268490001326260F6E761436F63A787D23FB3C8608B288AC63FFB799F501344D33F0000F07F366A00003F6A0000136A00000000F83F506A00001C
:405600006168504600F03EFCDAF8243020601B680693059B0E2B00F25B81002D00F05881DDE90234BBF1000FCDE90E3430DD9F4A0BF00F034FEA2B1502EBC303E80618CBD3
:40564000CDE908340CD5DDE90E01994B05F00F05D3E90823FEF72CFC0324CDE9020100E00224934E6DB1E90708D5DDE90801D6E90023FEF7F3FACDE9080101346D1008369D
:40568000F0E7DDE90823DDE90201FEF711FC20E0CBF1000505B3DDE90E01844B05F00F0203EBC203D3E90023FEF7D8FACDE902017F4E2D110023022455B1EA0705D5D6E93E
:4056C0000023FEF7CBFA013401236D100836F3E71BB1CDE9020100E00224109BE3B1DDE902560022734B28463146FEF729FD98B1059B8BB1B9F1000F40F3E6800BF1FF3372
:405700000893314600226C4B2846FEF7A7FA0134CDE902014E4602E0059ECDF820B02046FEF736FADDE90223FEF798FA634B0022FEF7E2F8A1F1507304460C931D46D6B912
:40574000DDE9020100225E4BFEF7D4F822460C9BCDE90201FEF712FD002840F03F820C99224601F10043DDE90201FEF7E9FC002840F02B82A8E00A9A4C4B711E002A49D070
:4057800003EBC103D3E9002300204E49FEF790FB22462B46FEF7AEF8CDE90C01069CDDE9020101F0A9F80546FEF7F2F902460B46DDE90201FEF79EF8DDE90C23303504F87F
:4057C000015BCDE90201FEF7BBFC002840F01D83DDE9022300203749FEF78CF8DDE90C23FEF7AEFC002840F0D180069BE31AB3426ADADDE90C0100222F4BFEF72FFA002229
:40580000CDE90C01DDE902012B4BFEF727FACDE90201C4E703EBC1012246D1E900012B46FEF71CFA069BCDE90C011D469C19DDE9020101F061F80646FEF7AAF902460B4691
:40584000DDE90201FEF756F8303605F8016BAC42CDE902014FF0000222D11A4BDDE90C01FEF74AF802460B46DDE90201FEF786FC002840F08B80DDE90C2300201149FEF763
:4058800039F802460B46DDE90201FEF759FCD8B114F8013C621E302B40F0B7821446F7E7054BFEF7DBF9CDE90201C0E7506A0000286B00000000F03F0000244000001C4008
:4058C000000014400000E03FDDE90E34CDE90234139B002B7CDBBBF10E0F79DCAB4B03EBCB03D3E900671F9B002B14DA059B002B11DC40F06C810022A54B30463946FEF77A
:40590000ADF9DDE90223FEF72FFC059D2E46002840F05F8165E1069CDDE9028932463B4640464946FEF7C4FA00F0E6FF0546FEF72FF932463B46FEF791F90B460246494691
:405940004046FDF7D7FF05F1300E069B04F801EBC3EB040E059B73452DD102460B46FDF7CBFF8046894602460B4630463946FEF7E7FB78B942464B4630463946FEF7D6FBAE
:40598000002800F04482EB0704D440E2DDF820B000E01C4614F8012C631E392A07D1069A9A42F6D1069930220BF1010B0A701A7801321A702BE20022764BFEF74FF90022ED
:4059C000002380468946FEF7B1FB0028A6D01EE20A9A002A2BD01E9A012A0ADC119A12B103F2334302E0129BC3F136033D46444613E0059B5D1EAF42BFBF0B9BEA1B9B18E1
:405A00000B93059BB6BF2F467D1B0025002BA7BF4446059BC3EB08040023079A01211A4450469844079200F001FB064602E03D4644460A9E5CB1079B002B08DDA342A8BFE3
:405A40002346079AC3EB0808E41AD31A0793002F1DDD0A9BABB18DB131462A46504600F07FFB049A01460646504600F0E8FA04990890504600F03BFA089B04937A1B06D05C
:405A800000E03A460499504600F06AFB04900121504600F0CBFA0B9B05465BB31A460146504600F05DFB1E9B0546012B18DC029B83B9039BC3F3130373B9039B23F00047EE
:405AC0003F0D3F054FB1079B08F1010801330793012702E0002700E0029F0B9B73B100E000272B6905EB8303186900F052FAC0F1200004E01E9B012BD9DD0B9F0120079B9D
:405B0000184410F01F0008D0C0F12003042B02DDC0F11C0002E006D018461C30079B8044034404440793B8F1000F05DD42460499504600F063FB0490079B002B05DD29461D
:405B40001A46504600F05AFB0546109B23B32946049800F0A4FB00281EDA00230A220499504600F0DBF90A9B0BF1FF3B0490002B00F05F81314600230A22504600F0CEF9A1
:405B8000B9F1000F06463FDC3BE000BF506A00000000144000002440059B002B2BDC1E9B022B28DDDDF81490B9F1000F11D129464B460522504600F0B1F901460546049823
:405BC00000F06DFB00280CDC03E0354600E000252E461F9B069C6FEA030B09E03546DDF820B0069B069A5C1C312313700BF1010B05960026F7E00A9BDDF8149023B9069CCE
:405C0000B2E01E9B022BCFDC002C05DD31462246504600F0F3FA06469FB17168504600F031F90446326906F10C01023292000C30FEF73AFE01222146504600F0DFFA059026
:405C400000E00596029B069F03F00103079329460498FFF7D9FA3146044600F13008049800F01DFB059A02902946504600F033FBC36802463BB901460A90049800F00FFB42
:405C80000A9A034600E00123114650460A9300F02EF90A9B53B91E9A42B9079A32B9B8F1390F2AD0029B002B1CDC1DE0029A002A04DB1BD11E9ACAB9079ABAB9002B13DDBF
:405CC00001220499504600F099FA2946049000F0E6FA002803DC07D118F0010F04D0B8F1390F0AD004F131087C1C0CE0002B07F101040BDDB8F1390F03D139233B7001379C
:405D000056E008F1010887F800806CE0069B2746E31A4B4504F8018C3BD000230A220499504600F0FBF8059B04909E424FF00A024FF000033146504604D100F0EFF80646A6
:405D4000059084E700F0EAF8002306460A220599504600F0E3F8059079E700230A220499504600F0DBF8049029460498FFF74CFA069B00F1300804F8018BE31A4B45ECDBFC
:405D8000069B0596B9F1010FACBF4B4401331F46002601220499504600F030FA2946049000F07DFA002803DC15D118F0010F12D03C4614F8013C621E392B09D1069B934274
:405DC00004D10BF1010B3123069A02E01446F0E70133137007E03C4614F8013C621E302B01D11446F8E72946504600F080F8059B6BB12EB19E4203D03146504600F077F849
:405E00000599504600F073F801E0DDF820B00499504600F06CF80023209A23700BF101031360229B1BB11C6001E008480AE0069808E0B9F1000F3FF7E2AE1E9B022B7FF762
:405E4000DEAEB1E615B0BDE8F08F00BF126A000000487047E881FF1F024B0146186800F041BB00BFE481FF1F10B5C9B202449042034605D01C7801308C42F8D1184610BD16
:405E8000002010BD70B5456A04460E463DB91020FFF7E2FF6062456085600560C560656AEB6843B1636ADB6853F8260078B1026843F8262017E021220421204600F0B8FA9E
:405EC000636AE860DB68002BECD1002070BD012101FA06F56A1D9200204600F0A9FA0028F3D04660856000230361C36070BD70B5446A06460D463CB91020FFF7ADFF706293
:405F0000446084600460C4603DB1736A6A68DB6853F82210296043F8225070BD2DE9F04106460C460D691F4601F1140E0023DEF80000013381B202FB0171000C0F0C02FBCA
:405F4000007089B201EB00419D424FEA10474EF8041BECDCD7B1A3689D4212DB616830460131FFF78FFF8046226904F10C01023292000C30FEF798FC21463046FFF7B7FFF2
:405F8000444604EB850301355F6125612046BDE8F081030C1B0413B90004102300E0002310F07F4F04BF0002083310F0704F04BF0001043310F0404F04BF800002330028FD
:405FC00003DB420003D5581C70471846704720207047036813F007020BD0D90722D49A074BBF5B089B08036003604CBF01200220704799B209B91B0C102213F0FF0F04BF94
:406000001B0A0832190704BF1B090432990704BF9B080232D90702D45B0805D00132036010467047002070472020704710B50C460121FFF727FF01224461026110BD2DE9C8
:40604000F74F14460A69236988469A42BEBF0B46A0461C46D8F81070D4F81090D8F80830D8F8041007EB09069E42C8BF0131FFF709FF00F114052B4605EB860C00226345BA
:4060800002D243F8042BFAE704F1140208F1140102EB890301EB87070093009B0192934257D9B2F800B0BBF1000F23D08946AE464FF0000859F8044BBEF800A0A3B20BFB8C
:4060C00003A34FEA144ADEF8004043444FEA14480BFB0A84F24604EB13449BB243EA04434F454FEA14484AF8043B01D9D646E1E7CEF80480019B0432B3F802A0BAF1000FD3
:4061000021D02C4689462B684FF00008B9F800E0B4F802B09BB20AFB0EBEA346F04443EA08434BF8043B59F8043BB4F804E01B0C0AFB03E34F4503EB18434FEA134801D9B2
:406140005C46E3E763600435A7E75CF8043D13B9013E002EF9DC066103B0BDE8F08F00002DE9F843154612F0030206460F4607D0214C013A002354F82220FFF7CFFE0746B4
:40618000AD1036D0746A3CB91020FFF765FE7062446084600460C460D6F82480D8F808404CB940F271213046FFF740FF04460023C8F8080003604FF00008EB070AD53946B1
:4061C00022463046FFF73BFF814639463046FFF78EFE4F466D100CD0206808B10446ECE7224621463046FFF72AFF2060C0F80080F4E73846BDE8F883186B00002DE9F047A2
:406200000C460746914626694FEA621A56444968A368751CAB4202DA01315B00FAE73846FFF730FE002380461A4600F11401534503DA41F823200133F9E72AEAEA73206996
:4062400001EB830319F01F0904F1140101EB800E14D0C9F1200C002208689A4600FA09F0024343F8042B51F8042B8E4522FA0CF2F2D8CAF8042042B1B51C06E0043B51F8D2
:40628000042B8E4543F8042FF9D8013D3846C8F810502146FFF72BFE4046BDE8F08703690A6910B59B1A11D192001430143183180A4453F8044D52F8041D8C4202D007D3D9
:4062C000012010BD9842F4D3002010BD184610BD4FF0FF3010BD2DE9F8430C460746114620461546FFF7DBFF061E08D131463846FFF7C8FD012303614661BDE8F883BCBF6D
:4063000023462C4638466168BABF1D4601260026FFF7B8FD2B69C660266905F1140904F1140101EB860709EB830800F114054FF0000C51F8042B59F8044B93B29C44A3B222
:40634000240CC3EB0C03C4EB124202EB23429BB24FEA224CC84543EA02428E4645F8042BE7D8BE450ED25EF8041B8AB26244131403EB114392B242EA03424FEA234C45F82D
:40638000042BEEE755F8043D0BB9013EFAE70661BDE8F8832DE9F3411C4601219046089E099DFFF76FFDC4F31302C4F30A5407460CB142F480120192B8F1000F19D002A8FD
:4063C00040F8088DFFF705FE009B48B1019AC0F1200102FA01F10B43C2407B61019200E07B61019B002B14BF02210121BB61396107E001A8FFF7EDFD019B01217B61396134
:40640000203034B1A4F2334404443460C0F1350009E0A0F2324007EB810330601869FFF7B8FDC0EB41102860384602B0BDE8F08138B502FB01F4214600F054F8054618B1D9
:4064400022460021FEF73BFA284638BD38B50546002944D051F8043C0C1F002BB8BFE41800F017FA1E4A1368114613B96360146030E0A3420DD92268A018834201BF1868DF
:406480005B681218226063600C6023E0A24203D813465A68002AF9D118681918A1420BD12168014458188242196013D110685268014419605A600DE002D90C232B6009E089
:4064C00021686018824201BF106852680918216062605C602846BDE8384000F0DBB938BD0C83FF1F70B5CD1C25F0030508350C2D38BF0C25002D064601DBA94202D90C2301
:40650000336046E000F0C5F9234B1C681A462146A1B10B685B1B0ED40B2B03D90B60CC18CD501EE08C420BBF63684B681360636018BF0C4615E00C464968E9E7174C236877
:406540001BB9304600F07AF920602946304600F075F9431C18D0C41C24F00304A0420DD12560304600F096F904F10B00231D20F00700C31A0ED05A42E25070BD211A304671
:4065800000F05CF90130EBD10C233360304600F081F9002070BD00BF0C83FF1F0883FF1F2DE9F0478E6882469E420C46914698463ED88A8912F4906F3AD025680969022357
:4065C0006F1A656905EB450595FBF3F57B1C43449D4238BF1D4653050FD52946FFF782FF064698B13A462169FEF75EF9A38923F4906343F08003A38113E02A4600F04BF987
:40660000064670B921695046FFF720FF0C23CAF80030A3894FF0FF3043F04003A381BDE8F08726613E44266046466561ED1BA560464528BF464649463246206800F00EF9CD
:40664000A36800209B1BA36023681E442660BDE8F08700002DE9F04F9DB003938B8980461C060D4616460DD50B695BB94021FFF739FF2860286118B90C23C8F80030CDE01D
:4066800040236B610023099320238DF82930DFF89CB130238DF82A3037463C4614F8013B1BB9B7EB060910D003E0252BF9D02746F3E74B46324629464046FFF771FF0130F1
:4066C00000F0A780099B4B4409933B78002B00F0A08000234FF0FF3204930793059206938DF853301A930126052221784E48FFF7BBFB671C049B38B14B4A3C46801A06FA38
:4067000000F018430490EFE7D90644BF20228DF853201A0744BF2B228DF8532022782A2A03D0079A00210A200BE0039A111D12680391002A10DA524243F0020007920490A4
:406740000BE027463B780134303B092B03D800FB02320121F5E701B107923B782E2B1ED17B782A2B0AD1039B02371A1D1B680392002BB8BF4FF0FF33059310E00023194686
:406780000593781C0A2407463A780130303A092A03D804FB01210123F5E703B10591032239782248FFF760FB40B14023CBEB000003FA00F0049B0137184304903978062245
:4067C0001B487E1C8DF82810FFF74EFB88B1194B33B9039B073323F007030833039314E003AB00932A46144B04A94046FEF700F907E003AB00932A460F4B04A94046FEF712
:40680000B1FBB0F1FF3F824603D0099B5344099342E7AB895B0601D4099801E04FF0FF301DB0BDE8F08F00BF506B0000566B00005A6B0000F1490000A165000038B5064C68
:406840000023054608462360FAF736FC431C02D1236803B12B6038BD4084FF1F884210B501EB020301D8421E0BE09842FBD28118D21AD34204D013F8014D01F8014DF8E7AB
:4068800010BD994204D011F8014B02F8014FF8E710BD70477047F8B5074615460E4621B91146BDE8F840FFF71DBE1AB9FFF7CEFD2846F8BD00F015F885420ED929463846CC
:4068C000FFF710FE044650B131462A46FDF7ECFF31463846FFF7BAFD01E03046F8BD2046F8BD51F8040C0028BEBF091851F8043CC0180438704700004FEA410212F50012B2
:4069000015D211D56FF47873B3EB625212D94FEAC12343F0004343EA505311F0004F23FA02F018BF404270474FF00000704750EA013005D111F0004008BF6FF00040704798
:406940004FF00000704700BF00000000000000007350203D2025642C20523A25692025302E33662025302E3366200A007374657073203D202564206572726F72203D202570
:40698000660A0000726573796E630000C84900401900405100403000F0510040100000000140001000140140000800400140000A004C01400002105001401000605200406C
:4069C000E8100048060000500140F010004810003031323334353637383941424344454600000000706F77007371727400000000000000000000304300000000000030C340
:406A00004300494E4600696E66004E414E006E616E00300030313233343536373839414243444546003031323334353637383961626364656600496E66696E697479004E13
:406A4000614E00504F534958002E000000000000000000000000F03F000000000000244000000000000059400000000000408F40000000000088C34000000000006AF8403E
:406A80000000000080842E4100000000D01263410000000084D797410000000065CDCD41000000205FA00242000000E876483742000000A2941A6D42000040E59C30A24214
:406AC0000000901EC4BCD64200003426F56B0C430080E03779C3414300A0D8855734764300C84E676DC1AB43003D9160E458E143408CB5781DAF154450EFE2D6E41A4B44E6
:406B000092D54D06CFF08044F64AE1C7022DB544B49DD9794378EA4405000000190000007D000000000000000080E03779C34143176E05B5B5B89346F5F93FE9034F384D18
:406B4000321D30F94877825A3CBF737FDD4F1575232D302B2000686C4C0065666745464700000000F8B500BFF8BC08BC9E4670474D00000035110000F8B500BFF8BC08BC7A
:406B80009E46704729000000986B0000C880FF1F58010000280200000000000005000000FF000000F01D903E4260E53C0000A040000020400000803E0AD7A33C00007EC384
:406BC00000007E4300007EC300007E430000803F00000000000000000000000000000000000000000000A040000020400000803E0AD7A33C00007EC300007E4300007EC312
:406C000000007E430000803F0000000000000000000000000000000000000000E17A943E0000803F00C0A5434884FF1F7F800000010000000000E02EC05D00001800000013
:406C400000366E01675000400C00000007000000FF0100000000000000000000000000000000000000000000000000000000000000000000006A00000000000000000000FB
:406C8000000000000000000000000000000000000000000000000000000000000000000000000000000000000000000000000000000000008481FF1F496A0000556B00003E
:406CC000556B0000556B0000556B0000556B0000556B0000556B0000556B0000556B0000FFFFFFFFFFFFFFFFFFFFFFFFFFFF000000000000000000000000000000000000A2
:406D00000000000000000000000000000000000000000000000000000000000000000000000000000000000000000000000000000000000000000000000000000000000053
:406D40000000000000000000000000000000000000000000000000000000000000000000000000000000000000000000000000000000000000000000000000000000000013
:406D800000000000000000000000000000000000000000000000000000000000000000000000000000000000000000000000000000000000000000000000000000000000D3
:406DC0000000000000000000000000000000000000000000000000000000000000000000000000000000000000000000000000000000000000000000000000000000000093
:020000040003F7
:0200000480007A
:40000000085200400964004006650040590001403A010140400201404C03014063040140460501405B060140500701406008014052090140580A01404F0B0140600C014007
:400040004E0D01405E0E01403C0F014062140140431501405D16014050170140511801403D1901404D1A01403B1B014009400140164101400F4201400643014003440140B9
:400080000F450140084601400747014005480140144901400D4C01400B4D014005500140045101400142081009101005110314081825191C8071820F830F8438860D870FDE
:4000C000890F8A6F8F6F09FF19FF29FF39FF860D890F0301040605080601080109080A060D0810071407150619061B011D041E0120042107240225012706280629062B014F
:400100002D023207330737083B0840534106420249FF4AFF4BFF4F01501856025713580459045A045B045C115D195F016040624064406540668068806A806C806E808301CE
:400140008901A301A601B201B301B601BF04C043C106C202C9FFCAFFCBFFCD83CE03CF01D018D280D804D904DA04DB04DC09DD99DF01E040E240E440E540E680E880EA8041
:40018000EC80EE800204032008080A400B0110201312150818101E201F80228423012730280929012A042F803144332039543B013C2241084310450846804720480149105F
:4001C0004A084E085802695470207144721073127401768080408101825084028680C006C20DC42ECA8FCC0ECEAFD0E6D22CD601E001E204E408E60614021B012101220111
:400200002A012F013001310134023E1140464103420245EC4702481349FF4AFF4BFF4D834E034F0150185403580459045A045B045C905D995E805F05604062406440654068
:40024000668068806A806C806E808A018C048F01920299029A019F02A101A204A604A902B002B401B502B604B701BE50BF50D40FD804D904DB04DF010010020205100708F9
:400280000B480D0410801210168819821A081D101E802250278029022A102E802F4030A0361038403B40468047284C084F05540855085608580259885A205E805F256940AA
:4002C0006C027F4080028140824084108544874089048A048B018EC090509508985899409A849B209D10A290A410A508AA04B071B204B320B418C003C22AC45CCA95CC2C0A
:40030000CE08D0E0D220D6FFDE80E409E640EA010510090A0A060B040C180D030E220F0C120114201705181219031A201B041F10202821102438260427082A012B102C203D
:400340002D032E182F04310F323E3310340139083B023E104013410449FF4AFF4BFF4F01501854185604580459045A045B045C115D195F01604062406440654066806880DD
:400380006A806C806E80850C87038B088D018F069601A70CAB03AD01AE01AF0EB001B30FBB08C013C104C9FFCAFFCBFFCD83CE03CF01D018D280D804D904DA04DB04DC19D7
:4003C000DD99DF01E040E240E440E540E680E880EA80EC80EE800010030208210B300D081108128813401740181019101D021E402209234024202504282829012A082B027D
